{
  "transactions": [
    {
      "hash": "0x63ed5e988e88a4a337d6bcee8ca1a21d2b0f6fb24ea05e7bdf79ce2c02765a0b",
      "transactionType": "CREATE",
      "contractName": "StringCompare",
      "contractAddress": "0xe7d0197543E24FA995a274bed63Cfc29C13aC860",
      "function": null,
      "arguments": null,
      "transaction": {
        "type": "0x02",
        "from": "0x965b0e63e00e7805569ee3b428cf96330dfc57ef",
        "gas": "0x35e74",
        "value": "0x0",
        "data": "0x608060405234801561001057600080fd5b5061021c806100206000396000f3fe608060405234801561001057600080fd5b506004361061002b5760003560e01c80633a96fdd714610030575b600080fd5b61004361003e366004610153565b610057565b604051901515815260200160405180910390f35b60008160405160200161006a91906101b7565b604051602081830303815290604052805190602001208360405160200161009191906101b7565b6040516020818303038152906040528051906020012014905092915050565b634e487b7160e01b600052604160045260246000fd5b600082601f8301126100d757600080fd5b813567ffffffffffffffff808211156100f2576100f26100b0565b604051601f8301601f19908116603f0116810190828211818310171561011a5761011a6100b0565b8160405283815286602085880101111561013357600080fd5b836020870160208301376000602085830101528094505050505092915050565b6000806040838503121561016657600080fd5b823567ffffffffffffffff8082111561017e57600080fd5b61018a868387016100c6565b935060208501359150808211156101a057600080fd5b506101ad858286016100c6565b9150509250929050565b6000825160005b818110156101d857602081860181015185830152016101be565b50600092019182525091905056fea26469706673582212206d0be59d460ab830dca72b5d358b3be3652bc1cb5aa2d4c6d02c5818afff2ebe64736f6c63430008180033",
        "nonce": "0x352",
        "accessList": []
      },
      "additionalContracts": [],
      "isFixedGasLimit": false
    },
    {
      "hash": "0x63d8d58552a4cab431a8c3d7e61be23f1e9b76551aa368469cf90e82a6a47059",
      "transactionType": "CALL",
      "contractName": null,
      "contractAddress": "0xF8df13F1B8709C12EC61987D102C45F71632f69D",
      "function": "setStringCompareContract(address)",
      "arguments": [
        "0xe7d0197543E24FA995a274bed63Cfc29C13aC860"
      ],
      "transaction": {
        "type": "0x02",
        "from": "0x965b0e63e00e7805569ee3b428cf96330dfc57ef",
        "to": "0xf8df13f1b8709c12ec61987d102c45f71632f69d",
        "gas": "0xedb1",
        "value": "0x0",
        "data": "0xc666ea45000000000000000000000000e7d0197543e24fa995a274bed63cfc29c13ac860",
        "nonce": "0x353",
        "accessList": []
      },
      "additionalContracts": [],
      "isFixedGasLimit": false
    }
  ],
  "receipts": [],
  "libraries": [],
  "pending": [
    "0x63ed5e988e88a4a337d6bcee8ca1a21d2b0f6fb24ea05e7bdf79ce2c02765a0b",
    "0x63d8d58552a4cab431a8c3d7e61be23f1e9b76551aa368469cf90e82a6a47059"
  ],
  "returns": {},
  "timestamp": 1707892496,
  "chain": 80001,
  "multi": false,
  "commit": "a8d0b1f"
}