{
  "transactions": [
    {
      "hash": "0x5bbcbd1e68cc1ca2e63a5b84c169e0bc1df07ff89a4442927ab608fffd708988",
      "transactionType": "CREATE",
      "contractName": "DummyStaker",
      "contractAddress": "0xcff1972fc170e9e84247b589316132e07e653224",
      "function": null,
      "arguments": [
        "0xeeD56B91E4b79fB9ead2d9747CE54cB7BFaE13C1"
      ],
      "transaction": {
        "from": "0x965b0e63e00e7805569ee3b428cf96330dfc57ef",
        "gas": "0x2ba99",
        "value": "0x0",
        "input": "0x608060405234801561000f575f80fd5b506040516101a03803806101a083398101604081905261002e91610052565b5f80546001600160a01b0319166001600160a01b039290921691909117905561007f565b5f60208284031215610062575f80fd5b81516001600160a01b0381168114610078575f80fd5b9392505050565b6101148061008c5f395ff3fe6080604052600436106025575f3560e01c80631a186227146029578063dceb986d146061575b5f80fd5b3480156033575f80fd5b505f546045906001600160a01b031681565b6040516001600160a01b03909116815260200160405180910390f35b60676069565b005b66038d7ea4c68002348114607b575f80fd5b5f8054906101000a90046001600160a01b03166001600160a01b03166378e7ed2f826040518263ffffffff1660e01b81526004015f604051808303818588803b15801560c5575f80fd5b505af115801560d6573d5f803e3d5ffd5b50505050505056fea2646970667358221220b8ab5c1513cd6b7b3014b8905104187aba760bc20cbc3397491d50317d34742864736f6c63430008180033000000000000000000000000eed56b91e4b79fb9ead2d9747ce54cb7bfae13c1",
        "nonce": "0x199",
        "chainId": "0xaa36a7"
      },
      "additionalContracts": [],
      "isFixedGasLimit": false
    },
    {
      "hash": "0x61f2e4b50e8d11f689e16280e3df49a756b01fd3678d49078ac06702db696a65",
      "transactionType": "CALL",
      "contractName": "DummyStaker",
      "contractAddress": "0xcff1972fc170e9e84247b589316132e07e653224",
      "function": "stakeETH()",
      "arguments": [],
      "transaction": {
        "from": "0x965b0e63e00e7805569ee3b428cf96330dfc57ef",
        "to": "0xcff1972fc170e9e84247b589316132e07e653224",
        "gas": "0x239c0",
        "value": "0x38d7ea4c68002",
        "input": "0xdceb986d",
        "nonce": "0x19a",
        "chainId": "0xaa36a7"
      },
      "additionalContracts": [],
      "isFixedGasLimit": false
    },
    {
      "hash": "0x6cc2a2b48256578fe1b08d3d25eac671fcc1f504f5d421bf673f313944ea9a04",
      "transactionType": "CALL",
      "contractName": null,
      "contractAddress": "0xeed56b91e4b79fb9ead2d9747ce54cb7bfae13c1",
      "function": "StakeETH()",
      "arguments": [],
      "transaction": {
        "from": "0x965b0e63e00e7805569ee3b428cf96330dfc57ef",
        "to": "0xeed56b91e4b79fb9ead2d9747ce54cb7bfae13c1",
        "gas": "0x19464",
        "value": "0x38d7ea4c68001",
        "input": "0x78e7ed2f",
        "nonce": "0x19b",
        "chainId": "0xaa36a7"
      },
      "additionalContracts": [],
      "isFixedGasLimit": false
    },
    {
      "hash": "0x942a16adb4419e76859cfca42e581aeca954d808d2e0a1472fd97c35e9511625",
      "transactionType": "CALL",
      "contractName": null,
      "contractAddress": "0xcd8af4a0f29cf7966c051542905f66f5dca9052f",
      "function": "approve(address,uint256)",
      "arguments": [
        "0xeeD56B91E4b79fB9ead2d9747CE54cB7BFaE13C1",
        "115792089237316195423570985008687907853269984665640564039457584007913129639935"
      ],
      "transaction": {
        "from": "0x965b0e63e00e7805569ee3b428cf96330dfc57ef",
        "to": "0xcd8af4a0f29cf7966c051542905f66f5dca9052f",
        "gas": "0xfb60",
        "value": "0x0",
        "input": "0x095ea7b3000000000000000000000000eed56b91e4b79fb9ead2d9747ce54cb7bfae13c1ffffffffffffffffffffffffffffffffffffffffffffffffffffffffffffffff",
        "nonce": "0x19c",
        "chainId": "0xaa36a7"
      },
      "additionalContracts": [],
      "isFixedGasLimit": false
    },
    {
      "hash": "0x6e1590ec27973706420914cdeec250d277468bb4abfa3dfee7afa7e08cd4037d",
      "transactionType": "CALL",
      "contractName": null,
      "contractAddress": "0xeed56b91e4b79fb9ead2d9747ce54cb7bfae13c1",
      "function": "StakeWETH(uint256)",
      "arguments": [
        "1000000000000001"
      ],
      "transaction": {
        "from": "0x965b0e63e00e7805569ee3b428cf96330dfc57ef",
        "to": "0xeed56b91e4b79fb9ead2d9747ce54cb7bfae13c1",
        "gas": "0xfb33",
        "value": "0x0",
        "input": "0x6e35c74000000000000000000000000000000000000000000000000000038d7ea4c68001",
        "nonce": "0x19d",
        "chainId": "0xaa36a7"
      },
      "additionalContracts": [],
      "isFixedGasLimit": false
    },
    {
      "hash": "0x20125b99c4ce8a78196f6ebdda6a8e2b457c59c23c2542e035fc1422e6bd14e1",
      "transactionType": "CALL",
      "contractName": null,
      "contractAddress": "0xeed56b91e4b79fb9ead2d9747ce54cb7bfae13c1",
      "function": "Unstake(uint256)",
      "arguments": [
        "2000000000000002"
      ],
      "transaction": {
        "from": "0x965b0e63e00e7805569ee3b428cf96330dfc57ef",
        "to": "0xeed56b91e4b79fb9ead2d9747ce54cb7bfae13c1",
        "gas": "0xb861",
        "value": "0x0",
        "input": "0xf1f1db1e00000000000000000000000000000000000000000000000000071afd498d0002",
        "nonce": "0x19e",
        "chainId": "0xaa36a7"
      },
      "additionalContracts": [],
      "isFixedGasLimit": false
    }
  ],
  "receipts": [
    {
      "status": "0x1",
      "cumulativeGasUsed": "0x654d22",
      "logs": [],
      "logsBloom": "0x00000000000000000000000000000000000000000000000000000000000000000000000000000000000000000000000000000000000000000000000000000000000000000000000000000000000000000000000000000000000000000000000000000000000000000000000000000000000000000000000000000000000000000000000000000000000000000000000000000000000000000000000000000000000000000000000000000000000000000000000000000000000000000000000000000000000000000000000000000000000000000000000000000000000000000000000000000000000000000000000000000000000000000000000000000000",
      "type": "0x2",
      "transactionHash": "0x5bbcbd1e68cc1ca2e63a5b84c169e0bc1df07ff89a4442927ab608fffd708988",
      "transactionIndex": "0x31",
      "blockHash": "0x20b95ddb234b0f46efb1ba87680576c2db7104e921a680c6ceca571b4b6a0a72",
      "blockNumber": "0x5bebd5",
      "gasUsed": "0x21962",
      "effectiveGasPrice": "0x1a6510816",
      "from": "0x965b0e63e00e7805569ee3b428cf96330dfc57ef",
      "to": null,
      "contractAddress": "0xcff1972fc170e9e84247b589316132e07e653224"
    },
    {
      "status": "0x1",
      "cumulativeGasUsed": "0x66d2b5",
      "logs": [],
      "logsBloom": "0x00000000000000000000000000000000000000000000000000000000000000000000000000000000000000000000000000000000000000000000000000000000000000000000000000000000000000000000000000000000000000000000000000000000000000000000000000000000000000000000000000000000000000000000000000000000000000000000000000000000000000000000000000000000000000000000000000000000000000000000000000000000000000000000000000000000000000000000000000000000000000000000000000000000000000000000000000000000000000000000000000000000000000000000000000000000",
      "type": "0x2",
      "transactionHash": "0x61f2e4b50e8d11f689e16280e3df49a756b01fd3678d49078ac06702db696a65",
      "transactionIndex": "0x32",
      "blockHash": "0x20b95ddb234b0f46efb1ba87680576c2db7104e921a680c6ceca571b4b6a0a72",
      "blockNumber": "0x5bebd5",
      "gasUsed": "0x18593",
      "effectiveGasPrice": "0x1a6510816",
      "from": "0x965b0e63e00e7805569ee3b428cf96330dfc57ef",
      "to": "0xcff1972fc170e9e84247b589316132e07e653224",
      "contractAddress": null
    },
    {
      "status": "0x1",
      "cumulativeGasUsed": "0x67e737",
      "logs": [],
      "logsBloom": "0x00000000000000000000000000000000000000000000000000000000000000000000000000000000000000000000000000000000000000000000000000000000000000000000000000000000000000000000000000000000000000000000000000000000000000000000000000000000000000000000000000000000000000000000000000000000000000000000000000000000000000000000000000000000000000000000000000000000000000000000000000000000000000000000000000000000000000000000000000000000000000000000000000000000000000000000000000000000000000000000000000000000000000000000000000000000",
      "type": "0x2",
      "transactionHash": "0x6cc2a2b48256578fe1b08d3d25eac671fcc1f504f5d421bf673f313944ea9a04",
      "transactionIndex": "0x33",
      "blockHash": "0x20b95ddb234b0f46efb1ba87680576c2db7104e921a680c6ceca571b4b6a0a72",
      "blockNumber": "0x5bebd5",
      "gasUsed": "0x11482",
      "effectiveGasPrice": "0x1a6510816",
      "from": "0x965b0e63e00e7805569ee3b428cf96330dfc57ef",
      "to": "0xeed56b91e4b79fb9ead2d9747ce54cb7bfae13c1",
      "contractAddress": null
    },
    {
      "status": "0x1",
      "cumulativeGasUsed": "0x689d36",
      "logs": [
        {
          "address": "0xcd8af4a0f29cf7966c051542905f66f5dca9052f",
          "topics": [
            "0x8c5be1e5ebec7d5bd14f71427d1e84f3dd0314c0f7b2291e5b200ac8c7c3b925",
            "0x000000000000000000000000965b0e63e00e7805569ee3b428cf96330dfc57ef",
            "0x000000000000000000000000eed56b91e4b79fb9ead2d9747ce54cb7bfae13c1"
          ],
          "data": "0xffffffffffffffffffffffffffffffffffffffffffffffffffffffffffffffff",
          "blockHash": "0x20b95ddb234b0f46efb1ba87680576c2db7104e921a680c6ceca571b4b6a0a72",
          "blockNumber": "0x5bebd5",
          "transactionHash": "0x942a16adb4419e76859cfca42e581aeca954d808d2e0a1472fd97c35e9511625",
          "transactionIndex": "0x34",
          "logIndex": "0x7b",
          "removed": false
        }
      ],
      "logsBloom": "0x00000000000000000000000000000000000000000000000000000200000000000000002000000000000000000000000000000000000000000000000000200000000000000002000000000000000004100000000000000000000000000000000000000000000002000000000000000000000000000000000000000000000000000000000000000000000000000000000000000000000000000000000020000000020000000000000000000000000000000000000000000000000000000000000000000000000040000000000000000000000000000000000000000000000000000010000000000000000004000000000000000000000000000000000000000000",
      "type": "0x2",
      "transactionHash": "0x942a16adb4419e76859cfca42e581aeca954d808d2e0a1472fd97c35e9511625",
      "transactionIndex": "0x34",
      "blockHash": "0x20b95ddb234b0f46efb1ba87680576c2db7104e921a680c6ceca571b4b6a0a72",
      "blockNumber": "0x5bebd5",
      "gasUsed": "0xb5ff",
      "effectiveGasPrice": "0x1a6510816",
      "from": "0x965b0e63e00e7805569ee3b428cf96330dfc57ef",
      "to": "0xcd8af4a0f29cf7966c051542905f66f5dca9052f",
      "contractAddress": null
    },
    {
      "status": "0x1",
      "cumulativeGasUsed": "0x695314",
      "logs": [],
      "logsBloom": "0x00000000000000000000000000000000000000000000000000000000000000000000000000000000000000000000000000000000000000000000000000000000000000000000000000000000000000000000000000000000000000000000000000000000000000000000000000000000000000000000000000000000000000000000000000000000000000000000000000000000000000000000000000000000000000000000000000000000000000000000000000000000000000000000000000000000000000000000000000000000000000000000000000000000000000000000000000000000000000000000000000000000000000000000000000000000",
      "type": "0x2",
      "transactionHash": "0x6e1590ec27973706420914cdeec250d277468bb4abfa3dfee7afa7e08cd4037d",
      "transactionIndex": "0x35",
      "blockHash": "0x20b95ddb234b0f46efb1ba87680576c2db7104e921a680c6ceca571b4b6a0a72",
      "blockNumber": "0x5bebd5",
      "gasUsed": "0xb5de",
      "effectiveGasPrice": "0x1a6510816",
      "from": "0x965b0e63e00e7805569ee3b428cf96330dfc57ef",
      "to": "0xeed56b91e4b79fb9ead2d9747ce54cb7bfae13c1",
      "contractAddress": null
    },
    {
      "status": "0x1",
      "cumulativeGasUsed": "0x69d892",
      "logs": [],
      "logsBloom": "0x00000000000000000000000000000000000000000000000000000000000000000000000000000000000000000000000000000000000000000000000000000000000000000000000000000000000000000000000000000000000000000000000000000000000000000000000000000000000000000000000000000000000000000000000000000000000000000000000000000000000000000000000000000000000000000000000000000000000000000000000000000000000000000000000000000000000000000000000000000000000000000000000000000000000000000000000000000000000000000000000000000000000000000000000000000000",
      "type": "0x2",
      "transactionHash": "0x20125b99c4ce8a78196f6ebdda6a8e2b457c59c23c2542e035fc1422e6bd14e1",
      "transactionIndex": "0x36",
      "blockHash": "0x20b95ddb234b0f46efb1ba87680576c2db7104e921a680c6ceca571b4b6a0a72",
      "blockNumber": "0x5bebd5",
      "gasUsed": "0x857e",
      "effectiveGasPrice": "0x1a6510816",
      "from": "0x965b0e63e00e7805569ee3b428cf96330dfc57ef",
      "to": "0xeed56b91e4b79fb9ead2d9747ce54cb7bfae13c1",
      "contractAddress": null
    }
  ],
  "libraries": [],
  "pending": [],
  "returns": {},
  "timestamp": 1717319730,
  "chain": 11155111,
  "commit": "e71d79f"
}