{
  "transactions": [
    {
      "hash": "0xaa44911aeff73fb81cd9634b06b4903707478b8f83cb88980f84b2c034c77a9c",
      "transactionType": "CREATE",
      "contractName": "DummyStaker",
      "contractAddress": "0xbe7f4ac08b6b58fd4d7085a9ae1811ef1eae1eb4",
      "function": null,
      "arguments": [
        "0xf246A3869d3fa54A70bb8868F8d1144A08785FBB"
      ],
      "transaction": {
        "from": "0x965b0e63e00e7805569ee3b428cf96330dfc57ef",
        "gas": "0x2ba99",
        "value": "0x0",
        "input": "0x608060405234801561000f575f80fd5b506040516101a03803806101a083398101604081905261002e91610052565b5f80546001600160a01b0319166001600160a01b039290921691909117905561007f565b5f60208284031215610062575f80fd5b81516001600160a01b0381168114610078575f80fd5b9392505050565b6101148061008c5f395ff3fe6080604052600436106025575f3560e01c80631a186227146029578063dceb986d146061575b5f80fd5b3480156033575f80fd5b505f546045906001600160a01b031681565b6040516001600160a01b03909116815260200160405180910390f35b60676069565b005b66038d7ea4c68002348114607b575f80fd5b5f8054906101000a90046001600160a01b03166001600160a01b03166378e7ed2f826040518263ffffffff1660e01b81526004015f604051808303818588803b15801560c5575f80fd5b505af115801560d6573d5f803e3d5ffd5b50505050505056fea2646970667358221220b38c7de09e31c890035a4ed47c26c327912ed8c38bfa23f458e1501405087e0364736f6c63430008180033000000000000000000000000f246a3869d3fa54a70bb8868f8d1144a08785fbb",
        "nonce": "0x1ab",
        "chainId": "0xaa36a7"
      },
      "additionalContracts": [],
      "isFixedGasLimit": false
    },
    {
      "hash": "0xc2cd7e17ea7df6b1d63b93755e07dfdff3fef4c4818de5bf6e7df5fdd4ffda76",
      "transactionType": "CALL",
      "contractName": "DummyStaker",
      "contractAddress": "0xbe7f4ac08b6b58fd4d7085a9ae1811ef1eae1eb4",
      "function": "stakeETH()",
      "arguments": [],
      "transaction": {
        "from": "0x965b0e63e00e7805569ee3b428cf96330dfc57ef",
        "to": "0xbe7f4ac08b6b58fd4d7085a9ae1811ef1eae1eb4",
        "gas": "0x239c0",
        "value": "0x38d7ea4c68002",
        "input": "0xdceb986d",
        "nonce": "0x1ac",
        "chainId": "0xaa36a7"
      },
      "additionalContracts": [],
      "isFixedGasLimit": false
    },
    {
      "hash": "0x9920e69311ef34f40b0c1b14767bcea7373bbaa737484515f811b3e4a1eb9d89",
      "transactionType": "CALL",
      "contractName": null,
      "contractAddress": "0xcd8af4a0f29cf7966c051542905f66f5dca9052f",
      "function": "approve(address,uint256)",
      "arguments": [
        "0xf246A3869d3fa54A70bb8868F8d1144A08785FBB",
        "115792089237316195423570985008687907853269984665640564039457584007913129639935"
      ],
      "transaction": {
        "from": "0x965b0e63e00e7805569ee3b428cf96330dfc57ef",
        "to": "0xcd8af4a0f29cf7966c051542905f66f5dca9052f",
        "gas": "0xfb60",
        "value": "0x0",
        "input": "0x095ea7b3000000000000000000000000f246a3869d3fa54a70bb8868f8d1144a08785fbbffffffffffffffffffffffffffffffffffffffffffffffffffffffffffffffff",
        "nonce": "0x1ad",
        "chainId": "0xaa36a7"
      },
      "additionalContracts": [],
      "isFixedGasLimit": false
    },
    {
      "hash": "0x73ce993fcdb409b7a11ee66bf5799a1b3f7f10b2c98cfe3d7527475e227dcb13",
      "transactionType": "CALL",
      "contractName": null,
      "contractAddress": "0xf246a3869d3fa54a70bb8868f8d1144a08785fbb",
      "function": "StakeWETH(uint256)",
      "arguments": [
        "1000000000000001"
      ],
      "transaction": {
        "from": "0x965b0e63e00e7805569ee3b428cf96330dfc57ef",
        "to": "0xf246a3869d3fa54a70bb8868f8d1144a08785fbb",
        "gas": "0x1c2d6",
        "value": "0x0",
        "input": "0x6e35c74000000000000000000000000000000000000000000000000000038d7ea4c68001",
        "nonce": "0x1ae",
        "chainId": "0xaa36a7"
      },
      "additionalContracts": [],
      "isFixedGasLimit": false
    },
    {
      "hash": "0x7fba251cadb70bb44e7883cee1fc4feb39da06d28bba6a6f29362a3134ce3b4b",
      "transactionType": "CALL",
      "contractName": null,
      "contractAddress": "0xf246a3869d3fa54a70bb8868f8d1144a08785fbb",
      "function": "Unstake(uint256)",
      "arguments": [
        "1000000000000001"
      ],
      "transaction": {
        "from": "0x965b0e63e00e7805569ee3b428cf96330dfc57ef",
        "to": "0xf246a3869d3fa54a70bb8868f8d1144a08785fbb",
        "gas": "0xc34c",
        "value": "0x0",
        "input": "0xf1f1db1e00000000000000000000000000000000000000000000000000038d7ea4c68001",
        "nonce": "0x1af",
        "chainId": "0xaa36a7"
      },
      "additionalContracts": [],
      "isFixedGasLimit": false
    }
  ],
  "receipts": [
    {
      "status": "0x1",
      "cumulativeGasUsed": "0x474d6d",
      "logs": [],
      "logsBloom": "0x00000000000000000000000000000000000000000000000000000000000000000000000000000000000000000000000000000000000000000000000000000000000000000000000000000000000000000000000000000000000000000000000000000000000000000000000000000000000000000000000000000000000000000000000000000000000000000000000000000000000000000000000000000000000000000000000000000000000000000000000000000000000000000000000000000000000000000000000000000000000000000000000000000000000000000000000000000000000000000000000000000000000000000000000000000000",
      "type": "0x2",
      "transactionHash": "0xaa44911aeff73fb81cd9634b06b4903707478b8f83cb88980f84b2c034c77a9c",
      "transactionIndex": "0x29",
      "blockHash": "0x29b5172f7b8887a4774077e641831252c505a62511f9adb45540f37ee7a7875b",
      "blockNumber": "0x5c3726",
      "gasUsed": "0x21962",
      "effectiveGasPrice": "0xedd494fe1",
      "from": "0x965b0e63e00e7805569ee3b428cf96330dfc57ef",
      "to": null,
      "contractAddress": "0xbe7f4ac08b6b58fd4d7085a9ae1811ef1eae1eb4"
    },
    {
      "status": "0x1",
      "cumulativeGasUsed": "0x48d300",
      "logs": [],
      "logsBloom": "0x00000000000000000000000000000000000000000000000000000000000000000000000000000000000000000000000000000000000000000000000000000000000000000000000000000000000000000000000000000000000000000000000000000000000000000000000000000000000000000000000000000000000000000000000000000000000000000000000000000000000000000000000000000000000000000000000000000000000000000000000000000000000000000000000000000000000000000000000000000000000000000000000000000000000000000000000000000000000000000000000000000000000000000000000000000000",
      "type": "0x2",
      "transactionHash": "0xc2cd7e17ea7df6b1d63b93755e07dfdff3fef4c4818de5bf6e7df5fdd4ffda76",
      "transactionIndex": "0x2a",
      "blockHash": "0x29b5172f7b8887a4774077e641831252c505a62511f9adb45540f37ee7a7875b",
      "blockNumber": "0x5c3726",
      "gasUsed": "0x18593",
      "effectiveGasPrice": "0xedd494fe1",
      "from": "0x965b0e63e00e7805569ee3b428cf96330dfc57ef",
      "to": "0xbe7f4ac08b6b58fd4d7085a9ae1811ef1eae1eb4",
      "contractAddress": null
    },
    {
      "status": "0x1",
      "cumulativeGasUsed": "0x4988ff",
      "logs": [
        {
          "address": "0xcd8af4a0f29cf7966c051542905f66f5dca9052f",
          "topics": [
            "0x8c5be1e5ebec7d5bd14f71427d1e84f3dd0314c0f7b2291e5b200ac8c7c3b925",
            "0x000000000000000000000000965b0e63e00e7805569ee3b428cf96330dfc57ef",
            "0x000000000000000000000000f246a3869d3fa54a70bb8868f8d1144a08785fbb"
          ],
          "data": "0xffffffffffffffffffffffffffffffffffffffffffffffffffffffffffffffff",
          "blockHash": "0x29b5172f7b8887a4774077e641831252c505a62511f9adb45540f37ee7a7875b",
          "blockNumber": "0x5c3726",
          "transactionHash": "0x9920e69311ef34f40b0c1b14767bcea7373bbaa737484515f811b3e4a1eb9d89",
          "transactionIndex": "0x2b",
          "logIndex": "0x6a",
          "removed": false
        }
      ],
      "logsBloom": "0x00000000000000000000000000000000000000000000000000000200000000000000000000000000000000000000000000000000000000000000000000200000000000000002000000000040000004100000000000000000000000000000000000000000000002000000010000000000000000000000000000000000000000000000000000000000000000000000000000000000000000000000000000000000020000000000000000000000000000000000000000000000000000000000000000000000000000000000000000040000000000000000000000000000000000000010000000000000000004000000000000000000000000000000000000000000",
      "type": "0x2",
      "transactionHash": "0x9920e69311ef34f40b0c1b14767bcea7373bbaa737484515f811b3e4a1eb9d89",
      "transactionIndex": "0x2b",
      "blockHash": "0x29b5172f7b8887a4774077e641831252c505a62511f9adb45540f37ee7a7875b",
      "blockNumber": "0x5c3726",
      "gasUsed": "0xb5ff",
      "effectiveGasPrice": "0xedd494fe1",
      "from": "0x965b0e63e00e7805569ee3b428cf96330dfc57ef",
      "to": "0xcd8af4a0f29cf7966c051542905f66f5dca9052f",
      "contractAddress": null
    },
    {
      "status": "0x1",
      "cumulativeGasUsed": "0x4acf65",
      "logs": [],
      "logsBloom": "0x00000000000000000000000000000000000000000000000000000000000000000000000000000000000000000000000000000000000000000000000000000000000000000000000000000000000000000000000000000000000000000000000000000000000000000000000000000000000000000000000000000000000000000000000000000000000000000000000000000000000000000000000000000000000000000000000000000000000000000000000000000000000000000000000000000000000000000000000000000000000000000000000000000000000000000000000000000000000000000000000000000000000000000000000000000000",
      "type": "0x2",
      "transactionHash": "0x73ce993fcdb409b7a11ee66bf5799a1b3f7f10b2c98cfe3d7527475e227dcb13",
      "transactionIndex": "0x2c",
      "blockHash": "0x29b5172f7b8887a4774077e641831252c505a62511f9adb45540f37ee7a7875b",
      "blockNumber": "0x5c3726",
      "gasUsed": "0x14666",
      "effectiveGasPrice": "0xedd494fe1",
      "from": "0x965b0e63e00e7805569ee3b428cf96330dfc57ef",
      "to": "0xf246a3869d3fa54a70bb8868f8d1144a08785fbb",
      "contractAddress": null
    },
    {
      "status": "0x1",
      "cumulativeGasUsed": "0x4b54ef",
      "logs": [],
      "logsBloom": "0x00000000000000000000000000000000000000000000000000000000000000000000000000000000000000000000000000000000000000000000000000000000000000000000000000000000000000000000000000000000000000000000000000000000000000000000000000000000000000000000000000000000000000000000000000000000000000000000000000000000000000000000000000000000000000000000000000000000000000000000000000000000000000000000000000000000000000000000000000000000000000000000000000000000000000000000000000000000000000000000000000000000000000000000000000000000",
      "type": "0x2",
      "transactionHash": "0x7fba251cadb70bb44e7883cee1fc4feb39da06d28bba6a6f29362a3134ce3b4b",
      "transactionIndex": "0x2d",
      "blockHash": "0x29b5172f7b8887a4774077e641831252c505a62511f9adb45540f37ee7a7875b",
      "blockNumber": "0x5c3726",
      "gasUsed": "0x858a",
      "effectiveGasPrice": "0xedd494fe1",
      "from": "0x965b0e63e00e7805569ee3b428cf96330dfc57ef",
      "to": "0xf246a3869d3fa54a70bb8868f8d1144a08785fbb",
      "contractAddress": null
    }
  ],
  "libraries": [],
  "pending": [],
  "returns": {},
  "timestamp": 1717579061,
  "chain": 11155111,
  "commit": "0b47239"
}