{
  "transactions": [
    {
      "hash": "0xe3a2a93a6d6db203f258d61d331c9525e94904d854fc16f35eed8ea8f6071bf0",
      "transactionType": "CREATE",
      "contractName": "DummyStaker",
      "contractAddress": "0x74c4677de0009f698143b0d5fcf9b78fb1b83789",
      "function": null,
      "arguments": [
        "0xd74ba99C671b0676d3D58d2F130b2a62e97E064b"
      ],
      "transaction": {
        "from": "0x965b0e63e00e7805569ee3b428cf96330dfc57ef",
        "gas": "0x2ba99",
        "value": "0x0",
        "input": "0x608060405234801561000f575f80fd5b506040516101a03803806101a083398101604081905261002e91610052565b5f80546001600160a01b0319166001600160a01b039290921691909117905561007f565b5f60208284031215610062575f80fd5b81516001600160a01b0381168114610078575f80fd5b9392505050565b6101148061008c5f395ff3fe6080604052600436106025575f3560e01c80631a186227146029578063dceb986d146061575b5f80fd5b3480156033575f80fd5b505f546045906001600160a01b031681565b6040516001600160a01b03909116815260200160405180910390f35b60676069565b005b66038d7ea4c68002348114607b575f80fd5b5f8054906101000a90046001600160a01b03166001600160a01b03166378e7ed2f826040518263ffffffff1660e01b81526004015f604051808303818588803b15801560c5575f80fd5b505af115801560d6573d5f803e3d5ffd5b50505050505056fea2646970667358221220b38c7de09e31c890035a4ed47c26c327912ed8c38bfa23f458e1501405087e0364736f6c63430008180033000000000000000000000000d74ba99c671b0676d3d58d2f130b2a62e97e064b",
        "nonce": "0x1a4",
        "chainId": "0xaa36a7"
      },
      "additionalContracts": [],
      "isFixedGasLimit": false
    },
    {
      "hash": "0xa86277beb427abaae99484f0f74a79bcbc1f9414c279e835cf6d74a0ac630f91",
      "transactionType": "CALL",
      "contractName": "DummyStaker",
      "contractAddress": "0x74c4677de0009f698143b0d5fcf9b78fb1b83789",
      "function": "stakeETH()",
      "arguments": [],
      "transaction": {
        "from": "0x965b0e63e00e7805569ee3b428cf96330dfc57ef",
        "to": "0x74c4677de0009f698143b0d5fcf9b78fb1b83789",
        "gas": "0x239c0",
        "value": "0x38d7ea4c68002",
        "input": "0xdceb986d",
        "nonce": "0x1a5",
        "chainId": "0xaa36a7"
      },
      "additionalContracts": [],
      "isFixedGasLimit": false
    },
    {
      "hash": "0xe09032a9adc93ca62c0227fbbaf9d3f617d1af0329fdc30ff50f963c26a49c9b",
      "transactionType": "CALL",
      "contractName": null,
      "contractAddress": "0xd74ba99c671b0676d3d58d2f130b2a62e97e064b",
      "function": "StakeETH()",
      "arguments": [],
      "transaction": {
        "from": "0x965b0e63e00e7805569ee3b428cf96330dfc57ef",
        "to": "0xd74ba99c671b0676d3d58d2f130b2a62e97e064b",
        "gas": "0x19464",
        "value": "0x38d7ea4c68001",
        "input": "0x78e7ed2f",
        "nonce": "0x1a6",
        "chainId": "0xaa36a7"
      },
      "additionalContracts": [],
      "isFixedGasLimit": false
    },
    {
      "hash": "0x3dac83e605a473ce55f840869d9811358781facd6f11a720bad0f37d7196c2a5",
      "transactionType": "CALL",
      "contractName": null,
      "contractAddress": "0xcd8af4a0f29cf7966c051542905f66f5dca9052f",
      "function": "approve(address,uint256)",
      "arguments": [
        "0xd74ba99C671b0676d3D58d2F130b2a62e97E064b",
        "115792089237316195423570985008687907853269984665640564039457584007913129639935"
      ],
      "transaction": {
        "from": "0x965b0e63e00e7805569ee3b428cf96330dfc57ef",
        "to": "0xcd8af4a0f29cf7966c051542905f66f5dca9052f",
        "gas": "0xfb60",
        "value": "0x0",
        "input": "0x095ea7b3000000000000000000000000d74ba99c671b0676d3d58d2f130b2a62e97e064bffffffffffffffffffffffffffffffffffffffffffffffffffffffffffffffff",
        "nonce": "0x1a7",
        "chainId": "0xaa36a7"
      },
      "additionalContracts": [],
      "isFixedGasLimit": false
    },
    {
      "hash": "0x551358e477d75ca49c993879210f736ad6c600ffee0b7a675726ed82448cc4bc",
      "transactionType": "CALL",
      "contractName": null,
      "contractAddress": "0xd74ba99c671b0676d3d58d2f130b2a62e97e064b",
      "function": "StakeWETH(uint256)",
      "arguments": [
        "1000000000000001"
      ],
      "transaction": {
        "from": "0x965b0e63e00e7805569ee3b428cf96330dfc57ef",
        "to": "0xd74ba99c671b0676d3d58d2f130b2a62e97e064b",
        "gas": "0xfb33",
        "value": "0x0",
        "input": "0x6e35c74000000000000000000000000000000000000000000000000000038d7ea4c68001",
        "nonce": "0x1a8",
        "chainId": "0xaa36a7"
      },
      "additionalContracts": [],
      "isFixedGasLimit": false
    },
    {
      "hash": "0xa90ee232bca23795cb1d5dba5317d598c9e5f472ba6baf58782fa78440fa9a73",
      "transactionType": "CALL",
      "contractName": null,
      "contractAddress": "0xd74ba99c671b0676d3d58d2f130b2a62e97e064b",
      "function": "Unstake(uint256)",
      "arguments": [
        "2000000000000002"
      ],
      "transaction": {
        "from": "0x965b0e63e00e7805569ee3b428cf96330dfc57ef",
        "to": "0xd74ba99c671b0676d3d58d2f130b2a62e97e064b",
        "gas": "0xb861",
        "value": "0x0",
        "input": "0xf1f1db1e00000000000000000000000000000000000000000000000000071afd498d0002",
        "nonce": "0x1a9",
        "chainId": "0xaa36a7"
      },
      "additionalContracts": [],
      "isFixedGasLimit": false
    }
  ],
  "receipts": [
    {
      "status": "0x1",
      "cumulativeGasUsed": "0x144b725",
      "logs": [],
      "logsBloom": "0x00000000000000000000000000000000000000000000000000000000000000000000000000000000000000000000000000000000000000000000000000000000000000000000000000000000000000000000000000000000000000000000000000000000000000000000000000000000000000000000000000000000000000000000000000000000000000000000000000000000000000000000000000000000000000000000000000000000000000000000000000000000000000000000000000000000000000000000000000000000000000000000000000000000000000000000000000000000000000000000000000000000000000000000000000000000",
      "type": "0x2",
      "transactionHash": "0xe3a2a93a6d6db203f258d61d331c9525e94904d854fc16f35eed8ea8f6071bf0",
      "transactionIndex": "0x62",
      "blockHash": "0x99e8ac427ec467dc0655931c6266e6a11acb2ebb69b3b253f3c5a4547d4ceab3",
      "blockNumber": "0x5c371c",
      "gasUsed": "0x21962",
      "effectiveGasPrice": "0xfce3a3545",
      "from": "0x965b0e63e00e7805569ee3b428cf96330dfc57ef",
      "to": null,
      "contractAddress": "0x74c4677de0009f698143b0d5fcf9b78fb1b83789"
    },
    {
      "status": "0x1",
      "cumulativeGasUsed": "0x1463cb8",
      "logs": [],
      "logsBloom": "0x00000000000000000000000000000000000000000000000000000000000000000000000000000000000000000000000000000000000000000000000000000000000000000000000000000000000000000000000000000000000000000000000000000000000000000000000000000000000000000000000000000000000000000000000000000000000000000000000000000000000000000000000000000000000000000000000000000000000000000000000000000000000000000000000000000000000000000000000000000000000000000000000000000000000000000000000000000000000000000000000000000000000000000000000000000000",
      "type": "0x2",
      "transactionHash": "0xa86277beb427abaae99484f0f74a79bcbc1f9414c279e835cf6d74a0ac630f91",
      "transactionIndex": "0x63",
      "blockHash": "0x99e8ac427ec467dc0655931c6266e6a11acb2ebb69b3b253f3c5a4547d4ceab3",
      "blockNumber": "0x5c371c",
      "gasUsed": "0x18593",
      "effectiveGasPrice": "0xfce3a3545",
      "from": "0x965b0e63e00e7805569ee3b428cf96330dfc57ef",
      "to": "0x74c4677de0009f698143b0d5fcf9b78fb1b83789",
      "contractAddress": null
    },
    {
      "status": "0x1",
      "cumulativeGasUsed": "0x147513a",
      "logs": [],
      "logsBloom": "0x00000000000000000000000000000000000000000000000000000000000000000000000000000000000000000000000000000000000000000000000000000000000000000000000000000000000000000000000000000000000000000000000000000000000000000000000000000000000000000000000000000000000000000000000000000000000000000000000000000000000000000000000000000000000000000000000000000000000000000000000000000000000000000000000000000000000000000000000000000000000000000000000000000000000000000000000000000000000000000000000000000000000000000000000000000000",
      "type": "0x2",
      "transactionHash": "0xe09032a9adc93ca62c0227fbbaf9d3f617d1af0329fdc30ff50f963c26a49c9b",
      "transactionIndex": "0x64",
      "blockHash": "0x99e8ac427ec467dc0655931c6266e6a11acb2ebb69b3b253f3c5a4547d4ceab3",
      "blockNumber": "0x5c371c",
      "gasUsed": "0x11482",
      "effectiveGasPrice": "0xfce3a3545",
      "from": "0x965b0e63e00e7805569ee3b428cf96330dfc57ef",
      "to": "0xd74ba99c671b0676d3d58d2f130b2a62e97e064b",
      "contractAddress": null
    },
    {
      "status": "0x1",
      "cumulativeGasUsed": "0x1480739",
      "logs": [
        {
          "address": "0xcd8af4a0f29cf7966c051542905f66f5dca9052f",
          "topics": [
            "0x8c5be1e5ebec7d5bd14f71427d1e84f3dd0314c0f7b2291e5b200ac8c7c3b925",
            "0x000000000000000000000000965b0e63e00e7805569ee3b428cf96330dfc57ef",
            "0x000000000000000000000000d74ba99c671b0676d3d58d2f130b2a62e97e064b"
          ],
          "data": "0xffffffffffffffffffffffffffffffffffffffffffffffffffffffffffffffff",
          "blockHash": "0x99e8ac427ec467dc0655931c6266e6a11acb2ebb69b3b253f3c5a4547d4ceab3",
          "blockNumber": "0x5c371c",
          "transactionHash": "0x3dac83e605a473ce55f840869d9811358781facd6f11a720bad0f37d7196c2a5",
          "transactionIndex": "0x65",
          "logIndex": "0xe6",
          "removed": false
        }
      ],
      "logsBloom": "0x00000000000000000000000000000000000000000000000000000200000000000080000000000000000000000000000000000000000000000000000000200000000000000002000000000000000004100000000000000000000000000000000000000000000002000000000000000000000000000000000000000000000000100000000000000000000000000000000000000000000000000000000000000000020000000000000000000000000000000000000000000000000000000000000000000000000000000000000000000000000000000000000000000000000000000010000000000000000004000200000000000000000000000000000000000000",
      "type": "0x2",
      "transactionHash": "0x3dac83e605a473ce55f840869d9811358781facd6f11a720bad0f37d7196c2a5",
      "transactionIndex": "0x65",
      "blockHash": "0x99e8ac427ec467dc0655931c6266e6a11acb2ebb69b3b253f3c5a4547d4ceab3",
      "blockNumber": "0x5c371c",
      "gasUsed": "0xb5ff",
      "effectiveGasPrice": "0xfce3a3545",
      "from": "0x965b0e63e00e7805569ee3b428cf96330dfc57ef",
      "to": "0xcd8af4a0f29cf7966c051542905f66f5dca9052f",
      "contractAddress": null
    },
    {
      "status": "0x1",
      "cumulativeGasUsed": "0x719c50",
      "logs": [],
      "logsBloom": "0x00000000000000000000000000000000000000000000000000000000000000000000000000000000000000000000000000000000000000000000000000000000000000000000000000000000000000000000000000000000000000000000000000000000000000000000000000000000000000000000000000000000000000000000000000000000000000000000000000000000000000000000000000000000000000000000000000000000000000000000000000000000000000000000000000000000000000000000000000000000000000000000000000000000000000000000000000000000000000000000000000000000000000000000000000000000",
      "type": "0x2",
      "transactionHash": "0x551358e477d75ca49c993879210f736ad6c600ffee0b7a675726ed82448cc4bc",
      "transactionIndex": "0x45",
      "blockHash": "0x6be7dee19b6cc19109d8f9f9885745fcd9511ab352c3c2b63747e6f1345f0e3a",
      "blockNumber": "0x5c371d",
      "gasUsed": "0xb5de",
      "effectiveGasPrice": "0x10c70c7213",
      "from": "0x965b0e63e00e7805569ee3b428cf96330dfc57ef",
      "to": "0xd74ba99c671b0676d3d58d2f130b2a62e97e064b",
      "contractAddress": null
    },
    {
      "status": "0x1",
      "cumulativeGasUsed": "0x7221ce",
      "logs": [],
      "logsBloom": "0x00000000000000000000000000000000000000000000000000000000000000000000000000000000000000000000000000000000000000000000000000000000000000000000000000000000000000000000000000000000000000000000000000000000000000000000000000000000000000000000000000000000000000000000000000000000000000000000000000000000000000000000000000000000000000000000000000000000000000000000000000000000000000000000000000000000000000000000000000000000000000000000000000000000000000000000000000000000000000000000000000000000000000000000000000000000",
      "type": "0x2",
      "transactionHash": "0xa90ee232bca23795cb1d5dba5317d598c9e5f472ba6baf58782fa78440fa9a73",
      "transactionIndex": "0x46",
      "blockHash": "0x6be7dee19b6cc19109d8f9f9885745fcd9511ab352c3c2b63747e6f1345f0e3a",
      "blockNumber": "0x5c371d",
      "gasUsed": "0x857e",
      "effectiveGasPrice": "0x10c70c7213",
      "from": "0x965b0e63e00e7805569ee3b428cf96330dfc57ef",
      "to": "0xd74ba99c671b0676d3d58d2f130b2a62e97e064b",
      "contractAddress": null
    }
  ],
  "libraries": [],
  "pending": [],
  "returns": {},
  "timestamp": 1717578955,
  "chain": 11155111,
  "commit": "0b47239"
}