{
  "transactions": [
    {
      "hash": "0xbea014b72ff660d5684d3dc0cb0370d9b24395e0d2ca1915253672c49fb374bf",
      "transactionType": "CREATE",
      "contractName": "MyPlusCalculator",
      "contractAddress": "0xbDE95fFC00E6755b2c2fDC16e07ce0fb027fa7a8",
      "function": null,
      "arguments": null,
      "transaction": {
        "type": "0x02",
        "from": "0x965b0e63e00e7805569ee3b428cf96330dfc57ef",
        "gas": "0x1fc24",
        "value": "0x0",
        "data": "0x608060405234801561001057600080fd5b5060d88061001f6000396000f3fe6080604052348015600f57600080fd5b506004361060285760003560e01c806366098d4f14602d575b600080fd5b603c60383660046061565b604e565b60405190815260200160405180910390f35b6000605882846082565b90505b92915050565b60008060408385031215607357600080fd5b50508035926020909101359150565b80820180821115605b57634e487b7160e01b600052601160045260246000fdfea26469706673582212204c83ada5442d2772f37a0d84610a64c74177cd4240b9fa6097128eda960f3feb64736f6c63430008180033",
        "nonce": "0x2cc",
        "accessList": []
      },
      "additionalContracts": [],
      "isFixedGasLimit": false
    },
    {
      "hash": "0xd0a5a660d8382c213fc5b3662c368df269a71c8d4defd0b6bf44d2129899fce5",
      "transactionType": "CALL",
      "contractName": null,
      "contractAddress": "0x8510098acE753982802e2dF9062879794d186A96",
      "function": "setPlusCalculator(address)",
      "arguments": [
        "0xbDE95fFC00E6755b2c2fDC16e07ce0fb027fa7a8"
      ],
      "transaction": {
        "type": "0x02",
        "from": "0x965b0e63e00e7805569ee3b428cf96330dfc57ef",
        "to": "0x8510098ace753982802e2df9062879794d186a96",
        "gas": "0x100b8",
        "value": "0x0",
        "data": "0xcbc3c207000000000000000000000000bde95ffc00e6755b2c2fdc16e07ce0fb027fa7a8",
        "nonce": "0x2cd",
        "accessList": []
      },
      "additionalContracts": [],
      "isFixedGasLimit": false
    }
  ],
  "receipts": [],
  "libraries": [],
  "pending": [
    "0xbea014b72ff660d5684d3dc0cb0370d9b24395e0d2ca1915253672c49fb374bf",
    "0xd0a5a660d8382c213fc5b3662c368df269a71c8d4defd0b6bf44d2129899fce5"
  ],
  "returns": {},
  "timestamp": 1707793965,
  "chain": 80001,
  "multi": false,
  "commit": "050f9e8"
}