{
  "transactions": [
    {
      "hash": "0xbea014b72ff660d5684d3dc0cb0370d9b24395e0d2ca1915253672c49fb374bf",
      "transactionType": "CREATE",
      "contractName": "MyPlusCalculator",
      "contractAddress": "0xbDE95fFC00E6755b2c2fDC16e07ce0fb027fa7a8",
      "function": null,
      "arguments": null,
      "transaction": {
        "type": "0x02",
        "from": "0x965b0e63e00e7805569ee3b428cf96330dfc57ef",
        "gas": "0x1fc24",
        "value": "0x0",
        "data": "0x608060405234801561001057600080fd5b5060d88061001f6000396000f3fe6080604052348015600f57600080fd5b506004361060285760003560e01c806366098d4f14602d575b600080fd5b603c60383660046061565b604e565b60405190815260200160405180910390f35b6000605882846082565b90505b92915050565b60008060408385031215607357600080fd5b50508035926020909101359150565b80820180821115605b57634e487b7160e01b600052601160045260246000fdfea26469706673582212204c83ada5442d2772f37a0d84610a64c74177cd4240b9fa6097128eda960f3feb64736f6c63430008180033",
        "nonce": "0x2cc",
        "accessList": []
      },
      "additionalContracts": [],
      "isFixedGasLimit": false
    },
    {
      "hash": "0xd0a5a660d8382c213fc5b3662c368df269a71c8d4defd0b6bf44d2129899fce5",
      "transactionType": "CALL",
      "contractName": null,
      "contractAddress": "0x8510098acE753982802e2dF9062879794d186A96",
      "function": "setPlusCalculator(address)",
      "arguments": [
        "0xbDE95fFC00E6755b2c2fDC16e07ce0fb027fa7a8"
      ],
      "transaction": {
        "type": "0x02",
        "from": "0x965b0e63e00e7805569ee3b428cf96330dfc57ef",
        "to": "0x8510098ace753982802e2df9062879794d186a96",
        "gas": "0x100b8",
        "value": "0x0",
        "data": "0xcbc3c207000000000000000000000000bde95ffc00e6755b2c2fdc16e07ce0fb027fa7a8",
        "nonce": "0x2cd",
        "accessList": []
      },
      "additionalContracts": [],
      "isFixedGasLimit": false
    }
  ],
  "receipts": [
    {
      "transactionHash": "0xbea014b72ff660d5684d3dc0cb0370d9b24395e0d2ca1915253672c49fb374bf",
      "transactionIndex": "0x7",
      "blockHash": "0xa73e9d432fab6ff2fc07d193692928b1e87288d275076ca0002ff82dafcec154",
      "blockNumber": "0x2bbb3e1",
      "from": "0x965B0E63e00E7805569ee3B428Cf96330DFc57EF",
      "to": null,
      "cumulativeGasUsed": "0x178a05",
      "gasUsed": "0x186f1",
      "contractAddress": "0xbDE95fFC00E6755b2c2fDC16e07ce0fb027fa7a8",
      "logs": [
        {
          "address": "0x0000000000000000000000000000000000001010",
          "topics": [
            "0x4dfe1bbbcf077ddc3e01291eea2d5c70c2b422b415d95645b9adcfd678cb1d63",
            "0x0000000000000000000000000000000000000000000000000000000000001010",
            "0x000000000000000000000000965b0e63e00e7805569ee3b428cf96330dfc57ef",
            "0x0000000000000000000000005082f249cdb2f2c1ee035e4f423c46ea2dab3ab1"
          ],
          "data": "0x000000000000000000000000000000000000000000000000000aaab1b59cec0000000000000000000000000000000000000000000000000057afcaeb367398e600000000000000000000000000000000000000000000063f6f66eba15878076900000000000000000000000000000000000000000000000057a5203980d6ace600000000000000000000000000000000000000000000063f6f7196530e14f369",
          "blockHash": "0xa73e9d432fab6ff2fc07d193692928b1e87288d275076ca0002ff82dafcec154",
          "blockNumber": "0x2bbb3e1",
          "transactionHash": "0xbea014b72ff660d5684d3dc0cb0370d9b24395e0d2ca1915253672c49fb374bf",
          "transactionIndex": "0x7",
          "logIndex": "0xf",
          "removed": false
        }
      ],
      "status": "0x1",
      "logsBloom": "0x00000000000000000000000000000000000000000000000000000000020000000000000002000000000000000000000000008000000000000000000000000000000000000002000000000000000004900000000000000000000100000000000000000000000000000000000000000000000000000000000080000000000000000000000000000000000000000000000000000000000000000000000000000000200000000000000000000000000000000000000000000000000000000000004000000000000000000001000000000000000000000000000000100000000000000000000000000080000000000000000000000000000000000000000000100000",
      "type": "0x2",
      "effectiveGasPrice": "0x6fc23ac0f"
    },
    {
      "transactionHash": "0xd0a5a660d8382c213fc5b3662c368df269a71c8d4defd0b6bf44d2129899fce5",
      "transactionIndex": "0x1",
      "blockHash": "0x3c1c3f38db26ea95273a4b959220c1d6fb9eb23ffd0dbc454fa817257ff8b25f",
      "blockNumber": "0x2bbb3e2",
      "from": "0x965B0E63e00E7805569ee3B428Cf96330DFc57EF",
      "to": "0x8510098acE753982802e2dF9062879794d186A96",
      "cumulativeGasUsed": "0x1fc83",
      "gasUsed": "0xb9dd",
      "contractAddress": null,
      "logs": [
        {
          "address": "0x0000000000000000000000000000000000001010",
          "topics": [
            "0x4dfe1bbbcf077ddc3e01291eea2d5c70c2b422b415d95645b9adcfd678cb1d63",
            "0x0000000000000000000000000000000000000000000000000000000000001010",
            "0x000000000000000000000000965b0e63e00e7805569ee3b428cf96330dfc57ef",
            "0x0000000000000000000000005082f249cdb2f2c1ee035e4f423c46ea2dab3ab1"
          ],
          "data": "0x0000000000000000000000000000000000000000000000000005123d72177c0000000000000000000000000000000000000000000000000057a5203980bfc4c700000000000000000000000000000000000000000000063f6f9d2dbceed911dd00000000000000000000000000000000000000000000000057a00dfc0ea848c700000000000000000000000000000000000000000000063f6fa23ffa60f08ddd",
          "blockHash": "0x3c1c3f38db26ea95273a4b959220c1d6fb9eb23ffd0dbc454fa817257ff8b25f",
          "blockNumber": "0x2bbb3e2",
          "transactionHash": "0xd0a5a660d8382c213fc5b3662c368df269a71c8d4defd0b6bf44d2129899fce5",
          "transactionIndex": "0x1",
          "logIndex": "0x3",
          "removed": false
        }
      ],
      "status": "0x1",
      "logsBloom": "0x00000000000000000000000000000000000000000000000000000000020000000000000002000000000000000000000000008000000000000000000000000000000000000002000000000000000004900000000000000000000100000000000000000000000000000000000000000000000000000000000080000000000000000000000000000000000000000000000000000000000000000000000000000000200000000000000000000000000000000000000000000000000000000000004000000000000000000001000000000000000000000000000000100000000000000000000000000080000000000000000000000000000000000000000000100000",
      "type": "0x2",
      "effectiveGasPrice": "0x6fc23ac0f"
    }
  ],
  "libraries": [],
  "pending": [],
  "returns": {},
  "timestamp": 1707793972,
  "chain": 80001,
  "multi": false,
  "commit": "050f9e8"
}