{
  "transactions": [
    {
      "hash": "0x2dca07e186cee704b0cced77c06e9c50ee86eac1e20a6b85ec2f85adc14c9653",
      "transactionType": "CALL",
      "contractName": null,
      "contractAddress": "0xae579f16ba16312622cfa8d4eb2d97e5e4cae4a1",
      "function": "setSupportedWarp(uint64,address)",
      "arguments": [
        "14767482510784806043",
        "0xCFdb9e4A105CB0aF8d0F8ab92F56f4D535754AF9"
      ],
      "transaction": {
        "from": "0x965b0e63e00e7805569ee3b428cf96330dfc57ef",
        "to": "0xae579f16ba16312622cfa8d4eb2d97e5e4cae4a1",
        "gas": "0x102b4",
        "value": "0x0",
        "input": "0x382b94f0000000000000000000000000000000000000000000000000ccf0a31a221f3c9b000000000000000000000000cfdb9e4a105cb0af8d0f8ab92f56f4d535754af9",
        "nonce": "0x180",
        "chainId": "0xaa36a7",
        "accessList": null,
        "type": null
      },
      "additionalContracts": [],
      "isFixedGasLimit": false
    }
  ],
  "receipts": [
    {
      "status": "0x1",
      "cumulativeGasUsed": "0xbca622",
      "logs": [
        {
          "address": "0xae579f16ba16312622cfa8d4eb2d97e5e4cae4a1",
          "topics": [
            "0x17cbfa49e21405da04258d0749922ac47aca36501d4acd3e7f1167750dda12d4",
            "0x000000000000000000000000000000000000000000000000ccf0a31a221f3c9b",
            "0x000000000000000000000000cfdb9e4a105cb0af8d0f8ab92f56f4d535754af9"
          ],
          "data": "0x",
          "blockHash": "0xfc92516a71bc8c97769735efaecdc138aeb817767ae938e42ad40714351d788a",
          "blockNumber": "0x5833d5",
          "transactionHash": "0x2dca07e186cee704b0cced77c06e9c50ee86eac1e20a6b85ec2f85adc14c9653",
          "transactionIndex": "0x43",
          "logIndex": "0x39",
          "removed": false
        }
      ],
      "logsBloom": "0x00000000000000000100000000000000000000000000000000000000000000000000000000000000000000000000000000000000000200000000000000000000010000000400000000000000000000000000000008000000000000000000000000000000000000000000000000000000000000000000000000000000000000000000000000002000010000000000000000000000000000000000000000000000000000000000000000000000000000000000000000000000000000000000000000000000000100000000000000000000000000000000000000000800400000000000000000000000001000000000002000000000000000000000000000000000",
      "type": "0x2",
      "transactionHash": "0x2dca07e186cee704b0cced77c06e9c50ee86eac1e20a6b85ec2f85adc14c9653",
      "transactionIndex": "0x43",
      "blockHash": "0xfc92516a71bc8c97769735efaecdc138aeb817767ae938e42ad40714351d788a",
      "blockNumber": "0x5833d5",
      "gasUsed": "0xbb4d",
      "effectiveGasPrice": "0x76ef4184",
      "from": "0x965b0e63e00e7805569ee3b428cf96330dfc57ef",
      "to": "0xae579f16ba16312622cfa8d4eb2d97e5e4cae4a1",
      "contractAddress": null
    }
  ],
  "libraries": [],
  "pending": [],
  "returns": {},
  "timestamp": 1714120718,
  "chain": 11155111,
  "commit": "d163066"
}