{
  "transactions": [
    {
      "hash": "0xdc72f188ca8ce354b624027b5130b4cdf9fd6581946c3022bd04d1770b9979d2",
      "transactionType": "CALL",
      "contractName": null,
      "contractAddress": "0x44e0967e2ea92287039f015e205e801cada2cfe2",
      "function": "sendGreeting(uint64,string)",
      "arguments": [
        "5224473277236331295",
        "\"Hello from Sepolia!\""
      ],
      "transaction": {
        "from": "0x965b0e63e00e7805569ee3b428cf96330dfc57ef",
        "to": "0x44e0967e2ea92287039f015e205e801cada2cfe2",
        "gas": "0x35b4b",
        "value": "0x0",
        "input": "0x56e95f7100000000000000000000000000000000000000000000000048810ec3e431431f0000000000000000000000000000000000000000000000000000000000000040000000000000000000000000000000000000000000000000000000000000001348656c6c6f2066726f6d205365706f6c69612100000000000000000000000000",
        "nonce": "0x185",
        "chainId": "0xaa36a7",
        "accessList": null,
        "type": null
      },
      "additionalContracts": [],
      "isFixedGasLimit": false
    }
  ],
  "receipts": [
    {
      "status": "0x1",
      "cumulativeGasUsed": "0x8bac35",
      "logs": [
        {
          "address": "0x779877a7b0d9e8603169ddbd7836e478b4624789",
          "topics": [
            "0xddf252ad1be2c89b69c2b068fc378daa952ba7f163c4a11628f55a4df523b3ef",
            "0x00000000000000000000000044e0967e2ea92287039f015e205e801cada2cfe2",
            "0x00000000000000000000000069cab5a0a08a12bafd8f5b195989d709e396ed4d"
          ],
          "data": "0x000000000000000000000000000000000000000000000000015963f3586507b0",
          "blockHash": "0x82d38385ddc94c5d0feb6f1b8d7e4b928da540fd93729ae113b6f20b89c82520",
          "blockNumber": "0x5834fe",
          "transactionHash": "0xdc72f188ca8ce354b624027b5130b4cdf9fd6581946c3022bd04d1770b9979d2",
          "transactionIndex": "0x4f",
          "logIndex": "0x49",
          "removed": false
        },
        {
          "address": "0x779877a7b0d9e8603169ddbd7836e478b4624789",
          "topics": [
            "0x8c5be1e5ebec7d5bd14f71427d1e84f3dd0314c0f7b2291e5b200ac8c7c3b925",
            "0x00000000000000000000000044e0967e2ea92287039f015e205e801cada2cfe2",
            "0x0000000000000000000000000bf3de8c5d3e8a2b34d2beeb17abfcebaf363a59"
          ],
          "data": "0xfffffffffffffffffffffffffffffffffffffffffffffffffea69c0ca79af84f",
          "blockHash": "0x82d38385ddc94c5d0feb6f1b8d7e4b928da540fd93729ae113b6f20b89c82520",
          "blockNumber": "0x5834fe",
          "transactionHash": "0xdc72f188ca8ce354b624027b5130b4cdf9fd6581946c3022bd04d1770b9979d2",
          "transactionIndex": "0x4f",
          "logIndex": "0x4a",
          "removed": false
        },
        {
          "address": "0x69cab5a0a08a12bafd8f5b195989d709e396ed4d",
          "topics": [
            "0xd0c3c799bf9e2639de44391e7f524d229b2b55f5b1ea94b2bf7da42f7243dddd"
          ],
          "data": "0x0000000000000000000000000000000000000000000000000000000000000020000000000000000000000000000000000000000000000000de41ba4fc9d91ad900000000000000000000000044e0967e2ea92287039f015e205e801cada2cfe200000000000000000000000044f21c4a4dcc4a70de5450c2e2d4778c874f6507000000000000000000000000000000000000000000000000000000000000062e0000000000000000000000000000000000000000000000000000000000030d4000000000000000000000000000000000000000000000000000000000000000000000000000000000000000000000000000000000000000000000000000000001000000000000000000000000779877a7b0d9e8603169ddbd7836e478b4624789000000000000000000000000000000000000000000000000015963f3586507b000000000000000000000000000000000000000000000000000000000000001a000000000000000000000000000000000000000000000000000000000000002200000000000000000000000000000000000000000000000000000000000000240509ab7b6e954efb7be00f81c312d4e846b9e5d176de0ecf82bec99438d213f3100000000000000000000000000000000000000000000000000000000000000600000000000000000000000000000000000000000000000000000000000000020000000000000000000000000000000000000000000000000000000000000001348656c6c6f2066726f6d205365706f6c6961210000000000000000000000000000000000000000000000000000000000000000000000000000000000000000000000000000000000000000000000000000000000000000000000000000000000",
          "blockHash": "0x82d38385ddc94c5d0feb6f1b8d7e4b928da540fd93729ae113b6f20b89c82520",
          "blockNumber": "0x5834fe",
          "transactionHash": "0xdc72f188ca8ce354b624027b5130b4cdf9fd6581946c3022bd04d1770b9979d2",
          "transactionIndex": "0x4f",
          "logIndex": "0x4b",
          "removed": false
        },
        {
          "address": "0x44e0967e2ea92287039f015e205e801cada2cfe2",
          "topics": [
            "0x4623ed5139724ca0fd3e036051c53cb41fec3232a2b171cb500a486f64236894",
            "0x00000000000000000000000000000000000000000000000048810ec3e431431f",
            "0x509ab7b6e954efb7be00f81c312d4e846b9e5d176de0ecf82bec99438d213f31"
          ],
          "data": "0x",
          "blockHash": "0x82d38385ddc94c5d0feb6f1b8d7e4b928da540fd93729ae113b6f20b89c82520",
          "blockNumber": "0x5834fe",
          "transactionHash": "0xdc72f188ca8ce354b624027b5130b4cdf9fd6581946c3022bd04d1770b9979d2",
          "transactionIndex": "0x4f",
          "logIndex": "0x4c",
          "removed": false
        },
        {
          "address": "0x44e0967e2ea92287039f015e205e801cada2cfe2",
          "topics": [
            "0x4152f85a3f63f19a4142b195daf7ce322459d94cb655c2e812d8b289cd7cd88d"
          ],
          "data": "0x509ab7b6e954efb7be00f81c312d4e846b9e5d176de0ecf82bec99438d213f310000000000000000000000000000000000000000000000000000000000000040000000000000000000000000000000000000000000000000000000000000001348656c6c6f2066726f6d205365706f6c69612100000000000000000000000000",
          "blockHash": "0x82d38385ddc94c5d0feb6f1b8d7e4b928da540fd93729ae113b6f20b89c82520",
          "blockNumber": "0x5834fe",
          "transactionHash": "0xdc72f188ca8ce354b624027b5130b4cdf9fd6581946c3022bd04d1770b9979d2",
          "transactionIndex": "0x4f",
          "logIndex": "0x4d",
          "removed": false
        }
      ],
      "logsBloom": "0x00000004000040000000000000100000000000000000000000000000000000000000000000000004800000080000000000000000000000000000000000200000000000000000000040000008000000000000000000000000000008000000000000000000000100000000000000000000000008000008000000000010000000000000000400000000800040000000800000010000000000000000000000000000020000000000080400000000200000000000004000000000010100000000000000000002080000000000000000400000000000020000000100000000000000000010020000000000000000000000000006000000008000020000000000010000",
      "type": "0x2",
      "transactionHash": "0xdc72f188ca8ce354b624027b5130b4cdf9fd6581946c3022bd04d1770b9979d2",
      "transactionIndex": "0x4f",
      "blockHash": "0x82d38385ddc94c5d0feb6f1b8d7e4b928da540fd93729ae113b6f20b89c82520",
      "blockNumber": "0x5834fe",
      "gasUsed": "0x26e1e",
      "effectiveGasPrice": "0x95357d28",
      "from": "0x965b0e63e00e7805569ee3b428cf96330dfc57ef",
      "to": "0x44e0967e2ea92287039f015e205e801cada2cfe2",
      "contractAddress": null
    }
  ],
  "libraries": [],
  "pending": [],
  "returns": {},
  "timestamp": 1714124326,
  "chain": 11155111,
  "commit": "d163066"
}