{
  "transactions": [
    {
      "hash": "0x2a436a1f3467d6ebfc807383eb7eaa6ea4d3c7da98bda16532cc65be5f21d218",
      "transactionType": "CALL",
      "contractName": null,
      "contractAddress": "0x018c1ac2587da2502d01493be865aad269f01c34",
      "function": "registerTreasury(uint8)",
      "arguments": [
        "115792089237316195423570985008687907853269984665640564039457584007913129639935"
      ],
      "transaction": {
        "from": "0x965b0e63e00e7805569ee3b428cf96330dfc57ef",
        "to": "0x018c1ac2587da2502d01493be865aad269f01c34",
        "gas": "0xfa8c",
        "value": "0x0",
        "input": "0x211c85abffffffffffffffffffffffffffffffffffffffffffffffffffffffffffffffff",
        "nonce": "0x272",
        "chainId": "0xaa36a7"
      },
      "additionalContracts": [],
      "isFixedGasLimit": false
    },
    {
      "hash": "0x98e3a8fe76bfecf37e8df226f075f1aec90355d6baa057e21b396ec7ade8ad6c",
      "transactionType": "CALL",
      "contractName": null,
      "contractAddress": "0x018c1ac2587da2502d01493be865aad269f01c34",
      "function": "claimLeadership()",
      "arguments": [],
      "transaction": {
        "from": "0x965b0e63e00e7805569ee3b428cf96330dfc57ef",
        "to": "0x018c1ac2587da2502d01493be865aad269f01c34",
        "gas": "0xf56b",
        "value": "0x0",
        "input": "0x5b3e8fe7",
        "nonce": "0x273",
        "chainId": "0xaa36a7"
      },
      "additionalContracts": [],
      "isFixedGasLimit": false
    },
    {
      "hash": "0xe68646df34e0d66fd1b925d1b15a55f2993ab26ecd31b82ab26b8b2927ac1972",
      "transactionType": "CALL",
      "contractName": null,
      "contractAddress": "0x018c1ac2587da2502d01493be865aad269f01c34",
      "function": "commander()",
      "arguments": [],
      "transaction": {
        "from": "0x965b0e63e00e7805569ee3b428cf96330dfc57ef",
        "to": "0x018c1ac2587da2502d01493be865aad269f01c34",
        "gas": "0x858c",
        "value": "0x0",
        "input": "0x37270936",
        "nonce": "0x274",
        "chainId": "0xaa36a7"
      },
      "additionalContracts": [],
      "isFixedGasLimit": false
    }
  ],
  "receipts": [
    {
      "status": "0x1",
      "cumulativeGasUsed": "0xeac6fd",
      "logs": [],
      "logsBloom": "0x00000000000000000000000000000000000000000000000000000000000000000000000000000000000000000000000000000000000000000000000000000000000000000000000000000000000000000000000000000000000000000000000000000000000000000000000000000000000000000000000000000000000000000000000000000000000000000000000000000000000000000000000000000000000000000000000000000000000000000000000000000000000000000000000000000000000000000000000000000000000000000000000000000000000000000000000000000000000000000000000000000000000000000000000000000000",
      "type": "0x2",
      "transactionHash": "0x2a436a1f3467d6ebfc807383eb7eaa6ea4d3c7da98bda16532cc65be5f21d218",
      "transactionIndex": "0x53",
      "blockHash": "0x2ca67b62b10cc9265d2c841ae9c5378503bfea9d09b309ab7111165e868d7cd1",
      "blockNumber": "0x5e827c",
      "gasUsed": "0xab51",
      "effectiveGasPrice": "0x610b40e6",
      "from": "0x965b0e63e00e7805569ee3b428cf96330dfc57ef",
      "to": "0x018c1ac2587da2502d01493be865aad269f01c34",
      "contractAddress": null
    },
    {
      "status": "0x1",
      "cumulativeGasUsed": "0xeb78ac",
      "logs": [],
      "logsBloom": "0x00000000000000000000000000000000000000000000000000000000000000000000000000000000000000000000000000000000000000000000000000000000000000000000000000000000000000000000000000000000000000000000000000000000000000000000000000000000000000000000000000000000000000000000000000000000000000000000000000000000000000000000000000000000000000000000000000000000000000000000000000000000000000000000000000000000000000000000000000000000000000000000000000000000000000000000000000000000000000000000000000000000000000000000000000000000",
      "type": "0x2",
      "transactionHash": "0x98e3a8fe76bfecf37e8df226f075f1aec90355d6baa057e21b396ec7ade8ad6c",
      "transactionIndex": "0x54",
      "blockHash": "0x2ca67b62b10cc9265d2c841ae9c5378503bfea9d09b309ab7111165e868d7cd1",
      "blockNumber": "0x5e827c",
      "gasUsed": "0xb1af",
      "effectiveGasPrice": "0x610b40e6",
      "from": "0x965b0e63e00e7805569ee3b428cf96330dfc57ef",
      "to": "0x018c1ac2587da2502d01493be865aad269f01c34",
      "contractAddress": null
    },
    {
      "status": "0x1",
      "cumulativeGasUsed": "0xebd3fd",
      "logs": [],
      "logsBloom": "0x00000000000000000000000000000000000000000000000000000000000000000000000000000000000000000000000000000000000000000000000000000000000000000000000000000000000000000000000000000000000000000000000000000000000000000000000000000000000000000000000000000000000000000000000000000000000000000000000000000000000000000000000000000000000000000000000000000000000000000000000000000000000000000000000000000000000000000000000000000000000000000000000000000000000000000000000000000000000000000000000000000000000000000000000000000000",
      "type": "0x2",
      "transactionHash": "0xe68646df34e0d66fd1b925d1b15a55f2993ab26ecd31b82ab26b8b2927ac1972",
      "transactionIndex": "0x55",
      "blockHash": "0x2ca67b62b10cc9265d2c841ae9c5378503bfea9d09b309ab7111165e868d7cd1",
      "blockNumber": "0x5e827c",
      "gasUsed": "0x5b51",
      "effectiveGasPrice": "0x610b40e6",
      "from": "0x965b0e63e00e7805569ee3b428cf96330dfc57ef",
      "to": "0x018c1ac2587da2502d01493be865aad269f01c34",
      "contractAddress": null
    }
  ],
  "libraries": [],
  "pending": [],
  "returns": {},
  "timestamp": 1719442123,
  "chain": 11155111,
  "commit": "aaa3a37"
}