{
  "transactions": [
    {
      "hash": "0xaa9b0e73ad377f301212111d79bc91caed8a4707b1621138a80d756838f76fc7",
      "transactionType": "CREATE",
      "contractName": "FakeDetectionBot",
      "contractAddress": "0xb4E7d9BD5DB9076724EB66F8a44EECe4d285dA26",
      "function": null,
      "arguments": [
        "0x5C161120b66DF4952FE2DE87602056C540810d8a"
      ],
      "transaction": {
        "type": "0x02",
        "from": "0x965b0e63e00e7805569ee3b428cf96330dfc57ef",
        "gas": "0x35d88",
        "value": "0x0",
        "data": "0x608060405234801561001057600080fd5b5060405161023d38038061023d83398101604081905261002f91610054565b600080546001600160a01b0319166001600160a01b0392909216919091179055610084565b60006020828403121561006657600080fd5b81516001600160a01b038116811461007d57600080fd5b9392505050565b6101aa806100936000396000f3fe608060405234801561001057600080fd5b50600436106100365760003560e01c8063220ab6aa1461003b578063d8670e1f14610050575b600080fd5b61004e6100493660046100e3565b61007f565b005b600054610063906001600160a01b031681565b6040516001600160a01b03909116815260200160405180910390f35b60005460405163087a43c160e01b81526001600160a01b0385811660048301529091169063087a43c190602401600060405180830381600087803b1580156100c657600080fd5b505af11580156100da573d6000803e3d6000fd5b50505050505050565b6000806000604084860312156100f857600080fd5b83356001600160a01b038116811461010f57600080fd5b9250602084013567ffffffffffffffff8082111561012c57600080fd5b818601915086601f83011261014057600080fd5b81358181111561014f57600080fd5b87602082850101111561016157600080fd5b602083019450809350505050925092509256fea26469706673582212208ef6ffca65d35395c58092615397043f24b6d5102c5e34bed4ca646e53ba2efd64736f6c634300081800330000000000000000000000005c161120b66df4952fe2de87602056c540810d8a",
        "nonce": "0x126",
        "accessList": []
      },
      "additionalContracts": [],
      "isFixedGasLimit": false
    },
    {
      "hash": "0xae888651dca74616a9c74e8f40f7c129fecb8068c21956a8b911989e5ae8ad32",
      "transactionType": "CALL",
      "contractName": null,
      "contractAddress": "0x5C161120b66DF4952FE2DE87602056C540810d8a",
      "function": "setDetectionBot(address)",
      "arguments": [
        "0xb4E7d9BD5DB9076724EB66F8a44EECe4d285dA26"
      ],
      "transaction": {
        "type": "0x02",
        "from": "0x965b0e63e00e7805569ee3b428cf96330dfc57ef",
        "to": "0x5c161120b66df4952fe2de87602056c540810d8a",
        "gas": "0xfb10",
        "value": "0x0",
        "data": "0x9e927c68000000000000000000000000b4e7d9bd5db9076724eb66f8a44eece4d285da26",
        "nonce": "0x127",
        "accessList": []
      },
      "additionalContracts": [],
      "isFixedGasLimit": false
    }
  ],
  "receipts": [],
  "libraries": [],
  "pending": [
    "0xaa9b0e73ad377f301212111d79bc91caed8a4707b1621138a80d756838f76fc7",
    "0xae888651dca74616a9c74e8f40f7c129fecb8068c21956a8b911989e5ae8ad32"
  ],
  "returns": {},
  "timestamp": 1708702787,
  "chain": 11155111,
  "multi": false,
  "commit": "b35ac88"
}