{
  "transactions": [
    {
      "hash": "0x0580034167e793ddd42029170200322014b51199945f903f9ee858634ca4cfbd",
      "transactionType": "CALL",
      "contractName": null,
      "contractAddress": "0xC58B848994A6a870D7033c4901dE17602FB5b540",
      "function": "sweepToken(address)",
      "arguments": [
        "0x89B6eAE9F1796775f21283f1071B4d07d16A34a3"
      ],
      "transaction": {
        "type": "0x02",
        "from": "0x965b0e63e00e7805569ee3b428cf96330dfc57ef",
        "to": "0xc58b848994a6a870d7033c4901de17602fb5b540",
        "gas": "0x1b0b6",
        "value": "0x0",
        "data": "0x1be1956000000000000000000000000089b6eae9f1796775f21283f1071b4d07d16a34a3",
        "nonce": "0x123",
        "accessList": []
      },
      "additionalContracts": [],
      "isFixedGasLimit": false
    }
  ],
  "receipts": [
    {
      "transactionHash": "0x0580034167e793ddd42029170200322014b51199945f903f9ee858634ca4cfbd",
      "transactionIndex": "0x20",
      "blockHash": "0x2073c8a1428a89887385bc20ccae7391ebd3be190b3f1cf7c484ba419257c1de",
      "blockNumber": "0x519b05",
      "from": "0x965B0E63e00E7805569ee3B428Cf96330DFc57EF",
      "to": "0xC58B848994A6a870D7033c4901dE17602FB5b540",
      "cumulativeGasUsed": "0x317b69",
      "gasUsed": "0x13947",
      "contractAddress": null,
      "logs": [
        {
          "address": "0x0D7e6f9f0d3E7f757D67793025242985923b3570",
          "topics": [
            "0xddf252ad1be2c89b69c2b068fc378daa952ba7f163c4a11628f55a4df523b3ef",
            "0x000000000000000000000000c58b848994a6a870d7033c4901de17602fb5b540",
            "0x000000000000000000000000965b0e63e00e7805569ee3b428cf96330dfc57ef"
          ],
          "data": "0x0000000000000000000000000000000000000000000000056bc75e2d63100000",
          "blockHash": "0x2073c8a1428a89887385bc20ccae7391ebd3be190b3f1cf7c484ba419257c1de",
          "blockNumber": "0x519b05",
          "transactionHash": "0x0580034167e793ddd42029170200322014b51199945f903f9ee858634ca4cfbd",
          "transactionIndex": "0x20",
          "logIndex": "0xf",
          "removed": false
        }
      ],
      "status": "0x1",
      "logsBloom": "0x00000000000000000000000000000000000000000000000000000000000000000000000000000000000000000000000000000000000000000000000000000000000000000002000000000008000004100000000000000000000000000004000000000000000000000000000000000000000000000000800000000010000000000000000000000000000000100000000000000000000000000000200000000000000000000000000000000000000000000000000000000000000000000000000000000002000000000000000000000000000000800000000000000000000000000000000000000000000000000002000000000000000000000000000000000000",
      "type": "0x2",
      "effectiveGasPrice": "0xb2e468e6"
    }
  ],
  "libraries": [],
  "pending": [],
  "returns": {},
  "timestamp": 1708702233,
  "chain": 11155111,
  "multi": false,
  "commit": "b35ac88"
}