{
  "transactions": [
    {
      "hash": "0x0439a2c9bd51c1e927881e0a0d574038ef350f687a90e590e37f4458fe538bcc",
      "transactionType": "CALL",
      "contractName": null,
      "contractAddress": "0xD2dD0DdDBcdBd262120F411a45B271BcA3c87587",
      "function": "approve(address,uint256)",
      "arguments": [
        "0xD2dD0DdDBcdBd262120F411a45B271BcA3c87587",
        "752"
      ],
      "transaction": {
        "type": "0x02",
        "from": "0x965b0e63e00e7805569ee3b428cf96330dfc57ef",
        "to": "0xd2dd0dddbcdbd262120f411a45b271bca3c87587",
        "gas": "0x11937",
        "value": "0x0",
        "data": "0x095ea7b3000000000000000000000000d2dd0dddbcdbd262120f411a45b271bca3c8758700000000000000000000000000000000000000000000000000000000000002f0",
        "nonce": "0x335",
        "accessList": []
      },
      "additionalContracts": [],
      "isFixedGasLimit": false
    },
    {
      "hash": "0x75cb41221f16728537a0978d2cd6b0fcc98b628d3c944732cadd22e7e69a9fbe",
      "transactionType": "CALL",
      "contractName": null,
      "contractAddress": "0xD2dD0DdDBcdBd262120F411a45B271BcA3c87587",
      "function": "transferFrom(address,address,uint256)",
      "arguments": [
        "0x965B0E63e00E7805569ee3B428Cf96330DFc57EF",
        "0xD2dD0DdDBcdBd262120F411a45B271BcA3c87587",
        "752"
      ],
      "transaction": {
        "type": "0x02",
        "from": "0x965b0e63e00e7805569ee3b428cf96330dfc57ef",
        "to": "0xd2dd0dddbcdbd262120f411a45b271bca3c87587",
        "gas": "0x14266",
        "value": "0x0",
        "data": "0x23b872dd000000000000000000000000965b0e63e00e7805569ee3b428cf96330dfc57ef000000000000000000000000d2dd0dddbcdbd262120f411a45b271bca3c8758700000000000000000000000000000000000000000000000000000000000002f0",
        "nonce": "0x336",
        "accessList": []
      },
      "additionalContracts": [],
      "isFixedGasLimit": false
    }
  ],
  "receipts": [
    {
      "transactionHash": "0x0439a2c9bd51c1e927881e0a0d574038ef350f687a90e590e37f4458fe538bcc",
      "transactionIndex": "0x5",
      "blockHash": "0x1b204b7d4c963c6eea4b45c197d9c5e5d80365b87f17c0c9ce348f3f2dfb4cf0",
      "blockNumber": "0x2bc4c10",
      "from": "0x965B0E63e00E7805569ee3B428Cf96330DFc57EF",
      "to": "0xD2dD0DdDBcdBd262120F411a45B271BcA3c87587",
      "cumulativeGasUsed": "0x1d63f8",
      "gasUsed": "0xc049",
      "contractAddress": null,
      "logs": [
        {
          "address": "0xD2dD0DdDBcdBd262120F411a45B271BcA3c87587",
          "topics": [
            "0x8c5be1e5ebec7d5bd14f71427d1e84f3dd0314c0f7b2291e5b200ac8c7c3b925",
            "0x000000000000000000000000965b0e63e00e7805569ee3b428cf96330dfc57ef",
            "0x000000000000000000000000d2dd0dddbcdbd262120f411a45b271bca3c87587",
            "0x00000000000000000000000000000000000000000000000000000000000002f0"
          ],
          "data": "0x",
          "blockHash": "0x1b204b7d4c963c6eea4b45c197d9c5e5d80365b87f17c0c9ce348f3f2dfb4cf0",
          "blockNumber": "0x2bc4c10",
          "transactionHash": "0x0439a2c9bd51c1e927881e0a0d574038ef350f687a90e590e37f4458fe538bcc",
          "transactionIndex": "0x5",
          "logIndex": "0x23",
          "removed": false
        },
        {
          "address": "0x0000000000000000000000000000000000001010",
          "topics": [
            "0x4dfe1bbbcf077ddc3e01291eea2d5c70c2b422b415d95645b9adcfd678cb1d63",
            "0x0000000000000000000000000000000000000000000000000000000000001010",
            "0x000000000000000000000000965b0e63e00e7805569ee3b428cf96330dfc57ef",
            "0x0000000000000000000000005082f249cdb2f2c1ee035e4f423c46ea2dab3ab1"
          ],
          "data": "0x00000000000000000000000000000000000000000000000000053f18a72b4bb7000000000000000000000000000000000000000000000000620bbb8a002ed2a30000000000000000000000000000000000000000000006479f687b0acd2d9e4200000000000000000000000000000000000000000000000062067c71590386ec0000000000000000000000000000000000000000000006479f6dba237458e9f9",
          "blockHash": "0x1b204b7d4c963c6eea4b45c197d9c5e5d80365b87f17c0c9ce348f3f2dfb4cf0",
          "blockNumber": "0x2bc4c10",
          "transactionHash": "0x0439a2c9bd51c1e927881e0a0d574038ef350f687a90e590e37f4458fe538bcc",
          "transactionIndex": "0x5",
          "logIndex": "0x24",
          "removed": false
        }
      ],
      "status": "0x1",
      "logsBloom": "0x00000000000000000000000000000000000000000000000000400000020000000000000002000000040000000000000000008000000000000000000000200000000000000002000000000000000004900000000000000000000100800000000080000000000200000000000000000000000000000000000080000000000000400000000000000000000000000000000000000000000000000000600000000000220000200000000000000000000000000000000000000000000000000000004000000000000000000001000000000000000000000000000000100000000000000010000000000080000000000000000000000000000000000000000000100000",
      "type": "0x2",
      "effectiveGasPrice": "0x6fc23ac0e"
    },
    {
      "transactionHash": "0x75cb41221f16728537a0978d2cd6b0fcc98b628d3c944732cadd22e7e69a9fbe",
      "transactionIndex": "0x6",
      "blockHash": "0x1b204b7d4c963c6eea4b45c197d9c5e5d80365b87f17c0c9ce348f3f2dfb4cf0",
      "blockNumber": "0x2bc4c10",
      "from": "0x965B0E63e00E7805569ee3B428Cf96330DFc57EF",
      "to": "0xD2dD0DdDBcdBd262120F411a45B271BcA3c87587",
      "cumulativeGasUsed": "0x1e406a",
      "gasUsed": "0xdc72",
      "contractAddress": null,
      "logs": [
        {
          "address": "0xD2dD0DdDBcdBd262120F411a45B271BcA3c87587",
          "topics": [
            "0x8c5be1e5ebec7d5bd14f71427d1e84f3dd0314c0f7b2291e5b200ac8c7c3b925",
            "0x000000000000000000000000965b0e63e00e7805569ee3b428cf96330dfc57ef",
            "0x0000000000000000000000000000000000000000000000000000000000000000",
            "0x00000000000000000000000000000000000000000000000000000000000002f0"
          ],
          "data": "0x",
          "blockHash": "0x1b204b7d4c963c6eea4b45c197d9c5e5d80365b87f17c0c9ce348f3f2dfb4cf0",
          "blockNumber": "0x2bc4c10",
          "transactionHash": "0x75cb41221f16728537a0978d2cd6b0fcc98b628d3c944732cadd22e7e69a9fbe",
          "transactionIndex": "0x6",
          "logIndex": "0x25",
          "removed": false
        },
        {
          "address": "0xD2dD0DdDBcdBd262120F411a45B271BcA3c87587",
          "topics": [
            "0xddf252ad1be2c89b69c2b068fc378daa952ba7f163c4a11628f55a4df523b3ef",
            "0x000000000000000000000000965b0e63e00e7805569ee3b428cf96330dfc57ef",
            "0x000000000000000000000000d2dd0dddbcdbd262120f411a45b271bca3c87587",
            "0x00000000000000000000000000000000000000000000000000000000000002f0"
          ],
          "data": "0x",
          "blockHash": "0x1b204b7d4c963c6eea4b45c197d9c5e5d80365b87f17c0c9ce348f3f2dfb4cf0",
          "blockNumber": "0x2bc4c10",
          "transactionHash": "0x75cb41221f16728537a0978d2cd6b0fcc98b628d3c944732cadd22e7e69a9fbe",
          "transactionIndex": "0x6",
          "logIndex": "0x26",
          "removed": false
        },
        {
          "address": "0x0000000000000000000000000000000000001010",
          "topics": [
            "0x4dfe1bbbcf077ddc3e01291eea2d5c70c2b422b415d95645b9adcfd678cb1d63",
            "0x0000000000000000000000000000000000000000000000000000000000001010",
            "0x000000000000000000000000965b0e63e00e7805569ee3b428cf96330dfc57ef",
            "0x0000000000000000000000005082f249cdb2f2c1ee035e4f423c46ea2dab3ab1"
          ],
          "data": "0x000000000000000000000000000000000000000000000000000603caefb1bb8e00000000000000000000000000000000000000000000000062067c7158f842a50000000000000000000000000000000000000000000006479f6dba237458e9f9000000000000000000000000000000000000000000000000620078a6694687170000000000000000000000000000000000000000000006479f73bdee640aa587",
          "blockHash": "0x1b204b7d4c963c6eea4b45c197d9c5e5d80365b87f17c0c9ce348f3f2dfb4cf0",
          "blockNumber": "0x2bc4c10",
          "transactionHash": "0x75cb41221f16728537a0978d2cd6b0fcc98b628d3c944732cadd22e7e69a9fbe",
          "transactionIndex": "0x6",
          "logIndex": "0x27",
          "removed": false
        }
      ],
      "status": "0x1",
      "logsBloom": "0x00000000000000000000000000000000000000000000000000400000020000000000000002000000040000000000000000008000000000000000000000200000000000000002000000000008000004900000000000000000000100800000000080000000020200000000000000000800000000000000000080000010000000400000000000000000000000000000000000000000000000000000600000000000220000200000000000000000000000000000000000000000000000000000004000000002000000000001000000000000000000000000000000100000000020000010000000000080000000000000000000000000000000000000000000100000",
      "type": "0x2",
      "effectiveGasPrice": "0x6fc23ac0e"
    }
  ],
  "libraries": [],
  "pending": [],
  "returns": {},
  "timestamp": 1707885235,
  "chain": 80001,
  "multi": false,
  "commit": "1d8d3be"
}