{
  "transactions": [
    {
      "hash": "0x0439a2c9bd51c1e927881e0a0d574038ef350f687a90e590e37f4458fe538bcc",
      "transactionType": "CALL",
      "contractName": null,
      "contractAddress": "0xD2dD0DdDBcdBd262120F411a45B271BcA3c87587",
      "function": "approve(address,uint256)",
      "arguments": [
        "0xD2dD0DdDBcdBd262120F411a45B271BcA3c87587",
        "752"
      ],
      "transaction": {
        "type": "0x02",
        "from": "0x965b0e63e00e7805569ee3b428cf96330dfc57ef",
        "to": "0xd2dd0dddbcdbd262120f411a45b271bca3c87587",
        "gas": "0x11937",
        "value": "0x0",
        "data": "0x095ea7b3000000000000000000000000d2dd0dddbcdbd262120f411a45b271bca3c8758700000000000000000000000000000000000000000000000000000000000002f0",
        "nonce": "0x335",
        "accessList": []
      },
      "additionalContracts": [],
      "isFixedGasLimit": false
    },
    {
      "hash": "0x75cb41221f16728537a0978d2cd6b0fcc98b628d3c944732cadd22e7e69a9fbe",
      "transactionType": "CALL",
      "contractName": null,
      "contractAddress": "0xD2dD0DdDBcdBd262120F411a45B271BcA3c87587",
      "function": "transferFrom(address,address,uint256)",
      "arguments": [
        "0x965B0E63e00E7805569ee3B428Cf96330DFc57EF",
        "0xD2dD0DdDBcdBd262120F411a45B271BcA3c87587",
        "752"
      ],
      "transaction": {
        "type": "0x02",
        "from": "0x965b0e63e00e7805569ee3b428cf96330dfc57ef",
        "to": "0xd2dd0dddbcdbd262120f411a45b271bca3c87587",
        "gas": "0x14266",
        "value": "0x0",
        "data": "0x23b872dd000000000000000000000000965b0e63e00e7805569ee3b428cf96330dfc57ef000000000000000000000000d2dd0dddbcdbd262120f411a45b271bca3c8758700000000000000000000000000000000000000000000000000000000000002f0",
        "nonce": "0x336",
        "accessList": []
      },
      "additionalContracts": [],
      "isFixedGasLimit": false
    }
  ],
  "receipts": [],
  "libraries": [],
  "pending": [
    "0x0439a2c9bd51c1e927881e0a0d574038ef350f687a90e590e37f4458fe538bcc",
    "0x75cb41221f16728537a0978d2cd6b0fcc98b628d3c944732cadd22e7e69a9fbe"
  ],
  "returns": {},
  "timestamp": 1707885151,
  "chain": 80001,
  "multi": false,
  "commit": "1d8d3be"
}