{
  "transactions": [
    {
      "hash": "0xa3de703695955115b405ed3acab4176d1d8b86aff4901d290afca1bca8079a2d",
      "transactionType": "CALL",
      "contractName": null,
      "contractAddress": null,
      "function": null,
      "arguments": null,
      "transaction": {
        "type": "0x02",
        "from": "0x965b0e63e00e7805569ee3b428cf96330dfc57ef",
        "to": "0x9001c6a6238c9026f423a7fd640929c51cb1bb77",
        "gas": "0x84ae",
        "value": "0x3e8",
        "data": "0x",
        "nonce": "0x349",
        "accessList": []
      },
      "additionalContracts": [],
      "isFixedGasLimit": false
    },
    {
      "hash": "0x9daa8b77d4f4f466756e3b262748245d7ac901e3fa6421b4c0ce3b99c9e8233b",
      "transactionType": "CREATE",
      "contractName": "ReceiveEther",
      "contractAddress": "0x9E702F55B322851813660F071Cd4ff048EB9B097",
      "function": null,
      "arguments": null,
      "transaction": {
        "type": "0x02",
        "from": "0x965b0e63e00e7805569ee3b428cf96330dfc57ef",
        "gas": "0x2f214",
        "value": "0x0",
        "data": "0x608060405234801561001057600080fd5b50600080546001600160a01b03191633179055610151806100326000396000f3fe60806040526004361061002a5760003560e01c80633ccfd60b146100335780638da5cb5b1461004857005b3661003157005b005b34801561003f57600080fd5b50610031610084565b34801561005457600080fd5b50600054610068906001600160a01b031681565b6040516001600160a01b03909116815260200160405180910390f35b6000546001600160a01b031633146100ec5760405162461bcd60e51b815260206004820152602160248201527f6f6e6c79206f776e65722063616e2063616c6c20746869732066756e6374696f6044820152603760f91b606482015260840160405180910390fd5b60405133904780156108fc02916000818181858888f19350505050158015610118573d6000803e3d6000fd5b5056fea2646970667358221220ec56fcc0c202f478300628cd4f05526f1ef9496a9474f649305ea5c2fa18340c64736f6c63430008180033",
        "nonce": "0x34a",
        "accessList": []
      },
      "additionalContracts": [],
      "isFixedGasLimit": false
    },
    {
      "hash": "0xf636273c0ad4a7fad22c47b373ae888d45090732a4ba01f2750dd5a039b05b1e",
      "transactionType": "CALL",
      "contractName": null,
      "contractAddress": "0x9001c6A6238c9026F423a7Fd640929c51cb1BB77",
      "function": "setReceiveEtherAddress(address)",
      "arguments": [
        "0x9E702F55B322851813660F071Cd4ff048EB9B097"
      ],
      "transaction": {
        "type": "0x02",
        "from": "0x965b0e63e00e7805569ee3b428cf96330dfc57ef",
        "to": "0x9001c6a6238c9026f423a7fd640929c51cb1bb77",
        "gas": "0xfbc2",
        "value": "0x0",
        "data": "0x11d2cb630000000000000000000000009e702f55b322851813660f071cd4ff048eb9b097",
        "nonce": "0x34b",
        "accessList": []
      },
      "additionalContracts": [],
      "isFixedGasLimit": false
    }
  ],
  "receipts": [],
  "libraries": [],
  "pending": [
    "0xa3de703695955115b405ed3acab4176d1d8b86aff4901d290afca1bca8079a2d",
    "0x9daa8b77d4f4f466756e3b262748245d7ac901e3fa6421b4c0ce3b99c9e8233b",
    "0xf636273c0ad4a7fad22c47b373ae888d45090732a4ba01f2750dd5a039b05b1e"
  ],
  "returns": {},
  "timestamp": 1707891031,
  "chain": 80001,
  "multi": false,
  "commit": "a8d0b1f"
}