{
  "transactions": [
    {
      "hash": "0x3cdbe0b60ab2ee8e9343205c59a88b6e82da3113bc5345c094dd39bed64730f7",
      "transactionType": "CALL",
      "contractName": null,
      "contractAddress": "0xe9b53942eadEeE83EB998554C042955B248bb30A",
      "function": "send(string)",
      "arguments": [
        "\"Hello World from Sepolia\""
      ],
      "transaction": {
        "type": "0x02",
        "from": "0x965b0e63e00e7805569ee3b428cf96330dfc57ef",
        "to": "0xe9b53942eadeee83eb998554c042955b248bb30a",
        "gas": "0x5253a",
        "value": "0x4f0695b60d4",
        "data": "0x66792ba10000000000000000000000000000000000000000000000000000000000000020000000000000000000000000000000000000000000000000000000000000001848656c6c6f20576f726c642066726f6d205365706f6c69610000000000000000",
        "nonce": "0xfa",
        "accessList": []
      },
      "additionalContracts": [],
      "isFixedGasLimit": false
    }
  ],
  "receipts": [],
  "libraries": [],
  "pending": [
    "0x3cdbe0b60ab2ee8e9343205c59a88b6e82da3113bc5345c094dd39bed64730f7"
  ],
  "returns": {},
  "timestamp": 1707314147,
  "chain": 11155111,
  "multi": false,
  "commit": "39df2a0"
}