{
  "transactions": [
    {
      "hash": "0x3cdbe0b60ab2ee8e9343205c59a88b6e82da3113bc5345c094dd39bed64730f7",
      "transactionType": "CALL",
      "contractName": null,
      "contractAddress": "0xe9b53942eadEeE83EB998554C042955B248bb30A",
      "function": "send(string)",
      "arguments": [
        "\"Hello World from Sepolia\""
      ],
      "transaction": {
        "type": "0x02",
        "from": "0x965b0e63e00e7805569ee3b428cf96330dfc57ef",
        "to": "0xe9b53942eadeee83eb998554c042955b248bb30a",
        "gas": "0x5253a",
        "value": "0x4f0695b60d4",
        "data": "0x66792ba10000000000000000000000000000000000000000000000000000000000000020000000000000000000000000000000000000000000000000000000000000001848656c6c6f20576f726c642066726f6d205365706f6c69610000000000000000",
        "nonce": "0xfa",
        "accessList": []
      },
      "additionalContracts": [],
      "isFixedGasLimit": false
    }
  ],
  "receipts": [
    {
      "transactionHash": "0x3cdbe0b60ab2ee8e9343205c59a88b6e82da3113bc5345c094dd39bed64730f7",
      "transactionIndex": "0x55",
      "blockHash": "0x7800bf363ba89174234e9e830578fc7a452687d91678fb2b7c9a62fd95611464",
      "blockNumber": "0x4fef4f",
      "from": "0x965B0E63e00E7805569ee3B428Cf96330DFc57EF",
      "to": "0xe9b53942eadEeE83EB998554C042955B248bb30A",
      "cumulativeGasUsed": "0x72f6f4",
      "gasUsed": "0x3b9a7",
      "contractAddress": null,
      "logs": [
        {
          "address": "0x6Ac7bdc07A0583A362F1497252872AE6c0A5F5B8",
          "topics": [
            "0xdf21c415b78ed2552cc9971249e32a053abce6087a0ae0fbf3f78db5174a3493"
          ],
          "data": "0x000000000000000000000000000000000000000000000000000004a70ce4b912",
          "blockHash": "0x7800bf363ba89174234e9e830578fc7a452687d91678fb2b7c9a62fd95611464",
          "blockNumber": "0x4fef4f",
          "transactionHash": "0x3cdbe0b60ab2ee8e9343205c59a88b6e82da3113bc5345c094dd39bed64730f7",
          "transactionIndex": "0x55",
          "logIndex": "0x4e",
          "removed": false
        },
        {
          "address": "0x3aCAAf60502791D199a5a5F0B173D78229eBFe32",
          "topics": [
            "0xb0c632f55f1e1b3b2c3d82f41ee4716bb4c00f0f5d84cdafc141581bb8757a4f"
          ],
          "data": "0x00000000000000000000000000000000000000000000000000000000000000400000000000000000000000000000000000000000000000000000000000000002000000000000000000000000000000000000000000000000000000000000002200010000000000000000000000000000000000000000000000000000000000030d40000000000000000000000000000000000000000000000000000000000000",
          "blockHash": "0x7800bf363ba89174234e9e830578fc7a452687d91678fb2b7c9a62fd95611464",
          "blockNumber": "0x4fef4f",
          "transactionHash": "0x3cdbe0b60ab2ee8e9343205c59a88b6e82da3113bc5345c094dd39bed64730f7",
          "transactionIndex": "0x55",
          "logIndex": "0x4f",
          "removed": false
        },
        {
          "address": "0x00C5C0B8e0f75aB862CbAaeCfff499dB555FBDD2",
          "topics": [
            "0x4e41ee13e03cd5e0446487b524fdc48af6acf26c074dacdbdfb6b574b42c8146"
          ],
          "data": "0x000000000000000000000000000000000000000000000000000000000000277d00000000000000000000000000000000000000000000000000000000000000020000000000000000000000000000000000000000000000000000000000000002000000000000000000000000e9b53942eadeee83eb998554c042955b248bb30a000000000000000000000000000000000000000000000000000000495c76a7c2",
          "blockHash": "0x7800bf363ba89174234e9e830578fc7a452687d91678fb2b7c9a62fd95611464",
          "blockNumber": "0x4fef4f",
          "transactionHash": "0x3cdbe0b60ab2ee8e9343205c59a88b6e82da3113bc5345c094dd39bed64730f7",
          "transactionIndex": "0x55",
          "logIndex": "0x50",
          "removed": false
        },
        {
          "address": "0x3aCAAf60502791D199a5a5F0B173D78229eBFe32",
          "topics": [
            "0xe9bded5f24a4168e4f3bf44e00298c993b22376aad8c58c7dda9718a54cbea82"
          ],
          "data": "0x00000000000000000000000000000000000000000000000000000000000000200000000000000000000000000000000000000000000000000000000000000094000000000000000127b1e9b53942eadeee83eb998554c042955b248bb30a277d1e5501bf7a4821be9251aa617560c03f481a39bd0000000000000000000000000000000000000000000000000000000000000020000000000000000000000000000000000000000000000000000000000000001848656c6c6f20576f726c642066726f6d205365706f6c69610000000000000000000000000000000000000000",
          "blockHash": "0x7800bf363ba89174234e9e830578fc7a452687d91678fb2b7c9a62fd95611464",
          "blockNumber": "0x4fef4f",
          "transactionHash": "0x3cdbe0b60ab2ee8e9343205c59a88b6e82da3113bc5345c094dd39bed64730f7",
          "transactionIndex": "0x55",
          "logIndex": "0x51",
          "removed": false
        }
      ],
      "status": "0x1",
      "logsBloom": "0x00000000000000000000000000000000000050000000000000000000000000100000000020000000400000000000000000000000000000000000000000000000004000000000000000000000000000001000000000000000000000000000000000040000000000000000000000000200000000000000000000000000000000000040000400000000000000000000000000000000280000000000000000000000000000004000020000000000000000000000000000000000000000000000000000001000000008000000000000000000000000000000000000000000004100001000000000000000000000000000000000000000000000000000000000080000",
      "type": "0x2",
      "effectiveGasPrice": "0xa74d74a77"
    }
  ],
  "libraries": [],
  "pending": [],
  "returns": {},
  "timestamp": 1707314153,
  "chain": 11155111,
  "multi": false,
  "commit": "39df2a0"
}