{
  "transactions": [
    {
      "hash": "0x0118404a71957f2c8ca8649eb0f9cc365a08e4eec300f4078ebea9931fc5979f",
      "transactionType": "CREATE",
      "contractName": "ErrorHandle2",
      "contractAddress": "0xa72A0faf8a85a1e52ac287379F6CC7e3bB863BB3",
      "function": null,
      "arguments": null,
      "transaction": {
        "type": "0x02",
        "from": "0x965b0e63e00e7805569ee3b428cf96330dfc57ef",
        "gas": "0x308a7",
        "value": "0x0",
        "data": "0x608060405234801561001057600080fd5b506101ce806100206000396000f3fe608060405234801561001057600080fd5b506004361061002b5760003560e01c806371a2521f14610030575b600080fd5b61004361003e36600461012c565b610045565b005b6000819050806001600160a01b0316632f7643a86040518163ffffffff1660e01b8152600401600060405180830381600087803b15801561008557600080fd5b505af1925050508015610096575060015b610128576100a261015c565b634e487b710361011e576100b4610178565b906100bf575061011e565b604051637ddbe52d60e11b8152600481018290526001600160a01b0383169063fbb7ca5a90602401600060405180830381600087803b15801561010157600080fd5b505af1158015610115573d6000803e3d6000fd5b50505050505050565b3d6000803e3d6000fd5b5050565b60006020828403121561013e57600080fd5b81356001600160a01b038116811461015557600080fd5b9392505050565b600060033d11156101755760046000803e5060005160e01c5b90565b60008060233d1115610194576020600460003e50506000516001905b909156fea2646970667358221220969c5514065deb0b1e30445da19031a34e31641d3aed4dab4338ea7205ad269c64736f6c63430008180033",
        "nonce": "0x35a",
        "accessList": []
      },
      "additionalContracts": [],
      "isFixedGasLimit": false
    },
    {
      "hash": "0x154d58e94ccb421d297f47046808a436c457cf192f50061e6ad6a7bbe91e085b",
      "transactionType": "CALL",
      "contractName": "ErrorHandle2",
      "contractAddress": "0xa72A0faf8a85a1e52ac287379F6CC7e3bB863BB3",
      "function": "errorHandle(address)",
      "arguments": [
        "0xcD3335D30efBd71910311d93a9013AAe51ba5a21"
      ],
      "transaction": {
        "type": "0x02",
        "from": "0x965b0e63e00e7805569ee3b428cf96330dfc57ef",
        "to": "0xa72a0faf8a85a1e52ac287379f6cc7e3bb863bb3",
        "gas": "0x102ed",
        "value": "0x0",
        "data": "0x71a2521f000000000000000000000000cd3335d30efbd71910311d93a9013aae51ba5a21",
        "nonce": "0x35b",
        "accessList": []
      },
      "additionalContracts": [],
      "isFixedGasLimit": false
    }
  ],
  "receipts": [],
  "libraries": [],
  "pending": [
    "0x0118404a71957f2c8ca8649eb0f9cc365a08e4eec300f4078ebea9931fc5979f",
    "0x154d58e94ccb421d297f47046808a436c457cf192f50061e6ad6a7bbe91e085b"
  ],
  "returns": {},
  "timestamp": 1707894445,
  "chain": 80001,
  "multi": false,
  "commit": "a8d0b1f"
}