{
  "transactions": [
    {
      "hash": "0xe3ede07be8c1a7e8bb96a70e352880e4eb91a2273b0918189dffdf2865578a94",
      "transactionType": "CREATE",
      "contractName": "ErrorHandle",
      "contractAddress": "0x343DE53d713a4703f62b2af0F1a009009fA4AcF6",
      "function": null,
      "arguments": null,
      "transaction": {
        "type": "0x02",
        "from": "0x965b0e63e00e7805569ee3b428cf96330dfc57ef",
        "gas": "0x41d02",
        "value": "0x0",
        "data": "0x608060405234801561001057600080fd5b506102ca806100206000396000f3fe608060405234801561001057600080fd5b506004361061002b5760003560e01c806371a2521f14610030575b600080fd5b61004361003e366004610134565b610045565b005b6000819050806001600160a01b0316632f7643a86040518163ffffffff1660e01b8152600401600060405180830381600087803b15801561008557600080fd5b505af1925050508015610096575060015b610130576100a2610164565b806308c379a00361012457506100b66101bb565b806100c15750610126565b60405163695de62160e11b81526001600160a01b0383169063d2bbcc42906100ed908490600401610245565b600060405180830381600087803b15801561010757600080fd5b505af115801561011b573d6000803e3d6000fd5b50505050505050565b505b3d6000803e3d6000fd5b5050565b60006020828403121561014657600080fd5b81356001600160a01b038116811461015d57600080fd5b9392505050565b600060033d111561017d5760046000803e5060005160e01c5b90565b601f8201601f1916810167ffffffffffffffff811182821017156101b457634e487b7160e01b600052604160045260246000fd5b6040525050565b600060443d10156101c95790565b6040516003193d81016004833e81513d67ffffffffffffffff81602484011181841117156101f957505050505090565b82850191508151818111156102115750505050505090565b843d870101602082850101111561022b5750505050505090565b61023a60208286010187610180565b509095945050505050565b60006020808352835180602085015260005b8181101561027357858101830151858201604001528201610257565b506000604082860101526040601f19601f830116850101925050509291505056fea26469706673582212202d55056c348d03c674fa57391c8706eeaa9beb000ebcba2bb3f61ea7d363480a64736f6c63430008180033",
        "nonce": "0x356",
        "accessList": []
      },
      "additionalContracts": [],
      "isFixedGasLimit": false
    },
    {
      "hash": "0xf779670f61d0a42236a91ef904f356c694702932240558d6c347c7f6cf2cd87f",
      "transactionType": "CALL",
      "contractName": "ErrorHandle",
      "contractAddress": "0x343DE53d713a4703f62b2af0F1a009009fA4AcF6",
      "function": "errorHandle(address)",
      "arguments": [
        "0x60a889dc16DB8C4B57271d226F7De577550f3594"
      ],
      "transaction": {
        "type": "0x02",
        "from": "0x965b0e63e00e7805569ee3b428cf96330dfc57ef",
        "to": "0x343de53d713a4703f62b2af0f1a009009fa4acf6",
        "gas": "0x10ca2",
        "value": "0x0",
        "data": "0x71a2521f00000000000000000000000060a889dc16db8c4b57271d226f7de577550f3594",
        "nonce": "0x357",
        "accessList": []
      },
      "additionalContracts": [],
      "isFixedGasLimit": false
    }
  ],
  "receipts": [],
  "libraries": [],
  "pending": [
    "0xe3ede07be8c1a7e8bb96a70e352880e4eb91a2273b0918189dffdf2865578a94",
    "0xf779670f61d0a42236a91ef904f356c694702932240558d6c347c7f6cf2cd87f"
  ],
  "returns": {},
  "timestamp": 1707893277,
  "chain": 80001,
  "multi": false,
  "commit": "a8d0b1f"
}