{
  "transactions": [
    {
      "hash": "0xd1b1ef3538f2c27531615b4b816aac664cd9844dbab4cd9e7c84854374290c0e",
      "transactionType": "CREATE",
      "contractName": "SumOfArray",
      "contractAddress": "0xCA4E34E1aFAa5B8e9194d35eFcaD37cc6692e0F5",
      "function": null,
      "arguments": null,
      "transaction": {
        "type": "0x02",
        "from": "0x965b0e63e00e7805569ee3b428cf96330dfc57ef",
        "gas": "0x2e7f5",
        "value": "0x0",
        "data": "0x608060405234801561001057600080fd5b506101b0806100206000396000f3fe608060405234801561001057600080fd5b506004361061002b5760003560e01c80630194db8e14610030575b600080fd5b61004361003e3660046100a6565b610055565b60405190815260200160405180910390f35b6000805b825181101561008a57825160018201918491811061007957610079610164565b602002602001015182019150610059565b50919050565b634e487b7160e01b600052604160045260246000fd5b600060208083850312156100b957600080fd5b823567ffffffffffffffff808211156100d157600080fd5b818501915085601f8301126100e557600080fd5b8135818111156100f7576100f7610090565b8060051b604051601f19603f8301168101818110858211171561011c5761011c610090565b60405291825284820192508381018501918883111561013a57600080fd5b938501935b828510156101585784358452938501939285019261013f565b98975050505050505050565b634e487b7160e01b600052603260045260246000fdfea2646970667358221220aeff8daedca7b37894cfb748ed36c449b2e27ad7a147f8eeb05cacbc95cc60f064736f6c63430008180033",
        "nonce": "0x35e",
        "accessList": []
      },
      "additionalContracts": [],
      "isFixedGasLimit": false
    },
    {
      "hash": "0x3dde626737ccb80db86bb822ed010553325cb208d648c529b0685fe0bae7a351",
      "transactionType": "CALL",
      "contractName": null,
      "contractAddress": "0x53b5AB54f07F7ba8A11a4A2B42133742B5573A7c",
      "function": "setSumOfArrayContract(address)",
      "arguments": [
        "0xCA4E34E1aFAa5B8e9194d35eFcaD37cc6692e0F5"
      ],
      "transaction": {
        "type": "0x02",
        "from": "0x965b0e63e00e7805569ee3b428cf96330dfc57ef",
        "to": "0x53b5ab54f07f7ba8a11a4a2b42133742b5573a7c",
        "gas": "0xedb1",
        "value": "0x0",
        "data": "0x48efbd97000000000000000000000000ca4e34e1afaa5b8e9194d35efcad37cc6692e0f5",
        "nonce": "0x35f",
        "accessList": []
      },
      "additionalContracts": [],
      "isFixedGasLimit": false
    }
  ],
  "receipts": [
    {
      "transactionHash": "0xd1b1ef3538f2c27531615b4b816aac664cd9844dbab4cd9e7c84854374290c0e",
      "transactionIndex": "0x1",
      "blockHash": "0x53ca8cf1e71da8a1e533eaac8e25529896e9b8439aeb3aafa2572233680912ee",
      "blockNumber": "0x2bc5d6f",
      "from": "0x965B0E63e00E7805569ee3B428Cf96330DFc57EF",
      "to": null,
      "cumulativeGasUsed": "0x37f0b",
      "gasUsed": "0x23c65",
      "contractAddress": "0xCA4E34E1aFAa5B8e9194d35eFcaD37cc6692e0F5",
      "logs": [
        {
          "address": "0x0000000000000000000000000000000000001010",
          "topics": [
            "0x4dfe1bbbcf077ddc3e01291eea2d5c70c2b422b415d95645b9adcfd678cb1d63",
            "0x0000000000000000000000000000000000000000000000000000000000001010",
            "0x000000000000000000000000965b0e63e00e7805569ee3b428cf96330dfc57ef",
            "0x0000000000000000000000004ce0f825810371ea57fbcba98b2be98e730c10df"
          ],
          "data": "0x000000000000000000000000000000000000000000000000000f9e212e62dc000000000000000000000000000000000000000000000000005eac5c8caaec268000000000000000000000000000000000000000000000009924dc36d5b836e34e0000000000000000000000000000000000000000000000005e9cbe6b7c894a8000000000000000000000000000000000000000000000009924ebd4f6e699bf4e",
          "blockHash": "0x53ca8cf1e71da8a1e533eaac8e25529896e9b8439aeb3aafa2572233680912ee",
          "blockNumber": "0x2bc5d6f",
          "transactionHash": "0xd1b1ef3538f2c27531615b4b816aac664cd9844dbab4cd9e7c84854374290c0e",
          "transactionIndex": "0x1",
          "logIndex": "0x3",
          "removed": false
        }
      ],
      "status": "0x1",
      "logsBloom": "0x00000000000000000000000000000000000000000000000000000000000000000000000000000000000000000000000000008000000000000000000000000000000000000002000000000000000004900000000000000000000100000000000000000000000000000000000000000000000004000000000080000000000000000000000000000000000000000000000000000000000000000000000000000000200000000000000000000000000000000000000040000000000000000000004000000000000000000001000000000000000000000000000000100000001000000000000000000000000000000000000000000000000000000000000000100000",
      "type": "0x2",
      "effectiveGasPrice": "0x6fc23ac0f"
    },
    {
      "transactionHash": "0x3dde626737ccb80db86bb822ed010553325cb208d648c529b0685fe0bae7a351",
      "transactionIndex": "0x2",
      "blockHash": "0x53ca8cf1e71da8a1e533eaac8e25529896e9b8439aeb3aafa2572233680912ee",
      "blockNumber": "0x2bc5d6f",
      "from": "0x965B0E63e00E7805569ee3B428Cf96330DFc57EF",
      "to": "0x53b5AB54f07F7ba8A11a4A2B42133742B5573A7c",
      "cumulativeGasUsed": "0x42b21",
      "gasUsed": "0xac16",
      "contractAddress": null,
      "logs": [
        {
          "address": "0x0000000000000000000000000000000000001010",
          "topics": [
            "0x4dfe1bbbcf077ddc3e01291eea2d5c70c2b422b415d95645b9adcfd678cb1d63",
            "0x0000000000000000000000000000000000000000000000000000000000001010",
            "0x000000000000000000000000965b0e63e00e7805569ee3b428cf96330dfc57ef",
            "0x0000000000000000000000004ce0f825810371ea57fbcba98b2be98e730c10df"
          ],
          "data": "0x0000000000000000000000000000000000000000000000000004b201a2a0c8000000000000000000000000000000000000000000000000005e9cbe6b7c67c09500000000000000000000000000000000000000000000009924ebd4f6e699bf4e0000000000000000000000000000000000000000000000005e980c69d9c6f89500000000000000000000000000000000000000000000009924f086f8893a874e",
          "blockHash": "0x53ca8cf1e71da8a1e533eaac8e25529896e9b8439aeb3aafa2572233680912ee",
          "blockNumber": "0x2bc5d6f",
          "transactionHash": "0x3dde626737ccb80db86bb822ed010553325cb208d648c529b0685fe0bae7a351",
          "transactionIndex": "0x2",
          "logIndex": "0x4",
          "removed": false
        }
      ],
      "status": "0x1",
      "logsBloom": "0x00000000000000000000000000000000000000000000000000000000000000000000000000000000000000000000000000008000000000000000000000000000000000000002000000000000000004900000000000000000000100000000000000000000000000000000000000000000000004000000000080000000000000000000000000000000000000000000000000000000000000000000000000000000200000000000000000000000000000000000000040000000000000000000004000000000000000000001000000000000000000000000000000100000001000000000000000000000000000000000000000000000000000000000000000100000",
      "type": "0x2",
      "effectiveGasPrice": "0x6fc23ac0f"
    }
  ],
  "libraries": [],
  "pending": [],
  "returns": {},
  "timestamp": 1707896355,
  "chain": 80001,
  "multi": false,
  "commit": "a8d0b1f"
}