{
  "transactions": [
    {
      "hash": "0xd1b1ef3538f2c27531615b4b816aac664cd9844dbab4cd9e7c84854374290c0e",
      "transactionType": "CREATE",
      "contractName": "SumOfArray",
      "contractAddress": "0xCA4E34E1aFAa5B8e9194d35eFcaD37cc6692e0F5",
      "function": null,
      "arguments": null,
      "transaction": {
        "type": "0x02",
        "from": "0x965b0e63e00e7805569ee3b428cf96330dfc57ef",
        "gas": "0x2e7f5",
        "value": "0x0",
        "data": "0x608060405234801561001057600080fd5b506101b0806100206000396000f3fe608060405234801561001057600080fd5b506004361061002b5760003560e01c80630194db8e14610030575b600080fd5b61004361003e3660046100a6565b610055565b60405190815260200160405180910390f35b6000805b825181101561008a57825160018201918491811061007957610079610164565b602002602001015182019150610059565b50919050565b634e487b7160e01b600052604160045260246000fd5b600060208083850312156100b957600080fd5b823567ffffffffffffffff808211156100d157600080fd5b818501915085601f8301126100e557600080fd5b8135818111156100f7576100f7610090565b8060051b604051601f19603f8301168101818110858211171561011c5761011c610090565b60405291825284820192508381018501918883111561013a57600080fd5b938501935b828510156101585784358452938501939285019261013f565b98975050505050505050565b634e487b7160e01b600052603260045260246000fdfea2646970667358221220aeff8daedca7b37894cfb748ed36c449b2e27ad7a147f8eeb05cacbc95cc60f064736f6c63430008180033",
        "nonce": "0x35e",
        "accessList": []
      },
      "additionalContracts": [],
      "isFixedGasLimit": false
    },
    {
      "hash": "0x3dde626737ccb80db86bb822ed010553325cb208d648c529b0685fe0bae7a351",
      "transactionType": "CALL",
      "contractName": null,
      "contractAddress": "0x53b5AB54f07F7ba8A11a4A2B42133742B5573A7c",
      "function": "setSumOfArrayContract(address)",
      "arguments": [
        "0xCA4E34E1aFAa5B8e9194d35eFcaD37cc6692e0F5"
      ],
      "transaction": {
        "type": "0x02",
        "from": "0x965b0e63e00e7805569ee3b428cf96330dfc57ef",
        "to": "0x53b5ab54f07f7ba8a11a4a2b42133742b5573a7c",
        "gas": "0xedb1",
        "value": "0x0",
        "data": "0x48efbd97000000000000000000000000ca4e34e1afaa5b8e9194d35efcad37cc6692e0f5",
        "nonce": "0x35f",
        "accessList": []
      },
      "additionalContracts": [],
      "isFixedGasLimit": false
    }
  ],
  "receipts": [],
  "libraries": [],
  "pending": [
    "0xd1b1ef3538f2c27531615b4b816aac664cd9844dbab4cd9e7c84854374290c0e",
    "0x3dde626737ccb80db86bb822ed010553325cb208d648c529b0685fe0bae7a351"
  ],
  "returns": {},
  "timestamp": 1707896349,
  "chain": 80001,
  "multi": false,
  "commit": "a8d0b1f"
}