{
  "transactions": [
    {
      "hash": "0xeaa1147e5cb8a884e2d36eda2eb39ac0bea1bf8e8fc65bd495240db598741512",
      "transactionType": "CALL",
      "contractName": null,
      "contractAddress": "0x5EC4C34668692C6603f9027Eb61Ed80d5d0842DD",
      "function": "permit(address,address,uint256,uint256,uint8,bytes32,bytes32)",
      "arguments": [
        "0x965B0E63e00E7805569ee3B428Cf96330DFc57EF",
        "0x5EC4C34668692C6603f9027Eb61Ed80d5d0842DD",
        "20000000000000000000",
        "1707959980",
        "28",
        "0xbfb11e60eaeaed4cf1b2c663472fd1e6728f2baa5410280b9f8fa7427c4f11d4",
        "0x2be06a85769bb9170d48a5a3e1ca1029ae4ab29622818a4c2ba0e0deb7aa36d0"
      ],
      "transaction": {
        "type": "0x02",
        "from": "0x965b0e63e00e7805569ee3b428cf96330dfc57ef",
        "to": "0x5ec4c34668692c6603f9027eb61ed80d5d0842dd",
        "gas": "0x1a352",
        "value": "0x0",
        "data": "0xd505accf000000000000000000000000965b0e63e00e7805569ee3b428cf96330dfc57ef0000000000000000000000005ec4c34668692c6603f9027eb61ed80d5d0842dd000000000000000000000000000000000000000000000001158e460913d000000000000000000000000000000000000000000000000000000000000065cd66ac000000000000000000000000000000000000000000000000000000000000001cbfb11e60eaeaed4cf1b2c663472fd1e6728f2baa5410280b9f8fa7427c4f11d42be06a85769bb9170d48a5a3e1ca1029ae4ab29622818a4c2ba0e0deb7aa36d0",
        "nonce": "0x307",
        "accessList": []
      },
      "additionalContracts": [],
      "isFixedGasLimit": false
    }
  ],
  "receipts": [
    {
      "transactionHash": "0xeaa1147e5cb8a884e2d36eda2eb39ac0bea1bf8e8fc65bd495240db598741512",
      "transactionIndex": "0x1",
      "blockHash": "0x5e0ae8987d12de702af30b8553c4e0b8123e1d734c5b31c61e0e5ebf80da7dd9",
      "blockNumber": "0x2bc39d0",
      "from": "0x965B0E63e00E7805569ee3B428Cf96330DFc57EF",
      "to": "0x5EC4C34668692C6603f9027Eb61Ed80d5d0842DD",
      "cumulativeGasUsed": "0x1b12a",
      "gasUsed": "0x12f95",
      "contractAddress": null,
      "logs": [
        {
          "address": "0x5EC4C34668692C6603f9027Eb61Ed80d5d0842DD",
          "topics": [
            "0x8c5be1e5ebec7d5bd14f71427d1e84f3dd0314c0f7b2291e5b200ac8c7c3b925",
            "0x000000000000000000000000965b0e63e00e7805569ee3b428cf96330dfc57ef",
            "0x0000000000000000000000005ec4c34668692c6603f9027eb61ed80d5d0842dd"
          ],
          "data": "0x000000000000000000000000000000000000000000000001158e460913d00000",
          "blockHash": "0x5e0ae8987d12de702af30b8553c4e0b8123e1d734c5b31c61e0e5ebf80da7dd9",
          "blockNumber": "0x2bc39d0",
          "transactionHash": "0xeaa1147e5cb8a884e2d36eda2eb39ac0bea1bf8e8fc65bd495240db598741512",
          "transactionIndex": "0x1",
          "logIndex": "0x2",
          "removed": false
        },
        {
          "address": "0x0000000000000000000000000000000000001010",
          "topics": [
            "0x4dfe1bbbcf077ddc3e01291eea2d5c70c2b422b415d95645b9adcfd678cb1d63",
            "0x0000000000000000000000000000000000000000000000000000000000001010",
            "0x000000000000000000000000965b0e63e00e7805569ee3b428cf96330dfc57ef",
            "0x000000000000000000000000c26880a0af2ea0c7e8130e6ec47af756465452e8"
          ],
          "data": "0x0000000000000000000000000000000000000000000000000008f5cded2c217900000000000000000000000000000000000000000000000063942d8cbe56a0be00000000000000000000000000000000000000000000239a221430a29d534651000000000000000000000000000000000000000000000000638b37bed12a7f4500000000000000000000000000000000000000000000239a221d26708a7f67ca",
          "blockHash": "0x5e0ae8987d12de702af30b8553c4e0b8123e1d734c5b31c61e0e5ebf80da7dd9",
          "blockNumber": "0x2bc39d0",
          "transactionHash": "0xeaa1147e5cb8a884e2d36eda2eb39ac0bea1bf8e8fc65bd495240db598741512",
          "transactionIndex": "0x1",
          "logIndex": "0x3",
          "removed": false
        }
      ],
      "status": "0x1",
      "logsBloom": "0x00000000000000020000000000000000000000000100000000000000000000000000000000000000020000000000000000008000000000000200000000200000000000000002000000000000000004900000000000000000080100000000000000000000000000000000000000000000000000000000000080000000000000000000000000000000080000000000000000000000000000000000000000000000220000000000000020000000000000000001000000000000000000000000004000000000000000000001000000000010000000000000000000100000000000000010000000000000000000000000000000000000000000000000000000100000",
      "type": "0x2",
      "effectiveGasPrice": "0x78e48c164"
    }
  ],
  "libraries": [],
  "pending": [],
  "returns": {},
  "timestamp": 1707873606,
  "chain": 80001,
  "multi": false,
  "commit": "53ccce6"
}