{
  "transactions": [
    {
      "hash": "0x006c24ad913e677f7eed3bf7c3befa1b13c2947e7a4e7bb2f781fb2eee5414f5",
      "transactionType": "CREATE",
      "contractName": "MyDivisionCalculator",
      "contractAddress": "0xED5160554F93138c7f537bC1C99BFa475c97E622",
      "function": null,
      "arguments": null,
      "transaction": {
        "type": "0x02",
        "from": "0x965b0e63e00e7805569ee3b428cf96330dfc57ef",
        "gas": "0x1fafc",
        "value": "0x0",
        "data": "0x608060405234801561001057600080fd5b5060d78061001f6000396000f3fe6080604052348015600f57600080fd5b506004361060285760003560e01c8063f88e9fbf14602d575b600080fd5b603c6038366004605f565b604e565b60405190815260200160405180910390f35b6000605882846080565b9392505050565b60008060408385031215607157600080fd5b50508035926020909101359150565b600082609c57634e487b7160e01b600052601260045260246000fd5b50049056fea26469706673582212200aafe969af3370706ac8786e40ab6d794bde064c14262e43a569bdb59a72915464736f6c63430008180033",
        "nonce": "0x2d8",
        "accessList": []
      },
      "additionalContracts": [],
      "isFixedGasLimit": false
    },
    {
      "hash": "0x85148108ab58f4e9cab4f2120952028d803cb268ee17aeae918e36b6ee6155b5",
      "transactionType": "CALL",
      "contractName": null,
      "contractAddress": "0x767b7850dfAd1Aa64D6F806f5a956b837a491e35",
      "function": "setDivisionCalculator(address)",
      "arguments": [
        "0xED5160554F93138c7f537bC1C99BFa475c97E622"
      ],
      "transaction": {
        "type": "0x02",
        "from": "0x965b0e63e00e7805569ee3b428cf96330dfc57ef",
        "to": "0x767b7850dfad1aa64d6f806f5a956b837a491e35",
        "gas": "0xed93",
        "value": "0x0",
        "data": "0x30980f17000000000000000000000000ed5160554f93138c7f537bc1c99bfa475c97e622",
        "nonce": "0x2d9",
        "accessList": []
      },
      "additionalContracts": [],
      "isFixedGasLimit": false
    }
  ],
  "receipts": [
    {
      "transactionHash": "0x006c24ad913e677f7eed3bf7c3befa1b13c2947e7a4e7bb2f781fb2eee5414f5",
      "transactionIndex": "0x1",
      "blockHash": "0xd50a790f27a0f915c01245aaa63e0d3f31407496fb224214711637b3640628e3",
      "blockNumber": "0x2bbbb5b",
      "from": "0x965B0E63e00E7805569ee3B428Cf96330DFc57EF",
      "to": null,
      "cumulativeGasUsed": "0x2fc5b",
      "gasUsed": "0x1860d",
      "contractAddress": "0xED5160554F93138c7f537bC1C99BFa475c97E622",
      "logs": [
        {
          "address": "0x0000000000000000000000000000000000001010",
          "topics": [
            "0x4dfe1bbbcf077ddc3e01291eea2d5c70c2b422b415d95645b9adcfd678cb1d63",
            "0x0000000000000000000000000000000000000000000000000000000000001010",
            "0x000000000000000000000000965b0e63e00e7805569ee3b428cf96330dfc57ef",
            "0x000000000000000000000000cfef2a3dc244ef7d0fb93c45e762d671445c4569"
          ],
          "data": "0x000000000000000000000000000000000000000000000000000aa47925d7bc000000000000000000000000000000000000000000000000005778ac9b88df2c5d00000000000000000000000000000000000000000000017713c82a764f60d12e000000000000000000000000000000000000000000000000576e08226307705d00000000000000000000000000000000000000000000017713d2ceef75388d2e",
          "blockHash": "0xd50a790f27a0f915c01245aaa63e0d3f31407496fb224214711637b3640628e3",
          "blockNumber": "0x2bbbb5b",
          "transactionHash": "0x006c24ad913e677f7eed3bf7c3befa1b13c2947e7a4e7bb2f781fb2eee5414f5",
          "transactionIndex": "0x1",
          "logIndex": "0x2",
          "removed": false
        }
      ],
      "status": "0x1",
      "logsBloom": "0x00000000010000000000000000000000000000000000000000000000000000000000000000000000000000000000000000008000000000000000000000000000000000000002000000000000000004900000000000000000020100000000000000000000000000000000000000000000000000000000000080000000000000000000000000000000000000000000000000000000000000000000000000000000200000000000000000000000000000000000000000000000000000000000004000000000000000000001000000000000000000000000000000100000000000000000000000000000000000000000000000000000000000000000040000100000",
      "type": "0x2",
      "effectiveGasPrice": "0x6fc23ac10"
    },
    {
      "transactionHash": "0x85148108ab58f4e9cab4f2120952028d803cb268ee17aeae918e36b6ee6155b5",
      "transactionIndex": "0x3",
      "blockHash": "0xd50a790f27a0f915c01245aaa63e0d3f31407496fb224214711637b3640628e3",
      "blockNumber": "0x2bbbb5b",
      "from": "0x965B0E63e00E7805569ee3B428Cf96330DFc57EF",
      "to": "0x767b7850dfAd1Aa64D6F806f5a956b837a491e35",
      "cumulativeGasUsed": "0x4e0a9",
      "gasUsed": "0xac00",
      "contractAddress": null,
      "logs": [
        {
          "address": "0x0000000000000000000000000000000000001010",
          "topics": [
            "0x4dfe1bbbcf077ddc3e01291eea2d5c70c2b422b415d95645b9adcfd678cb1d63",
            "0x0000000000000000000000000000000000000000000000000000000000001010",
            "0x000000000000000000000000965b0e63e00e7805569ee3b428cf96330dfc57ef",
            "0x000000000000000000000000cfef2a3dc244ef7d0fb93c45e762d671445c4569"
          ],
          "data": "0x0000000000000000000000000000000000000000000000000004b167f7900000000000000000000000000000000000000000000000000000576e082262ef0f8d00000000000000000000000000000000000000000000017713db545bc1b6f52e000000000000000000000000000000000000000000000000576956ba6b5f0f8d00000000000000000000000000000000000000000000017713e005c3b946f52e",
          "blockHash": "0xd50a790f27a0f915c01245aaa63e0d3f31407496fb224214711637b3640628e3",
          "blockNumber": "0x2bbbb5b",
          "transactionHash": "0x85148108ab58f4e9cab4f2120952028d803cb268ee17aeae918e36b6ee6155b5",
          "transactionIndex": "0x3",
          "logIndex": "0x5",
          "removed": false
        }
      ],
      "status": "0x1",
      "logsBloom": "0x00000000010000000000000000000000000000000000000000000000000000000000000000000000000000000000000000008000000000000000000000000000000000000002000000000000000004900000000000000000020100000000000000000000000000000000000000000000000000000000000080000000000000000000000000000000000000000000000000000000000000000000000000000000200000000000000000000000000000000000000000000000000000000000004000000000000000000001000000000000000000000000000000100000000000000000000000000000000000000000000000000000000000000000040000100000",
      "type": "0x2",
      "effectiveGasPrice": "0x6fc23ac10"
    }
  ],
  "libraries": [],
  "pending": [],
  "returns": {},
  "timestamp": 1707796117,
  "chain": 80001,
  "multi": false,
  "commit": "050f9e8"
}