{
  "transactions": [
    {
      "hash": "0x5630651dffb5ae3546967e103a204701a1e22120060fc82926f49e38532dfb74",
      "transactionType": "CALL",
      "contractName": null,
      "contractAddress": "0xe996557C3A4D3586786359ccCaBe9f76842D1783",
      "function": "enrollRemoteRouter(uint32,bytes32)",
      "arguments": [
        "80001",
        "0x0000000000000000000000003716b00671b801f34bb4c99aba5889a13d65c42e"
      ],
      "transaction": {
        "type": "0x02",
        "from": "0x965b0e63e00e7805569ee3b428cf96330dfc57ef",
        "to": "0xe996557c3a4d3586786359cccabe9f76842d1783",
        "gas": "0x1e95f",
        "value": "0x0",
        "data": "0xb49c53a700000000000000000000000000000000000000000000000000000000000138810000000000000000000000003716b00671b801f34bb4c99aba5889a13d65c42e",
        "nonce": "0x10f",
        "accessList": []
      },
      "additionalContracts": [],
      "isFixedGasLimit": false
    },
    {
      "hash": "0xe62ea0bd4709caeab52f485bb4440f2bce601212cbadbf00daadb86b91c5ccb8",
      "transactionType": "CALL",
      "contractName": null,
      "contractAddress": "0xe996557C3A4D3586786359ccCaBe9f76842D1783",
      "function": "sendNft(uint32,address,string)",
      "arguments": [
        "80001",
        "0x965B0E63e00E7805569ee3B428Cf96330DFc57EF",
        "\"https://green-main-hoverfly-930.mypinata.cloud/ipfs/QmXbFt5tDifdSgPmhFrwD56iNsJqbxCZ8dSdv4qzp49PNs\""
      ],
      "transaction": {
        "type": "0x02",
        "from": "0x965b0e63e00e7805569ee3b428cf96330dfc57ef",
        "to": "0xe996557c3a4d3586786359cccabe9f76842d1783",
        "gas": "0x3bf6a",
        "value": "0x1",
        "data": "0x01867c3a0000000000000000000000000000000000000000000000000000000000013881000000000000000000000000965b0e63e00e7805569ee3b428cf96330dfc57ef0000000000000000000000000000000000000000000000000000000000000060000000000000000000000000000000000000000000000000000000000000006268747470733a2f2f677265656e2d6d61696e2d686f766572666c792d3933302e6d7970696e6174612e636c6f75642f697066732f516d586246743574446966645367506d68467277443536694e734a716278435a386453647634717a703439504e73000000000000000000000000000000000000000000000000000000000000",
        "nonce": "0x110",
        "accessList": []
      },
      "additionalContracts": [],
      "isFixedGasLimit": false
    }
  ],
  "receipts": [
    {
      "transactionHash": "0x5630651dffb5ae3546967e103a204701a1e22120060fc82926f49e38532dfb74",
      "transactionIndex": "0x2b",
      "blockHash": "0x2f13e3d87302c0ef756e66e6b2e2be44fde09a2bd5831614af1cbd25beb6008e",
      "blockNumber": "0x505c3b",
      "from": "0x965B0E63e00E7805569ee3B428Cf96330DFc57EF",
      "to": "0xe996557C3A4D3586786359ccCaBe9f76842D1783",
      "cumulativeGasUsed": "0x5219d7",
      "gasUsed": "0x1624d",
      "contractAddress": null,
      "logs": [],
      "status": "0x1",
      "logsBloom": "0x00000000000000000000000000000000000000000000000000000000000000000000000000000000000000000000000000000000000000000000000000000000000000000000000000000000000000000000000000000000000000000000000000000000000000000000000000000000000000000000000000000000000000000000000000000000000000000000000000000000000000000000000000000000000000000000000000000000000000000000000000000000000000000000000000000000000000000000000000000000000000000000000000000000000000000000000000000000000000000000000000000000000000000000000000000000",
      "type": "0x2",
      "effectiveGasPrice": "0x512e872ae"
    },
    {
      "transactionHash": "0xe62ea0bd4709caeab52f485bb4440f2bce601212cbadbf00daadb86b91c5ccb8",
      "transactionIndex": "0x32",
      "blockHash": "0x4568cafacb804b94024562a66fae7ae2c8be554cf7b60518d5a5a325bd74bb95",
      "blockNumber": "0x505c3d",
      "from": "0x965B0E63e00E7805569ee3B428Cf96330DFc57EF",
      "to": "0xe996557C3A4D3586786359ccCaBe9f76842D1783",
      "cumulativeGasUsed": "0x1a49661",
      "gasUsed": "0x29003",
      "contractAddress": null,
      "logs": [
        {
          "address": "0xfFAEF09B3cd11D9b20d1a19bECca54EEC2884766",
          "topics": [
            "0x769f711d20c679153d382254f59892613b58a97cc876b249134ac25c80f9c814",
            "0x000000000000000000000000e996557c3a4d3586786359cccabe9f76842d1783",
            "0x0000000000000000000000000000000000000000000000000000000000013881",
            "0x0000000000000000000000003716b00671b801f34bb4c99aba5889a13d65c42e"
          ],
          "data": "0x0000000000000000000000000000000000000000000000000000000000000020000000000000000000000000000000000000000000000000000000000000012d030000150000aa36a7000000000000000000000000e996557c3a4d3586786359cccabe9f76842d1783000138810000000000000000000000003716b00671b801f34bb4c99aba5889a13d65c42e000000000000000000000000965b0e63e00e7805569ee3b428cf96330dfc57ef0000000000000000000000000000000000000000000000000000000000000040000000000000000000000000000000000000000000000000000000000000006268747470733a2f2f677265656e2d6d61696e2d686f766572666c792d3933302e6d7970696e6174612e636c6f75642f697066732f516d586246743574446966645367506d68467277443536694e734a716278435a386453647634717a703439504e7300000000000000000000000000000000000000000000000000000000000000000000000000000000000000000000000000",
          "blockHash": "0x4568cafacb804b94024562a66fae7ae2c8be554cf7b60518d5a5a325bd74bb95",
          "blockNumber": "0x505c3d",
          "transactionHash": "0xe62ea0bd4709caeab52f485bb4440f2bce601212cbadbf00daadb86b91c5ccb8",
          "transactionIndex": "0x32",
          "logIndex": "0x1b9",
          "removed": false
        },
        {
          "address": "0xfFAEF09B3cd11D9b20d1a19bECca54EEC2884766",
          "topics": [
            "0x788dbc1b7152732178210e7f4d9d010ef016f9eafbe66786bd7169f56e0c353a",
            "0x3dba52dbe1878c2bb709b264e4dfc385af7f8926e5f214ccfe84cdf01feec3ac"
          ],
          "data": "0x",
          "blockHash": "0x4568cafacb804b94024562a66fae7ae2c8be554cf7b60518d5a5a325bd74bb95",
          "blockNumber": "0x505c3d",
          "transactionHash": "0xe62ea0bd4709caeab52f485bb4440f2bce601212cbadbf00daadb86b91c5ccb8",
          "transactionIndex": "0x32",
          "logIndex": "0x1ba",
          "removed": false
        },
        {
          "address": "0x4917a9746A7B6E0A57159cCb7F5a6744247f2d0d",
          "topics": [
            "0x253a3a04cab70d47c1504809242d9350cd81627b4f1d50753e159cf8cd76ed33"
          ],
          "data": "0x3dba52dbe1878c2bb709b264e4dfc385af7f8926e5f214ccfe84cdf01feec3ac00000000000000000000000000000000000000000000000000000000000014d4",
          "blockHash": "0x4568cafacb804b94024562a66fae7ae2c8be554cf7b60518d5a5a325bd74bb95",
          "blockNumber": "0x505c3d",
          "transactionHash": "0xe62ea0bd4709caeab52f485bb4440f2bce601212cbadbf00daadb86b91c5ccb8",
          "transactionIndex": "0x32",
          "logIndex": "0x1bb",
          "removed": false
        },
        {
          "address": "0x6f2756380FD49228ae25Aa7F2817993cB74Ecc56",
          "topics": [
            "0x65695c3748edae85a24cc2c60b299b31f463050bc259150d2e5802ec8d11720a",
            "0x3dba52dbe1878c2bb709b264e4dfc385af7f8926e5f214ccfe84cdf01feec3ac",
            "0x0000000000000000000000000000000000000000000000000000000000013881"
          ],
          "data": "0x00000000000000000000000000000000000000000000000000000000000333480000000000000000000000000000000000000000000000000000000000000000",
          "blockHash": "0x4568cafacb804b94024562a66fae7ae2c8be554cf7b60518d5a5a325bd74bb95",
          "blockNumber": "0x505c3d",
          "transactionHash": "0xe62ea0bd4709caeab52f485bb4440f2bce601212cbadbf00daadb86b91c5ccb8",
          "transactionIndex": "0x32",
          "logIndex": "0x1bc",
          "removed": false
        }
      ],
      "status": "0x1",
      "logsBloom": "0x000000000000008088000000000000000000000800008001000000000020000000000000000000000000000000000800800000000000000000000000000008000000000200800088000000000000000000008800000000000000000000000000000010000000000000000200000000000000000000000020000000000000000000000000000000000000840000000080000000000000000000000000000000000000000000000000000000000000000002000000000000000000000000000000000010000000000000000000000000000000000a0000000010000000000000000020400000000200000000000000000000000400004000000000000000000400",
      "type": "0x2",
      "effectiveGasPrice": "0x467ef55c7"
    }
  ],
  "libraries": [],
  "pending": [],
  "returns": {},
  "timestamp": 1707664933,
  "chain": 11155111,
  "multi": false,
  "commit": "6752181"
}