{
  "transactions": [
    {
      "hash": "0x5630651dffb5ae3546967e103a204701a1e22120060fc82926f49e38532dfb74",
      "transactionType": "CALL",
      "contractName": null,
      "contractAddress": "0xe996557C3A4D3586786359ccCaBe9f76842D1783",
      "function": "enrollRemoteRouter(uint32,bytes32)",
      "arguments": [
        "80001",
        "0x0000000000000000000000003716b00671b801f34bb4c99aba5889a13d65c42e"
      ],
      "transaction": {
        "type": "0x02",
        "from": "0x965b0e63e00e7805569ee3b428cf96330dfc57ef",
        "to": "0xe996557c3a4d3586786359cccabe9f76842d1783",
        "gas": "0x1e95f",
        "value": "0x0",
        "data": "0xb49c53a700000000000000000000000000000000000000000000000000000000000138810000000000000000000000003716b00671b801f34bb4c99aba5889a13d65c42e",
        "nonce": "0x10f",
        "accessList": []
      },
      "additionalContracts": [],
      "isFixedGasLimit": false
    },
    {
      "hash": "0xe62ea0bd4709caeab52f485bb4440f2bce601212cbadbf00daadb86b91c5ccb8",
      "transactionType": "CALL",
      "contractName": null,
      "contractAddress": "0xe996557C3A4D3586786359ccCaBe9f76842D1783",
      "function": "sendNft(uint32,address,string)",
      "arguments": [
        "80001",
        "0x965B0E63e00E7805569ee3B428Cf96330DFc57EF",
        "\"https://green-main-hoverfly-930.mypinata.cloud/ipfs/QmXbFt5tDifdSgPmhFrwD56iNsJqbxCZ8dSdv4qzp49PNs\""
      ],
      "transaction": {
        "type": "0x02",
        "from": "0x965b0e63e00e7805569ee3b428cf96330dfc57ef",
        "to": "0xe996557c3a4d3586786359cccabe9f76842d1783",
        "gas": "0x3bf6a",
        "value": "0x1",
        "data": "0x01867c3a0000000000000000000000000000000000000000000000000000000000013881000000000000000000000000965b0e63e00e7805569ee3b428cf96330dfc57ef0000000000000000000000000000000000000000000000000000000000000060000000000000000000000000000000000000000000000000000000000000006268747470733a2f2f677265656e2d6d61696e2d686f766572666c792d3933302e6d7970696e6174612e636c6f75642f697066732f516d586246743574446966645367506d68467277443536694e734a716278435a386453647634717a703439504e73000000000000000000000000000000000000000000000000000000000000",
        "nonce": "0x110",
        "accessList": []
      },
      "additionalContracts": [],
      "isFixedGasLimit": false
    }
  ],
  "receipts": [],
  "libraries": [],
  "pending": [
    "0x5630651dffb5ae3546967e103a204701a1e22120060fc82926f49e38532dfb74",
    "0xe62ea0bd4709caeab52f485bb4440f2bce601212cbadbf00daadb86b91c5ccb8"
  ],
  "returns": {},
  "timestamp": 1707664900,
  "chain": 11155111,
  "multi": false,
  "commit": "6752181"
}