{
  "transactions": [
    {
      "hash": "0x14055732fde4015e092b3576d61b1c4c989257511bcce37d3f1790f6d861af34",
      "transactionType": "CALL",
      "contractName": null,
      "contractAddress": "0xE06F728cB5fD5a45BA12a7528e5f90d4641B85EF",
      "function": "setDomainToNftContract(uint32,address)",
      "arguments": [
        "80001",
        "0x4a1A6865A5bb6C9ed988052e6f004c81c9D424Eb"
      ],
      "transaction": {
        "type": "0x02",
        "from": "0x965b0e63e00e7805569ee3b428cf96330dfc57ef",
        "to": "0xe06f728cb5fd5a45ba12a7528e5f90d4641b85ef",
        "gas": "0x10922",
        "value": "0x0",
        "data": "0x364b69de00000000000000000000000000000000000000000000000000000000000138810000000000000000000000004a1a6865a5bb6c9ed988052e6f004c81c9d424eb",
        "nonce": "0x10b",
        "accessList": []
      },
      "additionalContracts": [],
      "isFixedGasLimit": false
    },
    {
      "hash": "0xc396604e34e547feb90d27e58f5c5cd08f877c1f83246c51fcd978b195f4be1e",
      "transactionType": "CALL",
      "contractName": null,
      "contractAddress": "0xE06F728cB5fD5a45BA12a7528e5f90d4641B85EF",
      "function": "sendNft(uint32,address,string)",
      "arguments": [
        "80001",
        "0x965B0E63e00E7805569ee3B428Cf96330DFc57EF",
        "\"https://green-main-hoverfly-930.mypinata.cloud/ipfs/QmXbFt5tDifdSgPmhFrwD56iNsJqbxCZ8dSdv4qzp49PNs\""
      ],
      "transaction": {
        "type": "0x02",
        "from": "0x965b0e63e00e7805569ee3b428cf96330dfc57ef",
        "to": "0xe06f728cb5fd5a45ba12a7528e5f90d4641b85ef",
        "gas": "0x428d7",
        "value": "0x1",
        "data": "0x01867c3a0000000000000000000000000000000000000000000000000000000000013881000000000000000000000000965b0e63e00e7805569ee3b428cf96330dfc57ef0000000000000000000000000000000000000000000000000000000000000060000000000000000000000000000000000000000000000000000000000000006268747470733a2f2f677265656e2d6d61696e2d686f766572666c792d3933302e6d7970696e6174612e636c6f75642f697066732f516d586246743574446966645367506d68467277443536694e734a716278435a386453647634717a703439504e73000000000000000000000000000000000000000000000000000000000000",
        "nonce": "0x10c",
        "accessList": []
      },
      "additionalContracts": [],
      "isFixedGasLimit": false
    }
  ],
  "receipts": [
    {
      "transactionHash": "0x14055732fde4015e092b3576d61b1c4c989257511bcce37d3f1790f6d861af34",
      "transactionIndex": "0x16",
      "blockHash": "0xb9224e6e6a34f4c35ed5bc5d3af95f60eabb88dbc0aabdff845bd00b48a75db2",
      "blockNumber": "0x50211a",
      "from": "0x965B0E63e00E7805569ee3B428Cf96330DFc57EF",
      "to": "0xE06F728cB5fD5a45BA12a7528e5f90d4641B85EF",
      "cumulativeGasUsed": "0xe90b7",
      "gasUsed": "0xb54a",
      "contractAddress": null,
      "logs": [],
      "status": "0x1",
      "logsBloom": "0x00000000000000000000000000000000000000000000000000000000000000000000000000000000000000000000000000000000000000000000000000000000000000000000000000000000000000000000000000000000000000000000000000000000000000000000000000000000000000000000000000000000000000000000000000000000000000000000000000000000000000000000000000000000000000000000000000000000000000000000000000000000000000000000000000000000000000000000000000000000000000000000000000000000000000000000000000000000000000000000000000000000000000000000000000000000",
      "type": "0x2",
      "effectiveGasPrice": "0x20cf4cfa2"
    },
    {
      "transactionHash": "0xc396604e34e547feb90d27e58f5c5cd08f877c1f83246c51fcd978b195f4be1e",
      "transactionIndex": "0x17",
      "blockHash": "0xb9224e6e6a34f4c35ed5bc5d3af95f60eabb88dbc0aabdff845bd00b48a75db2",
      "blockNumber": "0x50211a",
      "from": "0x965B0E63e00E7805569ee3B428Cf96330DFc57EF",
      "to": "0xE06F728cB5fD5a45BA12a7528e5f90d4641B85EF",
      "cumulativeGasUsed": "0x1193a5",
      "gasUsed": "0x302ee",
      "contractAddress": null,
      "logs": [
        {
          "address": "0xfFAEF09B3cd11D9b20d1a19bECca54EEC2884766",
          "topics": [
            "0x769f711d20c679153d382254f59892613b58a97cc876b249134ac25c80f9c814",
            "0x000000000000000000000000e06f728cb5fd5a45ba12a7528e5f90d4641b85ef",
            "0x0000000000000000000000000000000000000000000000000000000000013881",
            "0x0000000000000000000000004a1a6865a5bb6c9ed988052e6f004c81c9d424eb"
          ],
          "data": "0x0000000000000000000000000000000000000000000000000000000000000020000000000000000000000000000000000000000000000000000000000000012d03000014da00aa36a7000000000000000000000000e06f728cb5fd5a45ba12a7528e5f90d4641b85ef000138810000000000000000000000004a1a6865a5bb6c9ed988052e6f004c81c9d424eb000000000000000000000000965b0e63e00e7805569ee3b428cf96330dfc57ef0000000000000000000000000000000000000000000000000000000000000040000000000000000000000000000000000000000000000000000000000000006268747470733a2f2f677265656e2d6d61696e2d686f766572666c792d3933302e6d7970696e6174612e636c6f75642f697066732f516d586246743574446966645367506d68467277443536694e734a716278435a386453647634717a703439504e7300000000000000000000000000000000000000000000000000000000000000000000000000000000000000000000000000",
          "blockHash": "0xb9224e6e6a34f4c35ed5bc5d3af95f60eabb88dbc0aabdff845bd00b48a75db2",
          "blockNumber": "0x50211a",
          "transactionHash": "0xc396604e34e547feb90d27e58f5c5cd08f877c1f83246c51fcd978b195f4be1e",
          "transactionIndex": "0x17",
          "logIndex": "0xf",
          "removed": false
        },
        {
          "address": "0xfFAEF09B3cd11D9b20d1a19bECca54EEC2884766",
          "topics": [
            "0x788dbc1b7152732178210e7f4d9d010ef016f9eafbe66786bd7169f56e0c353a",
            "0x95cda4dc1307ad3e9b6a886cc76162a0a79e89bca8543ae0df3537cd15b1b903"
          ],
          "data": "0x",
          "blockHash": "0xb9224e6e6a34f4c35ed5bc5d3af95f60eabb88dbc0aabdff845bd00b48a75db2",
          "blockNumber": "0x50211a",
          "transactionHash": "0xc396604e34e547feb90d27e58f5c5cd08f877c1f83246c51fcd978b195f4be1e",
          "transactionIndex": "0x17",
          "logIndex": "0x10",
          "removed": false
        },
        {
          "address": "0x4917a9746A7B6E0A57159cCb7F5a6744247f2d0d",
          "topics": [
            "0x253a3a04cab70d47c1504809242d9350cd81627b4f1d50753e159cf8cd76ed33"
          ],
          "data": "0x95cda4dc1307ad3e9b6a886cc76162a0a79e89bca8543ae0df3537cd15b1b90300000000000000000000000000000000000000000000000000000000000014ae",
          "blockHash": "0xb9224e6e6a34f4c35ed5bc5d3af95f60eabb88dbc0aabdff845bd00b48a75db2",
          "blockNumber": "0x50211a",
          "transactionHash": "0xc396604e34e547feb90d27e58f5c5cd08f877c1f83246c51fcd978b195f4be1e",
          "transactionIndex": "0x17",
          "logIndex": "0x11",
          "removed": false
        },
        {
          "address": "0x6f2756380FD49228ae25Aa7F2817993cB74Ecc56",
          "topics": [
            "0x65695c3748edae85a24cc2c60b299b31f463050bc259150d2e5802ec8d11720a",
            "0x95cda4dc1307ad3e9b6a886cc76162a0a79e89bca8543ae0df3537cd15b1b903",
            "0x0000000000000000000000000000000000000000000000000000000000013881"
          ],
          "data": "0x00000000000000000000000000000000000000000000000000000000000333480000000000000000000000000000000000000000000000000000000000000000",
          "blockHash": "0xb9224e6e6a34f4c35ed5bc5d3af95f60eabb88dbc0aabdff845bd00b48a75db2",
          "blockNumber": "0x50211a",
          "transactionHash": "0xc396604e34e547feb90d27e58f5c5cd08f877c1f83246c51fcd978b195f4be1e",
          "transactionIndex": "0x17",
          "logIndex": "0x12",
          "removed": false
        }
      ],
      "status": "0x1",
      "logsBloom": "0x00000000000000808000000000000000000000080000800000000000002000000000000000000000000000000000080080040000000000000000000000080800000000000000008000000000000000000000880000000000020000000000000000001000002000000000020000000000000000000000002000000000000000000000000000000000000000000000088000000000000000000000000000000000000000000000000000000000040000000200000000000000001000000000000000001000000000000000000000040000000000080000000010000000000000000020400000000000000000000000000000000400004000000000000000000400",
      "type": "0x2",
      "effectiveGasPrice": "0x20cf4cfa2"
    }
  ],
  "libraries": [],
  "pending": [],
  "returns": {},
  "timestamp": 1707476545,
  "chain": 11155111,
  "multi": false,
  "commit": "dcbfd09"
}