{
  "transactions": [
    {
      "hash": "0x51075ddb1c6cc8f1f114f2e37c36580a0cf1e3b3df664054ac7f4920178ac41f",
      "transactionType": "CALL",
      "contractName": null,
      "contractAddress": "0x1DD04d404eb496E57fA50de2E70F38709F03E7A2",
      "function": "setTrustedRemoteAddress(uint16,bytes)",
      "arguments": [
        "10161",
        "0xb004690a7125a11843c44a94a17dd7a24c7325e8"
      ],
      "transaction": {
        "type": "0x02",
        "from": "0x965b0e63e00e7805569ee3b428cf96330dfc57ef",
        "to": "0x1dd04d404eb496e57fa50de2e70f38709f03e7a2",
        "gas": "0x1fa66",
        "value": "0x0",
        "data": "0xa6c3d16500000000000000000000000000000000000000000000000000000000000027b100000000000000000000000000000000000000000000000000000000000000400000000000000000000000000000000000000000000000000000000000000014b004690a7125a11843c44a94a17dd7a24c7325e8000000000000000000000000",
        "nonce": "0x2b8",
        "accessList": []
      },
      "additionalContracts": [],
      "isFixedGasLimit": false
    },
    {
      "hash": "0xfebff0acebd49413ba9bc8e93d71779d325c8a9a1769d8c9f6a3c5040e45401f",
      "transactionType": "CALL",
      "contractName": null,
      "contractAddress": null,
      "function": null,
      "arguments": null,
      "transaction": {
        "type": "0x02",
        "from": "0x965b0e63e00e7805569ee3b428cf96330dfc57ef",
        "to": "0x1dd04d404eb496e57fa50de2e70f38709f03e7a2",
        "gas": "0x7199",
        "value": "0x5af3107a4000",
        "data": "0x",
        "nonce": "0x2b9",
        "accessList": []
      },
      "additionalContracts": [],
      "isFixedGasLimit": false
    }
  ],
  "receipts": [],
  "libraries": [],
  "pending": [
    "0x51075ddb1c6cc8f1f114f2e37c36580a0cf1e3b3df664054ac7f4920178ac41f",
    "0xfebff0acebd49413ba9bc8e93d71779d325c8a9a1769d8c9f6a3c5040e45401f"
  ],
  "returns": {},
  "timestamp": 1707304480,
  "chain": 80001,
  "multi": false,
  "commit": "39df2a0"
}