{
  "transactions": [
    {
      "hash": "0xfda09238bc2ea5f39fc4274cfe47df2feff1cf446ecb6ac6db9f933e3079ac9c",
      "transactionType": "CALL",
      "contractName": null,
      "contractAddress": "0xe9b53942eadEeE83EB998554C042955B248bb30A",
      "function": "send(string)",
      "arguments": [
        "\"Hello World from Sepolia V2\""
      ],
      "transaction": {
        "type": "0x02",
        "from": "0x965b0e63e00e7805569ee3b428cf96330dfc57ef",
        "to": "0xe9b53942eadeee83eb998554c042955b248bb30a",
        "gas": "0x4af8a",
        "value": "0x40e76c37b8b",
        "data": "0x66792ba10000000000000000000000000000000000000000000000000000000000000020000000000000000000000000000000000000000000000000000000000000001b48656c6c6f20576f726c642066726f6d205365706f6c69612056320000000000",
        "nonce": "0x100",
        "accessList": []
      },
      "additionalContracts": [],
      "isFixedGasLimit": false
    }
  ],
  "receipts": [
    {
      "transactionHash": "0xfda09238bc2ea5f39fc4274cfe47df2feff1cf446ecb6ac6db9f933e3079ac9c",
      "transactionIndex": "0x6e",
      "blockHash": "0xc510b36eb790fc5cbdc13f3d7b2d85633bed7f8839dd8fbe3ee098d473b7d00b",
      "blockNumber": "0x4ffe95",
      "from": "0x965B0E63e00E7805569ee3B428Cf96330DFc57EF",
      "to": "0xe9b53942eadEeE83EB998554C042955B248bb30A",
      "cumulativeGasUsed": "0xa1f24b",
      "gasUsed": "0x33433",
      "contractAddress": null,
      "logs": [
        {
          "address": "0x6Ac7bdc07A0583A362F1497252872AE6c0A5F5B8",
          "topics": [
            "0xdf21c415b78ed2552cc9971249e32a053abce6087a0ae0fbf3f78db5174a3493"
          ],
          "data": "0x000000000000000000000000000000000000000000000000000004008f55061b",
          "blockHash": "0xc510b36eb790fc5cbdc13f3d7b2d85633bed7f8839dd8fbe3ee098d473b7d00b",
          "blockNumber": "0x4ffe95",
          "transactionHash": "0xfda09238bc2ea5f39fc4274cfe47df2feff1cf446ecb6ac6db9f933e3079ac9c",
          "transactionIndex": "0x6e",
          "logIndex": "0xab",
          "removed": false
        },
        {
          "address": "0x3aCAAf60502791D199a5a5F0B173D78229eBFe32",
          "topics": [
            "0xb0c632f55f1e1b3b2c3d82f41ee4716bb4c00f0f5d84cdafc141581bb8757a4f"
          ],
          "data": "0x00000000000000000000000000000000000000000000000000000000000000400000000000000000000000000000000000000000000000000000000000000002000000000000000000000000000000000000000000000000000000000000002200010000000000000000000000000000000000000000000000000000000000030d40000000000000000000000000000000000000000000000000000000000000",
          "blockHash": "0xc510b36eb790fc5cbdc13f3d7b2d85633bed7f8839dd8fbe3ee098d473b7d00b",
          "blockNumber": "0x4ffe95",
          "transactionHash": "0xfda09238bc2ea5f39fc4274cfe47df2feff1cf446ecb6ac6db9f933e3079ac9c",
          "transactionIndex": "0x6e",
          "logIndex": "0xac",
          "removed": false
        },
        {
          "address": "0x00C5C0B8e0f75aB862CbAaeCfff499dB555FBDD2",
          "topics": [
            "0x4e41ee13e03cd5e0446487b524fdc48af6acf26c074dacdbdfb6b574b42c8146"
          ],
          "data": "0x000000000000000000000000000000000000000000000000000000000000277d00000000000000000000000000000000000000000000000000000000000000020000000000000000000000000000000000000000000000000000000000000002000000000000000000000000e9b53942eadeee83eb998554c042955b248bb30a0000000000000000000000000000000000000000000000000000000de76e7570",
          "blockHash": "0xc510b36eb790fc5cbdc13f3d7b2d85633bed7f8839dd8fbe3ee098d473b7d00b",
          "blockNumber": "0x4ffe95",
          "transactionHash": "0xfda09238bc2ea5f39fc4274cfe47df2feff1cf446ecb6ac6db9f933e3079ac9c",
          "transactionIndex": "0x6e",
          "logIndex": "0xad",
          "removed": false
        },
        {
          "address": "0x3aCAAf60502791D199a5a5F0B173D78229eBFe32",
          "topics": [
            "0xe9bded5f24a4168e4f3bf44e00298c993b22376aad8c58c7dda9718a54cbea82"
          ],
          "data": "0x00000000000000000000000000000000000000000000000000000000000000200000000000000000000000000000000000000000000000000000000000000094000000000000000227b1e9b53942eadeee83eb998554c042955b248bb30a277d1e5501bf7a4821be9251aa617560c03f481a39bd0000000000000000000000000000000000000000000000000000000000000020000000000000000000000000000000000000000000000000000000000000001b48656c6c6f20576f726c642066726f6d205365706f6c69612056320000000000000000000000000000000000",
          "blockHash": "0xc510b36eb790fc5cbdc13f3d7b2d85633bed7f8839dd8fbe3ee098d473b7d00b",
          "blockNumber": "0x4ffe95",
          "transactionHash": "0xfda09238bc2ea5f39fc4274cfe47df2feff1cf446ecb6ac6db9f933e3079ac9c",
          "transactionIndex": "0x6e",
          "logIndex": "0xae",
          "removed": false
        }
      ],
      "status": "0x1",
      "logsBloom": "0x00000000000000000000000000000000000050000000000000000000000000100000000020000000400000000000000000000000000000000000000000000000004000000000000000000000000000001000000000000000000000000000000000040000000000000000000000000200000000000000000000000000000000000040000400000000000000000000000000000000280000000000000000000000000000004000020000000000000000000000000000000000000000000000000000001000000008000000000000000000000000000000000000000000004100001000000000000000000000000000000000000000000000000000000000080000",
      "type": "0x2",
      "effectiveGasPrice": "0x85e780516"
    }
  ],
  "libraries": [],
  "pending": [],
  "returns": {},
  "timestamp": 1707362034,
  "chain": 11155111,
  "multi": false,
  "commit": "dfd50f7"
}