{
  "transactions": [
    {
      "hash": "0xfda09238bc2ea5f39fc4274cfe47df2feff1cf446ecb6ac6db9f933e3079ac9c",
      "transactionType": "CALL",
      "contractName": null,
      "contractAddress": "0xe9b53942eadEeE83EB998554C042955B248bb30A",
      "function": "send(string)",
      "arguments": [
        "\"Hello World from Sepolia V2\""
      ],
      "transaction": {
        "type": "0x02",
        "from": "0x965b0e63e00e7805569ee3b428cf96330dfc57ef",
        "to": "0xe9b53942eadeee83eb998554c042955b248bb30a",
        "gas": "0x4af8a",
        "value": "0x40e76c37b8b",
        "data": "0x66792ba10000000000000000000000000000000000000000000000000000000000000020000000000000000000000000000000000000000000000000000000000000001b48656c6c6f20576f726c642066726f6d205365706f6c69612056320000000000",
        "nonce": "0x100",
        "accessList": []
      },
      "additionalContracts": [],
      "isFixedGasLimit": false
    }
  ],
  "receipts": [],
  "libraries": [],
  "pending": [
    "0xfda09238bc2ea5f39fc4274cfe47df2feff1cf446ecb6ac6db9f933e3079ac9c"
  ],
  "returns": {},
  "timestamp": 1707362015,
  "chain": 11155111,
  "multi": false,
  "commit": "dfd50f7"
}