{
  "transactions": [
    {
      "hash": "0xbd07c9e4f2dee530a20d50a677c2bb2337b3076d25d1c1b0ecb6b05b04275261",
      "transactionType": "CALL",
      "contractName": null,
      "contractAddress": "0x1f8b89305d6840cB0D5335423Bc2E9eB34cc4086",
      "function": "burn(uint256)",
      "arguments": [
        "20000000000000000000"
      ],
      "transaction": {
        "type": "0x02",
        "from": "0x965b0e63e00e7805569ee3b428cf96330dfc57ef",
        "to": "0x1f8b89305d6840cb0d5335423bc2e9eb34cc4086",
        "gas": "0xa885",
        "value": "0x0",
        "data": "0x42966c68000000000000000000000000000000000000000000000001158e460913d00000",
        "nonce": "0x2f3",
        "accessList": []
      },
      "additionalContracts": [],
      "isFixedGasLimit": false
    }
  ],
  "receipts": [
    {
      "transactionHash": "0xbd07c9e4f2dee530a20d50a677c2bb2337b3076d25d1c1b0ecb6b05b04275261",
      "transactionIndex": "0x6",
      "blockHash": "0x53fce32f90ac9057ba8f600d5450b35ae976727bf385c5ed4996cc6bac46a494",
      "blockNumber": "0x2bbbff1",
      "from": "0x965B0E63e00E7805569ee3B428Cf96330DFc57EF",
      "to": "0x1f8b89305d6840cB0D5335423Bc2E9eB34cc4086",
      "cumulativeGasUsed": "0x1618aa",
      "gasUsed": "0x733b",
      "contractAddress": null,
      "logs": [
        {
          "address": "0x1f8b89305d6840cB0D5335423Bc2E9eB34cc4086",
          "topics": [
            "0xddf252ad1be2c89b69c2b068fc378daa952ba7f163c4a11628f55a4df523b3ef",
            "0x000000000000000000000000965b0e63e00e7805569ee3b428cf96330dfc57ef",
            "0x0000000000000000000000000000000000000000000000000000000000000000"
          ],
          "data": "0x000000000000000000000000000000000000000000000001158e460913d00000",
          "blockHash": "0x53fce32f90ac9057ba8f600d5450b35ae976727bf385c5ed4996cc6bac46a494",
          "blockNumber": "0x2bbbff1",
          "transactionHash": "0xbd07c9e4f2dee530a20d50a677c2bb2337b3076d25d1c1b0ecb6b05b04275261",
          "transactionIndex": "0x6",
          "logIndex": "0xe",
          "removed": false
        },
        {
          "address": "0x0000000000000000000000000000000000001010",
          "topics": [
            "0x4dfe1bbbcf077ddc3e01291eea2d5c70c2b422b415d95645b9adcfd678cb1d63",
            "0x0000000000000000000000000000000000000000000000000000000000001010",
            "0x000000000000000000000000965b0e63e00e7805569ee3b428cf96330dfc57ef",
            "0x000000000000000000000000c275dc8be39f50d12f66b6a63629c39da5bae5bd"
          ],
          "data": "0x0000000000000000000000000000000000000000000000000003324a452faad900000000000000000000000000000000000000000000000063cef5f87444d93e0000000000000000000000000000000000000000000014350409c9ea1b94cbd400000000000000000000000000000000000000000000000063cbc3ae2f152e65000000000000000000000000000000000000000000001435040cfc3460c476ad",
          "blockHash": "0x53fce32f90ac9057ba8f600d5450b35ae976727bf385c5ed4996cc6bac46a494",
          "blockNumber": "0x2bbbff1",
          "transactionHash": "0xbd07c9e4f2dee530a20d50a677c2bb2337b3076d25d1c1b0ecb6b05b04275261",
          "transactionIndex": "0x6",
          "logIndex": "0xf",
          "removed": false
        }
      ],
      "status": "0x1",
      "logsBloom": "0x00000000000000000000000000000000000000000000000000000000000000000000000000000000000000000000000000008000002000000000000000000000000000000002000000000008000004900000000000000000040100000000001000000000020000000000000000000800000000000000000080000010000000000000000000000000000000000000000000000000000000000000001000000000200000000000000000000000000000000000000000800000000040000000004000000002000000000001000000000000000000000000000000100000000020000000000000000000000000000000000000000000000000000000000000100000",
      "type": "0x2",
      "effectiveGasPrice": "0x719f1110b"
    }
  ],
  "libraries": [],
  "pending": [],
  "returns": {},
  "timestamp": 1707799072,
  "chain": 80001,
  "multi": false,
  "commit": "050f9e8"
}