{
  "transactions": [
    {
      "hash": "0xbd07c9e4f2dee530a20d50a677c2bb2337b3076d25d1c1b0ecb6b05b04275261",
      "transactionType": "CALL",
      "contractName": null,
      "contractAddress": "0x1f8b89305d6840cB0D5335423Bc2E9eB34cc4086",
      "function": "burn(uint256)",
      "arguments": [
        "20000000000000000000"
      ],
      "transaction": {
        "type": "0x02",
        "from": "0x965b0e63e00e7805569ee3b428cf96330dfc57ef",
        "to": "0x1f8b89305d6840cb0d5335423bc2e9eb34cc4086",
        "gas": "0xa885",
        "value": "0x0",
        "data": "0x42966c68000000000000000000000000000000000000000000000001158e460913d00000",
        "nonce": "0x2f3",
        "accessList": []
      },
      "additionalContracts": [],
      "isFixedGasLimit": false
    }
  ],
  "receipts": [],
  "libraries": [],
  "pending": [
    "0xbd07c9e4f2dee530a20d50a677c2bb2337b3076d25d1c1b0ecb6b05b04275261"
  ],
  "returns": {},
  "timestamp": 1707799065,
  "chain": 80001,
  "multi": false,
  "commit": "050f9e8"
}