{
  "transactions": [
    {
      "hash": "0x7bdbbcea10d3f538e24552cf5994d409467fd5f0be43f0692c8be7784bd4ba65",
      "transactionType": "CALL",
      "contractName": null,
      "contractAddress": "0xC5FdAfa7D8aD01156852e3E6403459358C21EA62",
      "function": "createProposal(string,string,uint256)",
      "arguments": [
        "\"Interoperability with Mumbai\"",
        "\"We should create a bridge to Mumbai to allow for cross-chain transactions.\"",
        "100000000000"
      ],
      "transaction": {
        "type": "0x02",
        "from": "0x965b0e63e00e7805569ee3b428cf96330dfc57ef",
        "to": "0xc5fdafa7d8ad01156852e3e6403459358c21ea62",
        "gas": "0x43fee",
        "value": "0x0",
        "data": "0x0ce0ebf4000000000000000000000000000000000000000000000000000000000000006000000000000000000000000000000000000000000000000000000000000000a0000000000000000000000000000000000000000000000000000000174876e800000000000000000000000000000000000000000000000000000000000000001c496e7465726f7065726162696c6974792077697468204d756d62616900000000000000000000000000000000000000000000000000000000000000000000004a57652073686f756c642063726561746520612062726964676520746f204d756d62616920746f20616c6c6f7720666f722063726f73732d636861696e207472616e73616374696f6e732e00000000000000000000000000000000000000000000",
        "nonce": "0x102",
        "accessList": []
      },
      "additionalContracts": [],
      "isFixedGasLimit": false
    }
  ],
  "receipts": [],
  "libraries": [],
  "pending": [
    "0x7bdbbcea10d3f538e24552cf5994d409467fd5f0be43f0692c8be7784bd4ba65"
  ],
  "returns": {},
  "timestamp": 1707404974,
  "chain": 11155111,
  "multi": false,
  "commit": "84b4fec"
}