{
  "transactions": [
    {
      "hash": "0xb1054523ddfea6675205187af8dc7f1951776215d3ec8a6a308679b3195a46a5",
      "transactionType": "CREATE",
      "contractName": "MyRunWithABI2",
      "contractAddress": "0xD4814c3912887cFF783F494E8CD46A36640Ad940",
      "function": null,
      "arguments": null,
      "transaction": {
        "type": "0x02",
        "from": "0x965b0e63e00e7805569ee3b428cf96330dfc57ef",
        "gas": "0x2fe4b",
        "value": "0x0",
        "data": "0x608060405234801561001057600080fd5b506101c4806100206000396000f3fe608060405234801561001057600080fd5b50600436106100365760003560e01c806310579b451461003b57806361f0b25f14610050575b600080fd5b61004e61004936600461012f565b610065565b005b60005460405190815260200160405180910390f35b60405163a6e5ca0760e01b60208201526000906001600160a01b0383169060240160408051601f19818403018152908290526100a09161015f565b600060405180830381855af49150503d80600081146100db576040519150601f19603f3d011682016040523d82523d6000602084013e6100e0565b606091505b505090508061012b5760405162461bcd60e51b815260206004820152601360248201527219195b1959d85d1958d85b1b0819985a5b1959606a1b604482015260640160405180910390fd5b5050565b60006020828403121561014157600080fd5b81356001600160a01b038116811461015857600080fd5b9392505050565b6000825160005b818110156101805760208186018101518583015201610166565b50600092019182525091905056fea2646970667358221220ca963a1de1bd3c4af2737ee4ce3bb285f589e297fefde7f7303af49f726bf1e064736f6c63430008180033",
        "nonce": "0x314",
        "accessList": []
      },
      "additionalContracts": [],
      "isFixedGasLimit": false
    },
    {
      "hash": "0xb0e37049de2226f0181d9232439cbcab21957a5baa064c8a042e5f79d7ab6122",
      "transactionType": "CALL",
      "contractName": null,
      "contractAddress": "0xF8E07835C94aC985821d45B0a468679790035683",
      "function": "setRunWithABI2(address)",
      "arguments": [
        "0xD4814c3912887cFF783F494E8CD46A36640Ad940"
      ],
      "transaction": {
        "type": "0x02",
        "from": "0x965b0e63e00e7805569ee3b428cf96330dfc57ef",
        "to": "0xf8e07835c94ac985821d45b0a468679790035683",
        "gas": "0xfbed",
        "value": "0x0",
        "data": "0xb73c4816000000000000000000000000d4814c3912887cff783f494e8cd46a36640ad940",
        "nonce": "0x315",
        "accessList": []
      },
      "additionalContracts": [],
      "isFixedGasLimit": false
    }
  ],
  "receipts": [
    {
      "transactionHash": "0xb1054523ddfea6675205187af8dc7f1951776215d3ec8a6a308679b3195a46a5",
      "transactionIndex": "0x2",
      "blockHash": "0x5a52d35051d786ce355bdd681fccf6f1de534a7f5695725a3dc7ec2207094225",
      "blockNumber": "0x2bc4071",
      "from": "0x965B0E63e00E7805569ee3B428Cf96330DFc57EF",
      "to": null,
      "cumulativeGasUsed": "0x406b2",
      "gasUsed": "0x24d95",
      "contractAddress": "0xD4814c3912887cFF783F494E8CD46A36640Ad940",
      "logs": [
        {
          "address": "0x0000000000000000000000000000000000001010",
          "topics": [
            "0x4dfe1bbbcf077ddc3e01291eea2d5c70c2b422b415d95645b9adcfd678cb1d63",
            "0x0000000000000000000000000000000000000000000000000000000000001010",
            "0x000000000000000000000000965b0e63e00e7805569ee3b428cf96330dfc57ef",
            "0x000000000000000000000000c26880a0af2ea0c7e8130e6ec47af756465452e8"
          ],
          "data": "0x0000000000000000000000000000000000000000000000000012256c7189898000000000000000000000000000000000000000000000000062f49648ba2f4c0800000000000000000000000000000000000000000000239a89c919d740d3c51d00000000000000000000000000000000000000000000000062e270dc48a5c28800000000000000000000000000000000000000000000239a89db3f43b25d4e9d",
          "blockHash": "0x5a52d35051d786ce355bdd681fccf6f1de534a7f5695725a3dc7ec2207094225",
          "blockNumber": "0x2bc4071",
          "transactionHash": "0xb1054523ddfea6675205187af8dc7f1951776215d3ec8a6a308679b3195a46a5",
          "transactionIndex": "0x2",
          "logIndex": "0x5",
          "removed": false
        }
      ],
      "status": "0x1",
      "logsBloom": "0x00000000000000020000000000000000000000000000000000000000000000000000000000000000000000000000000000008000000000000000000000000000000000000002000000000000000004900000000000000000000100000000000000000000000000000000000000000000000000000000000080000000000000000000000000000000000000000000000000000000000000000000000000000000200000000000000020000000000000000001000000000000000000000000004000000000000000000001000000000000000000000000000000100000000000000000000000000000000000000000000000000000000000000000000000100000",
      "type": "0x2",
      "effectiveGasPrice": "0x7e1120390"
    },
    {
      "transactionHash": "0xb0e37049de2226f0181d9232439cbcab21957a5baa064c8a042e5f79d7ab6122",
      "transactionIndex": "0x3",
      "blockHash": "0x5a52d35051d786ce355bdd681fccf6f1de534a7f5695725a3dc7ec2207094225",
      "blockNumber": "0x2bc4071",
      "from": "0x965B0E63e00E7805569ee3B428Cf96330DFc57EF",
      "to": "0xF8E07835C94aC985821d45B0a468679790035683",
      "cumulativeGasUsed": "0x4b2f4",
      "gasUsed": "0xac42",
      "contractAddress": null,
      "logs": [
        {
          "address": "0x0000000000000000000000000000000000001010",
          "topics": [
            "0x4dfe1bbbcf077ddc3e01291eea2d5c70c2b422b415d95645b9adcfd678cb1d63",
            "0x0000000000000000000000000000000000000000000000000000000000001010",
            "0x000000000000000000000000965b0e63e00e7805569ee3b428cf96330dfc57ef",
            "0x000000000000000000000000c26880a0af2ea0c7e8130e6ec47af756465452e8"
          ],
          "data": "0x00000000000000000000000000000000000000000000000000054d4020fee70000000000000000000000000000000000000000000000000062e270dc4880e93800000000000000000000000000000000000000000000239a89db3f43b25d4e9d00000000000000000000000000000000000000000000000062dd239c2782023800000000000000000000000000000000000000000000239a89e08c83d35c359d",
          "blockHash": "0x5a52d35051d786ce355bdd681fccf6f1de534a7f5695725a3dc7ec2207094225",
          "blockNumber": "0x2bc4071",
          "transactionHash": "0xb0e37049de2226f0181d9232439cbcab21957a5baa064c8a042e5f79d7ab6122",
          "transactionIndex": "0x3",
          "logIndex": "0x6",
          "removed": false
        }
      ],
      "status": "0x1",
      "logsBloom": "0x00000000000000020000000000000000000000000000000000000000000000000000000000000000000000000000000000008000000000000000000000000000000000000002000000000000000004900000000000000000000100000000000000000000000000000000000000000000000000000000000080000000000000000000000000000000000000000000000000000000000000000000000000000000200000000000000020000000000000000001000000000000000000000000004000000000000000000001000000000000000000000000000000100000000000000000000000000000000000000000000000000000000000000000000000100000",
      "type": "0x2",
      "effectiveGasPrice": "0x7e1120390"
    }
  ],
  "libraries": [],
  "pending": [],
  "returns": {},
  "timestamp": 1707877691,
  "chain": 80001,
  "multi": false,
  "commit": "53ccce6"
}