{
  "transactions": [
    {
      "hash": "0xe3f92b74aaef8840fb3b80652fd51b99272aac6ef4884cc168ea61df6a787242",
      "transactionType": "CREATE",
      "contractName": "MyRunWithABI2",
      "contractAddress": "0xb42B43050c9Cba137020d3d0fce499aBAaCD110C",
      "function": null,
      "arguments": null,
      "transaction": {
        "type": "0x02",
        "from": "0x965b0e63e00e7805569ee3b428cf96330dfc57ef",
        "gas": "0x3cc6a",
        "value": "0x0",
        "data": "0x608060405234801561001057600080fd5b50610280806100206000396000f3fe608060405234801561001057600080fd5b50600436106100365760003560e01c806310579b451461003b57806361f0b25f14610050575b600080fd5b61004e6100493660046101eb565b610065565b005b60005460405190815260200160405180910390f35b60405163a6e5ca0760e01b60208201526000906001600160a01b0383169060240160408051601f19818403018152908290526100a09161021b565b6000604051808303816000865af19150503d80600081146100dd576040519150601f19603f3d011682016040523d82523d6000602084013e6100e2565b606091505b50509050806101265760405162461bcd60e51b815260206004820152600b60248201526a18d85b1b0819985a5b195960aa1b60448201526064015b60405180910390fd5b60405163a6e5ca0760e01b60208201526001600160a01b0383169060240160408051601f198184030181529082905261015e9161021b565b600060405180830381855af49150503d8060008114610199576040519150601f19603f3d011682016040523d82523d6000602084013e61019e565b606091505b505080915050806101e75760405162461bcd60e51b815260206004820152601360248201527219195b1959d85d1958d85b1b0819985a5b1959606a1b604482015260640161011d565b5050565b6000602082840312156101fd57600080fd5b81356001600160a01b038116811461021457600080fd5b9392505050565b6000825160005b8181101561023c5760208186018101518583015201610222565b50600092019182525091905056fea2646970667358221220a77f3adf2ec66eb42f18527c18f0f50684b86666e0215a6f91701f85cc5ee4bb64736f6c63430008180033",
        "nonce": "0x31b",
        "accessList": []
      },
      "additionalContracts": [],
      "isFixedGasLimit": false
    },
    {
      "hash": "0xcb6915b770529440ecb9e657b9e6851645f478e1206b5237d171e0660251cc16",
      "transactionType": "CALL",
      "contractName": "MyRunWithABI2",
      "contractAddress": "0xb42B43050c9Cba137020d3d0fce499aBAaCD110C",
      "function": "setPrivateKey(address)",
      "arguments": [
        "0xF8E07835C94aC985821d45B0a468679790035683"
      ],
      "transaction": {
        "type": "0x02",
        "from": "0x965b0e63e00e7805569ee3b428cf96330dfc57ef",
        "to": "0xb42b43050c9cba137020d3d0fce499abaacd110c",
        "gas": "0x13244",
        "value": "0x0",
        "data": "0x10579b45000000000000000000000000f8e07835c94ac985821d45b0a468679790035683",
        "nonce": "0x31c",
        "accessList": []
      },
      "additionalContracts": [],
      "isFixedGasLimit": false
    },
    {
      "hash": "0x15244e67549f8ead9b9489cd1a2f8cafb0a7545c18b33d2b4134b8c6ae39894f",
      "transactionType": "CALL",
      "contractName": null,
      "contractAddress": "0xF8E07835C94aC985821d45B0a468679790035683",
      "function": "setRunWithABI2(address)",
      "arguments": [
        "0xb42B43050c9Cba137020d3d0fce499aBAaCD110C"
      ],
      "transaction": {
        "type": "0x02",
        "from": "0x965b0e63e00e7805569ee3b428cf96330dfc57ef",
        "to": "0xf8e07835c94ac985821d45b0a468679790035683",
        "gas": "0x91aa",
        "value": "0x0",
        "data": "0xb73c4816000000000000000000000000b42b43050c9cba137020d3d0fce499abaacd110c",
        "nonce": "0x31d",
        "accessList": []
      },
      "additionalContracts": [],
      "isFixedGasLimit": false
    }
  ],
  "receipts": [],
  "libraries": [],
  "pending": [
    "0xe3f92b74aaef8840fb3b80652fd51b99272aac6ef4884cc168ea61df6a787242",
    "0xcb6915b770529440ecb9e657b9e6851645f478e1206b5237d171e0660251cc16",
    "0x15244e67549f8ead9b9489cd1a2f8cafb0a7545c18b33d2b4134b8c6ae39894f"
  ],
  "returns": {},
  "timestamp": 1707878848,
  "chain": 80001,
  "multi": false,
  "commit": "53ccce6"
}