{
  "transactions": [
    {
      "hash": "0x4b9eedf1ce2510361046e776fc56425a70d3949a89f91362fb284135c4f192a5",
      "transactionType": "CREATE",
      "contractName": "MyRunWithABI2_2",
      "contractAddress": "0x5338b27e25eb60e8485991aFBa0dc039506BFDCc",
      "function": null,
      "arguments": null,
      "transaction": {
        "type": "0x02",
        "from": "0x965b0e63e00e7805569ee3b428cf96330dfc57ef",
        "gas": "0x253ee",
        "value": "0x0",
        "data": "0x60806040527f746872656534567891200000000000000000000000000000002111098765432160005534801561003457600080fd5b5060c0806100436000396000f3fe6080604052348015600f57600080fd5b506004361060325760003560e01c806310579b4514603757806361f0b25f146047575b600080fd5b60456042366004605c565b50565b005b60005460405190815260200160405180910390f35b600060208284031215606d57600080fd5b81356001600160a01b0381168114608357600080fd5b939250505056fea26469706673582212201eb5b49c68e1a92a4df9c9b6220072d379af651dfd61250797c75f2cb09229b764736f6c63430008180033",
        "nonce": "0x325",
        "accessList": []
      },
      "additionalContracts": [],
      "isFixedGasLimit": false
    },
    {
      "hash": "0x3ee0955ef3a91f076eeb5770f3a7686c7daa14ccbff90b16860f84c2bf5c3774",
      "transactionType": "CALL",
      "contractName": null,
      "contractAddress": "0xf8e41c52D0431E68A1A6cc46d6A7aAa03625cF49",
      "function": "setRunWithABI2(address)",
      "arguments": [
        "0x5338b27e25eb60e8485991aFBa0dc039506BFDCc"
      ],
      "transaction": {
        "type": "0x02",
        "from": "0x965b0e63e00e7805569ee3b428cf96330dfc57ef",
        "to": "0xf8e41c52d0431e68a1a6cc46d6a7aaa03625cf49",
        "gas": "0xfbed",
        "value": "0x0",
        "data": "0xb73c48160000000000000000000000005338b27e25eb60e8485991afba0dc039506bfdcc",
        "nonce": "0x326",
        "accessList": []
      },
      "additionalContracts": [],
      "isFixedGasLimit": false
    }
  ],
  "receipts": [
    {
      "transactionHash": "0x4b9eedf1ce2510361046e776fc56425a70d3949a89f91362fb284135c4f192a5",
      "transactionIndex": "0x0",
      "blockHash": "0x9155a3db4ac95acc11dbc0346704d92043a32b7947cbc1efe69df465fef04ab3",
      "blockNumber": "0x2bc4330",
      "from": "0x965B0E63e00E7805569ee3B428Cf96330DFc57EF",
      "to": null,
      "cumulativeGasUsed": "0x1ca7b",
      "gasUsed": "0x1ca7b",
      "contractAddress": "0x5338b27e25eb60e8485991aFBa0dc039506BFDCc",
      "logs": [
        {
          "address": "0x0000000000000000000000000000000000001010",
          "topics": [
            "0x4dfe1bbbcf077ddc3e01291eea2d5c70c2b422b415d95645b9adcfd678cb1d63",
            "0x0000000000000000000000000000000000000000000000000000000000001010",
            "0x000000000000000000000000965b0e63e00e7805569ee3b428cf96330dfc57ef",
            "0x000000000000000000000000c26880a0af2ea0c7e8130e6ec47af756465452e8"
          ],
          "data": "0x000000000000000000000000000000000000000000000000000c8272f6d9d98500000000000000000000000000000000000000000000000062809798097c716300000000000000000000000000000000000000000000239ab40d611a898ff4490000000000000000000000000000000000000000000000006274152512a297de00000000000000000000000000000000000000000000239ab419e38d8069cdce",
          "blockHash": "0x9155a3db4ac95acc11dbc0346704d92043a32b7947cbc1efe69df465fef04ab3",
          "blockNumber": "0x2bc4330",
          "transactionHash": "0x4b9eedf1ce2510361046e776fc56425a70d3949a89f91362fb284135c4f192a5",
          "transactionIndex": "0x0",
          "logIndex": "0x0",
          "removed": false
        }
      ],
      "status": "0x1",
      "logsBloom": "0x00000000000000020000000000000000000000000000000000000000000000000000000000000000000000000000000000008000000000000000000000000000000000000002000000000000000004900000000000000000000100000000000000000000000000000000000000000000000000000000000080000000000000000000000000000000000000000000000000000000000000000000000000000000200000000000000020000000000000000001000000000000000000000000004000000000000000000001000000000000000000000000000000100000000000000000000000000000000000000000000000000000000000000000000000100000",
      "type": "0x2",
      "effectiveGasPrice": "0x6fc23ac0e"
    },
    {
      "transactionHash": "0x3ee0955ef3a91f076eeb5770f3a7686c7daa14ccbff90b16860f84c2bf5c3774",
      "transactionIndex": "0x1",
      "blockHash": "0x9155a3db4ac95acc11dbc0346704d92043a32b7947cbc1efe69df465fef04ab3",
      "blockNumber": "0x2bc4330",
      "from": "0x965B0E63e00E7805569ee3B428Cf96330DFc57EF",
      "to": "0xf8e41c52D0431E68A1A6cc46d6A7aAa03625cF49",
      "cumulativeGasUsed": "0x276bd",
      "gasUsed": "0xac42",
      "contractAddress": null,
      "logs": [
        {
          "address": "0x0000000000000000000000000000000000001010",
          "topics": [
            "0x4dfe1bbbcf077ddc3e01291eea2d5c70c2b422b415d95645b9adcfd678cb1d63",
            "0x0000000000000000000000000000000000000000000000000000000000001010",
            "0x000000000000000000000000965b0e63e00e7805569ee3b428cf96330dfc57ef",
            "0x000000000000000000000000c26880a0af2ea0c7e8130e6ec47af756465452e8"
          ],
          "data": "0x0000000000000000000000000000000000000000000000000004b334f8c1abbe000000000000000000000000000000000000000000000000627415251287baa900000000000000000000000000000000000000000000239ab419e38d8069cdce000000000000000000000000000000000000000000000000626f61f019c60eeb00000000000000000000000000000000000000000000239ab41e96c2792b798c",
          "blockHash": "0x9155a3db4ac95acc11dbc0346704d92043a32b7947cbc1efe69df465fef04ab3",
          "blockNumber": "0x2bc4330",
          "transactionHash": "0x3ee0955ef3a91f076eeb5770f3a7686c7daa14ccbff90b16860f84c2bf5c3774",
          "transactionIndex": "0x1",
          "logIndex": "0x1",
          "removed": false
        }
      ],
      "status": "0x1",
      "logsBloom": "0x00000000000000020000000000000000000000000000000000000000000000000000000000000000000000000000000000008000000000000000000000000000000000000002000000000000000004900000000000000000000100000000000000000000000000000000000000000000000000000000000080000000000000000000000000000000000000000000000000000000000000000000000000000000200000000000000020000000000000000001000000000000000000000000004000000000000000000001000000000000000000000000000000100000000000000000000000000000000000000000000000000000000000000000000000100000",
      "type": "0x2",
      "effectiveGasPrice": "0x6fc23ac0e"
    }
  ],
  "libraries": [],
  "pending": [],
  "returns": {},
  "timestamp": 1707879726,
  "chain": 80001,
  "multi": false,
  "commit": "53ccce6"
}