{
  "transactions": [
    {
      "hash": "0xaacfdf994c6be1e146b33ab1a9bf0b7bf34431b915928fd21f503dc9b43a03cd",
      "transactionType": "CREATE",
      "contractName": "MyRunWithABI2",
      "contractAddress": "0x4Af37F5a5190Ba8f64b2F4d7D536387815Fc7fd9",
      "function": null,
      "arguments": null,
      "transaction": {
        "type": "0x02",
        "from": "0x965b0e63e00e7805569ee3b428cf96330dfc57ef",
        "gas": "0x3cc6a",
        "value": "0x0",
        "data": "0x608060405234801561001057600080fd5b50610280806100206000396000f3fe608060405234801561001057600080fd5b50600436106100365760003560e01c806310579b451461003b57806361f0b25f14610050575b600080fd5b61004e6100493660046101eb565b610065565b005b60005460405190815260200160405180910390f35b60405163a6e5ca0760e01b60208201526000906001600160a01b0383169060240160408051601f19818403018152908290526100a09161021b565b6000604051808303816000865af19150503d80600081146100dd576040519150601f19603f3d011682016040523d82523d6000602084013e6100e2565b606091505b50509050806101265760405162461bcd60e51b815260206004820152600b60248201526a18d85b1b0819985a5b195960aa1b60448201526064015b60405180910390fd5b60405163a6e5ca0760e01b60208201526001600160a01b0383169060240160408051601f198184030181529082905261015e9161021b565b600060405180830381855af49150503d8060008114610199576040519150601f19603f3d011682016040523d82523d6000602084013e61019e565b606091505b505080915050806101e75760405162461bcd60e51b815260206004820152601360248201527219195b1959d85d1958d85b1b0819985a5b1959606a1b604482015260640161011d565b5050565b6000602082840312156101fd57600080fd5b81356001600160a01b038116811461021457600080fd5b9392505050565b6000825160005b8181101561023c5760208186018101518583015201610222565b50600092019182525091905056fea2646970667358221220a77f3adf2ec66eb42f18527c18f0f50684b86666e0215a6f91701f85cc5ee4bb64736f6c63430008180033",
        "nonce": "0x317",
        "accessList": []
      },
      "additionalContracts": [],
      "isFixedGasLimit": false
    },
    {
      "hash": "0x07b17591933d36448c0d8bc053ab73f93b91c1d1d537ce409b84bf32393c56c7",
      "transactionType": "CALL",
      "contractName": null,
      "contractAddress": "0xF8E07835C94aC985821d45B0a468679790035683",
      "function": "setRunWithABI2(address)",
      "arguments": [
        "0x4Af37F5a5190Ba8f64b2F4d7D536387815Fc7fd9"
      ],
      "transaction": {
        "type": "0x02",
        "from": "0x965b0e63e00e7805569ee3b428cf96330dfc57ef",
        "to": "0xf8e07835c94ac985821d45b0a468679790035683",
        "gas": "0x91aa",
        "value": "0x0",
        "data": "0xb73c48160000000000000000000000004af37f5a5190ba8f64b2f4d7d536387815fc7fd9",
        "nonce": "0x318",
        "accessList": []
      },
      "additionalContracts": [],
      "isFixedGasLimit": false
    }
  ],
  "receipts": [],
  "libraries": [],
  "pending": [
    "0xaacfdf994c6be1e146b33ab1a9bf0b7bf34431b915928fd21f503dc9b43a03cd",
    "0x07b17591933d36448c0d8bc053ab73f93b91c1d1d537ce409b84bf32393c56c7"
  ],
  "returns": {},
  "timestamp": 1707878415,
  "chain": 80001,
  "multi": false,
  "commit": "53ccce6"
}