{
  "transactions": [
    {
      "hash": "0x4b9eedf1ce2510361046e776fc56425a70d3949a89f91362fb284135c4f192a5",
      "transactionType": "CREATE",
      "contractName": "MyRunWithABI2_2",
      "contractAddress": "0x5338b27e25eb60e8485991aFBa0dc039506BFDCc",
      "function": null,
      "arguments": null,
      "transaction": {
        "type": "0x02",
        "from": "0x965b0e63e00e7805569ee3b428cf96330dfc57ef",
        "gas": "0x253ee",
        "value": "0x0",
        "data": "0x60806040527f746872656534567891200000000000000000000000000000002111098765432160005534801561003457600080fd5b5060c0806100436000396000f3fe6080604052348015600f57600080fd5b506004361060325760003560e01c806310579b4514603757806361f0b25f146047575b600080fd5b60456042366004605c565b50565b005b60005460405190815260200160405180910390f35b600060208284031215606d57600080fd5b81356001600160a01b0381168114608357600080fd5b939250505056fea26469706673582212201eb5b49c68e1a92a4df9c9b6220072d379af651dfd61250797c75f2cb09229b764736f6c63430008180033",
        "nonce": "0x325",
        "accessList": []
      },
      "additionalContracts": [],
      "isFixedGasLimit": false
    },
    {
      "hash": "0x3ee0955ef3a91f076eeb5770f3a7686c7daa14ccbff90b16860f84c2bf5c3774",
      "transactionType": "CALL",
      "contractName": null,
      "contractAddress": "0xf8e41c52D0431E68A1A6cc46d6A7aAa03625cF49",
      "function": "setRunWithABI2(address)",
      "arguments": [
        "0x5338b27e25eb60e8485991aFBa0dc039506BFDCc"
      ],
      "transaction": {
        "type": "0x02",
        "from": "0x965b0e63e00e7805569ee3b428cf96330dfc57ef",
        "to": "0xf8e41c52d0431e68a1a6cc46d6a7aaa03625cf49",
        "gas": "0xfbed",
        "value": "0x0",
        "data": "0xb73c48160000000000000000000000005338b27e25eb60e8485991afba0dc039506bfdcc",
        "nonce": "0x326",
        "accessList": []
      },
      "additionalContracts": [],
      "isFixedGasLimit": false
    }
  ],
  "receipts": [],
  "libraries": [],
  "pending": [
    "0x4b9eedf1ce2510361046e776fc56425a70d3949a89f91362fb284135c4f192a5",
    "0x3ee0955ef3a91f076eeb5770f3a7686c7daa14ccbff90b16860f84c2bf5c3774"
  ],
  "returns": {},
  "timestamp": 1707879713,
  "chain": 80001,
  "multi": false,
  "commit": "53ccce6"
}