{
  "transactions": [
    {
      "hash": "0x353ec3688c055c77e6c1f365ddd357b51262e84b9998dead43491ce725c66f13",
      "transactionType": "CREATE",
      "contractName": "MyRunWithABI2",
      "contractAddress": "0xbEeC7Eb38a6f29BC8C2bc0720001F69377220fD9",
      "function": null,
      "arguments": null,
      "transaction": {
        "type": "0x02",
        "from": "0x965b0e63e00e7805569ee3b428cf96330dfc57ef",
        "gas": "0x2fe4b",
        "value": "0x0",
        "data": "0x608060405234801561001057600080fd5b506101c4806100206000396000f3fe608060405234801561001057600080fd5b50600436106100365760003560e01c806310579b451461003b57806361f0b25f14610050575b600080fd5b61004e61004936600461012f565b610065565b005b60005460405190815260200160405180910390f35b60405163a6e5ca0760e01b60208201526000906001600160a01b0383169060240160408051601f19818403018152908290526100a09161015f565b600060405180830381855af49150503d80600081146100db576040519150601f19603f3d011682016040523d82523d6000602084013e6100e0565b606091505b505090508061012b5760405162461bcd60e51b815260206004820152601360248201527219195b1959d85d1958d85b1b0819985a5b1959606a1b604482015260640160405180910390fd5b5050565b60006020828403121561014157600080fd5b81356001600160a01b038116811461015857600080fd5b9392505050565b6000825160005b818110156101805760208186018101518583015201610166565b50600092019182525091905056fea2646970667358221220ca963a1de1bd3c4af2737ee4ce3bb285f589e297fefde7f7303af49f726bf1e064736f6c63430008180033",
        "nonce": "0x31f",
        "accessList": []
      },
      "additionalContracts": [],
      "isFixedGasLimit": false
    },
    {
      "hash": "0x598c2ecdb24417b90440d30be28fa6514393c90e506f91626d94ed66d790ab47",
      "transactionType": "CALL",
      "contractName": null,
      "contractAddress": "0xF8E07835C94aC985821d45B0a468679790035683",
      "function": null,
      "arguments": null,
      "transaction": {
        "type": "0x02",
        "from": "0x965b0e63e00e7805569ee3b428cf96330dfc57ef",
        "to": "0xf8e07835c94ac985821d45b0a468679790035683",
        "gas": "0x98cd",
        "value": "0x0",
        "data": "0xa6e5ca07",
        "nonce": "0x320",
        "accessList": []
      },
      "additionalContracts": [],
      "isFixedGasLimit": false
    },
    {
      "hash": "0x52096f4c001315204097c5549e6e08ad7e4a122850e021f5ea462a46dcd20fc5",
      "transactionType": "CALL",
      "contractName": "MyRunWithABI2",
      "contractAddress": "0xbEeC7Eb38a6f29BC8C2bc0720001F69377220fD9",
      "function": "setPrivateKey(address)",
      "arguments": [
        "0xF8E07835C94aC985821d45B0a468679790035683"
      ],
      "transaction": {
        "type": "0x02",
        "from": "0x965b0e63e00e7805569ee3b428cf96330dfc57ef",
        "to": "0xbeec7eb38a6f29bc8c2bc0720001f69377220fd9",
        "gas": "0x10f12",
        "value": "0x0",
        "data": "0x10579b45000000000000000000000000f8e07835c94ac985821d45b0a468679790035683",
        "nonce": "0x321",
        "accessList": []
      },
      "additionalContracts": [],
      "isFixedGasLimit": false
    },
    {
      "hash": "0xd9850cbe70f77d6b8ee11c3b0b59e6086a70d572c9a2aab020250b75d16ba9c2",
      "transactionType": "CALL",
      "contractName": null,
      "contractAddress": "0xF8E07835C94aC985821d45B0a468679790035683",
      "function": "setRunWithABI2(address)",
      "arguments": [
        "0xbEeC7Eb38a6f29BC8C2bc0720001F69377220fD9"
      ],
      "transaction": {
        "type": "0x02",
        "from": "0x965b0e63e00e7805569ee3b428cf96330dfc57ef",
        "to": "0xf8e07835c94ac985821d45b0a468679790035683",
        "gas": "0x9a2a",
        "value": "0x0",
        "data": "0xb73c4816000000000000000000000000beec7eb38a6f29bc8c2bc0720001f69377220fd9",
        "nonce": "0x322",
        "accessList": []
      },
      "additionalContracts": [],
      "isFixedGasLimit": false
    }
  ],
  "receipts": [],
  "libraries": [],
  "pending": [
    "0x353ec3688c055c77e6c1f365ddd357b51262e84b9998dead43491ce725c66f13",
    "0x598c2ecdb24417b90440d30be28fa6514393c90e506f91626d94ed66d790ab47",
    "0x52096f4c001315204097c5549e6e08ad7e4a122850e021f5ea462a46dcd20fc5",
    "0xd9850cbe70f77d6b8ee11c3b0b59e6086a70d572c9a2aab020250b75d16ba9c2"
  ],
  "returns": {},
  "timestamp": 1707879295,
  "chain": 80001,
  "multi": false,
  "commit": "53ccce6"
}