{
  "transactions": [
    {
      "hash": "0x7d1aeaf0ee1e83a27fb80ce03c32bcbdf9c4224f858af2786deac00ef93fc2ec",
      "transactionType": "CREATE",
      "contractName": "Unlock",
      "contractAddress": "0xc75A7177921b4aB6f1023d655054fFcDb3E96ed0",
      "function": null,
      "arguments": null,
      "transaction": {
        "type": "0x02",
        "from": "0x965b0e63e00e7805569ee3b428cf96330dfc57ef",
        "gas": "0x2de83",
        "value": "0x0",
        "data": "0x608060405234801561001057600080fd5b506101a7806100206000396000f3fe608060405234801561001057600080fd5b506004361061002b5760003560e01c80632f6c493c14610030575b600080fd5b61004361003e366004610112565b610045565b005b60408051600481526024810182526020810180516001600160e01b031663a69df4b560e01b17905290516000916001600160a01b038416916100879190610142565b6000604051808303816000865af19150503d80600081146100c4576040519150601f19603f3d011682016040523d82523d6000602084013e6100c9565b606091505b505090508061010e5760405162461bcd60e51b815260206004820152600d60248201526c1d5b9b1bd8dac819985a5b1959609a1b604482015260640160405180910390fd5b5050565b60006020828403121561012457600080fd5b81356001600160a01b038116811461013b57600080fd5b9392505050565b6000825160005b818110156101635760208186018101518583015201610149565b50600092019182525091905056fea26469706673582212203929ba088465dbf0b790540746be420102ed172289a91940ecfcb47f5fee7bf764736f6c63430008180033",
        "nonce": "0x34e",
        "accessList": []
      },
      "additionalContracts": [],
      "isFixedGasLimit": false
    },
    {
      "hash": "0x5bd5aa5c6ac7e5492a9bcd948196d66a635ddbb14b9be8fc2b717a514c624364",
      "transactionType": "CALL",
      "contractName": "Unlock",
      "contractAddress": "0xc75A7177921b4aB6f1023d655054fFcDb3E96ed0",
      "function": "unlock(address)",
      "arguments": [
        "0x50d0bba298728e9554eF044D473358c9c7E8FAf9"
      ],
      "transaction": {
        "type": "0x02",
        "from": "0x965b0e63e00e7805569ee3b428cf96330dfc57ef",
        "to": "0xc75a7177921b4ab6f1023d655054ffcdb3e96ed0",
        "gas": "0xad2c",
        "value": "0x0",
        "data": "0x2f6c493c00000000000000000000000050d0bba298728e9554ef044d473358c9c7e8faf9",
        "nonce": "0x34f",
        "accessList": []
      },
      "additionalContracts": [],
      "isFixedGasLimit": false
    }
  ],
  "receipts": [],
  "libraries": [],
  "pending": [
    "0x7d1aeaf0ee1e83a27fb80ce03c32bcbdf9c4224f858af2786deac00ef93fc2ec",
    "0x5bd5aa5c6ac7e5492a9bcd948196d66a635ddbb14b9be8fc2b717a514c624364"
  ],
  "returns": {},
  "timestamp": 1707892063,
  "chain": 80001,
  "multi": false,
  "commit": "a8d0b1f"
}