{
  "transactions": [
    {
      "hash": "0x1e24bd1b5ca6835f1a4efd55ea87cd8e40e6a588e360de5726b281e939bd1d66",
      "transactionType": "CALL",
      "contractName": null,
      "contractAddress": "0xbE1DdAB9F36100ca9c51ce44BF3A61637fc3c355",
      "function": "setValue(uint256)",
      "arguments": [
        "736"
      ],
      "transaction": {
        "type": "0x02",
        "from": "0x965b0e63e00e7805569ee3b428cf96330dfc57ef",
        "to": "0xbe1ddab9f36100ca9c51ce44bf3a61637fc3c355",
        "gas": "0xebf9",
        "value": "0x0",
        "data": "0x5524107700000000000000000000000000000000000000000000000000000000000002e0",
        "nonce": "0x311",
        "accessList": []
      },
      "additionalContracts": [],
      "isFixedGasLimit": false
    }
  ],
  "receipts": [
    {
      "transactionHash": "0x1e24bd1b5ca6835f1a4efd55ea87cd8e40e6a588e360de5726b281e939bd1d66",
      "transactionIndex": "0x1",
      "blockHash": "0xcd525cde7a07d6deed539d5cd9e46581fd7b96f823f0d77fce709fbb283f212a",
      "blockNumber": "0x2bc3c44",
      "from": "0x965B0E63e00E7805569ee3B428Cf96330DFc57EF",
      "to": "0xbE1DdAB9F36100ca9c51ce44BF3A61637fc3c355",
      "cumulativeGasUsed": "0x3f091",
      "gasUsed": "0xaad8",
      "contractAddress": null,
      "logs": [
        {
          "address": "0x0000000000000000000000000000000000001010",
          "topics": [
            "0x4dfe1bbbcf077ddc3e01291eea2d5c70c2b422b415d95645b9adcfd678cb1d63",
            "0x0000000000000000000000000000000000000000000000000000000000001010",
            "0x000000000000000000000000965b0e63e00e7805569ee3b428cf96330dfc57ef",
            "0x0000000000000000000000004ce0f825810371ea57fbcba98b2be98e730c10df"
          ],
          "data": "0x0000000000000000000000000000000000000000000000000004a9546e51200000000000000000000000000000000000000000000000000062fcde2836bf2d86000000000000000000000000000000000000000000000097383cfeca1d12233700000000000000000000000000000000000000000000000062f834d3c86e0d860000000000000000000000000000000000000000000000973841a81e8b634337",
          "blockHash": "0xcd525cde7a07d6deed539d5cd9e46581fd7b96f823f0d77fce709fbb283f212a",
          "blockNumber": "0x2bc3c44",
          "transactionHash": "0x1e24bd1b5ca6835f1a4efd55ea87cd8e40e6a588e360de5726b281e939bd1d66",
          "transactionIndex": "0x1",
          "logIndex": "0x2",
          "removed": false
        }
      ],
      "status": "0x1",
      "logsBloom": "0x00000000000000000000000000000000000000000000000000000000000000000000000000000000000000000000000000008000000000000000000000000000000000000002000000000000000004900000000000000000000100000000000000000000000000000000000000000000000004000000000080000000000000000000000000000000000000000000000000000000000000000000000000000000200000000000000000000000000000000000000040000000000000000000004000000000000000000001000000000000000000000000000000100000001000000000000000000000000000000000000000000000000000000000000000100000",
      "type": "0x2",
      "effectiveGasPrice": "0x6fc23ac0f"
    }
  ],
  "libraries": [],
  "pending": [],
  "returns": {},
  "timestamp": 1707875258,
  "chain": 80001,
  "multi": false,
  "commit": "53ccce6"
}