{
  "transactions": [
    {
      "hash": "0xdff480b4e128141994434f72f9ef2ff827d669c3973d7ffb96a9902f6b2df1ae",
      "transactionType": "CALL",
      "contractName": null,
      "contractAddress": "0xB0d7Db655Cf59DEAcF8EaA7A258d0161c42d6b5c",
      "function": "transferFrom(address,address,uint256)",
      "arguments": [
        "0xa8495f277B09516097F395bc0d263c6dB2F5399f",
        "0x965B0E63e00E7805569ee3B428Cf96330DFc57EF",
        "0"
      ],
      "transaction": {
        "type": "0x02",
        "from": "0x965b0e63e00e7805569ee3b428cf96330dfc57ef",
        "to": "0xb0d7db655cf59deacf8eaa7a258d0161c42d6b5c",
        "gas": "0x1400b",
        "value": "0x0",
        "data": "0x23b872dd000000000000000000000000a8495f277b09516097f395bc0d263c6db2f5399f000000000000000000000000965b0e63e00e7805569ee3b428cf96330dfc57ef0000000000000000000000000000000000000000000000000000000000000000",
        "nonce": "0x32c",
        "accessList": []
      },
      "additionalContracts": [],
      "isFixedGasLimit": false
    }
  ],
  "receipts": [
    {
      "transactionHash": "0xdff480b4e128141994434f72f9ef2ff827d669c3973d7ffb96a9902f6b2df1ae",
      "transactionIndex": "0x4",
      "blockHash": "0x4a6bdfe5bed03d5074b6f4fc7329252a02c3fb57d28cbed25f4ce48c89f65381",
      "blockNumber": "0x2bc486e",
      "from": "0x965B0E63e00E7805569ee3B428Cf96330DFc57EF",
      "to": "0xB0d7Db655Cf59DEAcF8EaA7A258d0161c42d6b5c",
      "cumulativeGasUsed": "0x6cf22",
      "gasUsed": "0xe7b5",
      "contractAddress": null,
      "logs": [
        {
          "address": "0xB0d7Db655Cf59DEAcF8EaA7A258d0161c42d6b5c",
          "topics": [
            "0x8c5be1e5ebec7d5bd14f71427d1e84f3dd0314c0f7b2291e5b200ac8c7c3b925",
            "0x000000000000000000000000a8495f277b09516097f395bc0d263c6db2f5399f",
            "0x0000000000000000000000000000000000000000000000000000000000000000",
            "0x0000000000000000000000000000000000000000000000000000000000000000"
          ],
          "data": "0x",
          "blockHash": "0x4a6bdfe5bed03d5074b6f4fc7329252a02c3fb57d28cbed25f4ce48c89f65381",
          "blockNumber": "0x2bc486e",
          "transactionHash": "0xdff480b4e128141994434f72f9ef2ff827d669c3973d7ffb96a9902f6b2df1ae",
          "transactionIndex": "0x4",
          "logIndex": "0x9",
          "removed": false
        },
        {
          "address": "0xB0d7Db655Cf59DEAcF8EaA7A258d0161c42d6b5c",
          "topics": [
            "0xddf252ad1be2c89b69c2b068fc378daa952ba7f163c4a11628f55a4df523b3ef",
            "0x000000000000000000000000a8495f277b09516097f395bc0d263c6db2f5399f",
            "0x000000000000000000000000965b0e63e00e7805569ee3b428cf96330dfc57ef",
            "0x0000000000000000000000000000000000000000000000000000000000000000"
          ],
          "data": "0x",
          "blockHash": "0x4a6bdfe5bed03d5074b6f4fc7329252a02c3fb57d28cbed25f4ce48c89f65381",
          "blockNumber": "0x2bc486e",
          "transactionHash": "0xdff480b4e128141994434f72f9ef2ff827d669c3973d7ffb96a9902f6b2df1ae",
          "transactionIndex": "0x4",
          "logIndex": "0xa",
          "removed": false
        },
        {
          "address": "0x0000000000000000000000000000000000001010",
          "topics": [
            "0x4dfe1bbbcf077ddc3e01291eea2d5c70c2b422b415d95645b9adcfd678cb1d63",
            "0x0000000000000000000000000000000000000000000000000000000000001010",
            "0x000000000000000000000000965b0e63e00e7805569ee3b428cf96330dfc57ef",
            "0x000000000000000000000000cfef2a3dc244ef7d0fb93c45e762d671445c4569"
          ],
          "data": "0x00000000000000000000000000000000000000000000000000065274756c9c000000000000000000000000000000000000000000000000006256090b16d4541f00000000000000000000000000000000000000000000017b4cf3a48c3ae0be68000000000000000000000000000000000000000000000000624fb696a167b81f00000000000000000000000000000000000000000000017b4cf9f700b04d5a68",
          "blockHash": "0x4a6bdfe5bed03d5074b6f4fc7329252a02c3fb57d28cbed25f4ce48c89f65381",
          "blockNumber": "0x2bc486e",
          "transactionHash": "0xdff480b4e128141994434f72f9ef2ff827d669c3973d7ffb96a9902f6b2df1ae",
          "transactionIndex": "0x4",
          "logIndex": "0xb",
          "removed": false
        }
      ],
      "status": "0x1",
      "logsBloom": "0x00000000010000000000000000000000000000000000002000000000000000100000000000000000000000000000000000008000000000000000000000200000000000000002000000000008000004900000000000000004020100000000000000000000020000000000000000000800000000000000000080000010000000000000000000000000000000000000000000000000000000000000000000000000220000000000000000000800000000000000000000000000000000000000004000000002000000000001000000000000000000000000000000100040000020000010000000000008000000000000000000000000000000000000040000100000",
      "type": "0x2",
      "effectiveGasPrice": "0x6fc23ac0f"
    }
  ],
  "libraries": [],
  "pending": [],
  "returns": {},
  "timestamp": 1707882535,
  "chain": 80001,
  "multi": false,
  "commit": "1d8d3be"
}