{
  "transactions": [
    {
      "hash": "0x00b886de4355c7f76249450ad207829142825e4708f703d0b5711b6d2957627b",
      "transactionType": "CALL",
      "contractName": null,
      "contractAddress": "0xCc4B43D0F78A683541b765F4Dffa4523745be17c",
      "function": "transferFrom(address,address,uint256)",
      "arguments": [
        "0x965B0E63e00E7805569ee3B428Cf96330DFc57EF",
        "0x965B0E63e00E7805569ee3B428Cf96330DFc57EF",
        "0"
      ],
      "transaction": {
        "type": "0x02",
        "from": "0x965b0e63e00e7805569ee3b428cf96330dfc57ef",
        "to": "0xcc4b43d0f78a683541b765f4dffa4523745be17c",
        "gas": "0xb585",
        "value": "0x0",
        "data": "0x23b872dd000000000000000000000000965b0e63e00e7805569ee3b428cf96330dfc57ef000000000000000000000000965b0e63e00e7805569ee3b428cf96330dfc57ef0000000000000000000000000000000000000000000000000000000000000000",
        "nonce": "0x329",
        "accessList": []
      },
      "additionalContracts": [],
      "isFixedGasLimit": false
    }
  ],
  "receipts": [
    {
      "transactionHash": "0x00b886de4355c7f76249450ad207829142825e4708f703d0b5711b6d2957627b",
      "transactionIndex": "0x0",
      "blockHash": "0x1b94fd81e764434a35a8f2244d8be3cb33accef651eba37bf15b32c29148f2b2",
      "blockNumber": "0x2bc4814",
      "from": "0x965B0E63e00E7805569ee3B428Cf96330DFc57EF",
      "to": "0xCc4B43D0F78A683541b765F4Dffa4523745be17c",
      "cumulativeGasUsed": "0x836c",
      "gasUsed": "0x836c",
      "contractAddress": null,
      "logs": [
        {
          "address": "0xCc4B43D0F78A683541b765F4Dffa4523745be17c",
          "topics": [
            "0x8c5be1e5ebec7d5bd14f71427d1e84f3dd0314c0f7b2291e5b200ac8c7c3b925",
            "0x000000000000000000000000965b0e63e00e7805569ee3b428cf96330dfc57ef",
            "0x0000000000000000000000000000000000000000000000000000000000000000",
            "0x0000000000000000000000000000000000000000000000000000000000000000"
          ],
          "data": "0x",
          "blockHash": "0x1b94fd81e764434a35a8f2244d8be3cb33accef651eba37bf15b32c29148f2b2",
          "blockNumber": "0x2bc4814",
          "transactionHash": "0x00b886de4355c7f76249450ad207829142825e4708f703d0b5711b6d2957627b",
          "transactionIndex": "0x0",
          "logIndex": "0x0",
          "removed": false
        },
        {
          "address": "0xCc4B43D0F78A683541b765F4Dffa4523745be17c",
          "topics": [
            "0xddf252ad1be2c89b69c2b068fc378daa952ba7f163c4a11628f55a4df523b3ef",
            "0x000000000000000000000000965b0e63e00e7805569ee3b428cf96330dfc57ef",
            "0x000000000000000000000000965b0e63e00e7805569ee3b428cf96330dfc57ef",
            "0x0000000000000000000000000000000000000000000000000000000000000000"
          ],
          "data": "0x",
          "blockHash": "0x1b94fd81e764434a35a8f2244d8be3cb33accef651eba37bf15b32c29148f2b2",
          "blockNumber": "0x2bc4814",
          "transactionHash": "0x00b886de4355c7f76249450ad207829142825e4708f703d0b5711b6d2957627b",
          "transactionIndex": "0x0",
          "logIndex": "0x1",
          "removed": false
        },
        {
          "address": "0x0000000000000000000000000000000000001010",
          "topics": [
            "0x4dfe1bbbcf077ddc3e01291eea2d5c70c2b422b415d95645b9adcfd678cb1d63",
            "0x0000000000000000000000000000000000000000000000000000000000001010",
            "0x000000000000000000000000965b0e63e00e7805569ee3b428cf96330dfc57ef",
            "0x000000000000000000000000cfef2a3dc244ef7d0fb93c45e762d671445c4569"
          ],
          "data": "0x000000000000000000000000000000000000000000000000000395f8a0109000000000000000000000000000000000000000000000000000625a539713312ed900000000000000000000000000000000000000000000017b453863d8c2ac10150000000000000000000000000000000000000000000000006256bd9e73209ed900000000000000000000000000000000000000000000017b453bf9d162bca015",
          "blockHash": "0x1b94fd81e764434a35a8f2244d8be3cb33accef651eba37bf15b32c29148f2b2",
          "blockNumber": "0x2bc4814",
          "transactionHash": "0x00b886de4355c7f76249450ad207829142825e4708f703d0b5711b6d2957627b",
          "transactionIndex": "0x0",
          "logIndex": "0x2",
          "removed": false
        }
      ],
      "status": "0x1",
      "logsBloom": "0x00000000010000000000000000000000000000000000000000000000000000000000000000000000000000010000000000008000000000000000000000200000000000000002000000000008000004900000000000000000020100000004000000000000020000000000000000000800000000000000000080000010000000000000000000000000000000000000000000000000000000000000000000000000220000000000000000000000000000000000000000000000000000000000004000000002000000000001000000000000000000400000000000100000000020000010000000000000000000000000000000000000000000000000040000100000",
      "type": "0x2",
      "effectiveGasPrice": "0x6fc23ac0f"
    }
  ],
  "libraries": [],
  "pending": [],
  "returns": {},
  "timestamp": 1707882259,
  "chain": 80001,
  "multi": false,
  "commit": "1d8d3be"
}