{
  "transactions": [
    {
      "hash": "0xfa16e272d2b7447f94e7fe82894f6e0700f0c941f070183819ab0d79caffc31f",
      "transactionType": "CALL",
      "contractName": null,
      "contractAddress": "0xcfdb9e4a105cb0af8d0f8ab92f56f4d535754af9",
      "function": "setSupportedWarp(uint64,address)",
      "arguments": [
        "16015286601757825753",
        "0xaE579f16BA16312622cFa8d4eB2D97e5E4cae4a1"
      ],
      "transaction": {
        "from": "0x965b0e63e00e7805569ee3b428cf96330dfc57ef",
        "to": "0xcfdb9e4a105cb0af8d0f8ab92f56f4d535754af9",
        "gas": "0x1120d",
        "value": "0x0",
        "input": "0x382b94f0000000000000000000000000000000000000000000000000de41ba4fc9d91ad9000000000000000000000000ae579f16ba16312622cfa8d4eb2d97e5e4cae4a1",
        "nonce": "0x2",
        "chainId": "0xa869",
        "accessList": null,
        "type": null
      },
      "additionalContracts": [],
      "isFixedGasLimit": false
    }
  ],
  "receipts": [
    {
      "status": "0x1",
      "cumulativeGasUsed": "0xbb63",
      "logs": [
        {
          "address": "0xcfdb9e4a105cb0af8d0f8ab92f56f4d535754af9",
          "topics": [
            "0x17cbfa49e21405da04258d0749922ac47aca36501d4acd3e7f1167750dda12d4",
            "0x000000000000000000000000000000000000000000000000de41ba4fc9d91ad9",
            "0x000000000000000000000000ae579f16ba16312622cfa8d4eb2d97e5e4cae4a1"
          ],
          "data": "0x",
          "blockHash": "0xef3b66f420d7040d1103f8ce88a77eca039fe1cbb8a9b167e0bc364562790889",
          "blockNumber": "0x1ec58c8",
          "transactionHash": "0xfa16e272d2b7447f94e7fe82894f6e0700f0c941f070183819ab0d79caffc31f",
          "transactionIndex": "0x0",
          "logIndex": "0x0",
          "removed": false
        }
      ],
      "logsBloom": "0x00000000000000000100000000000000000000000000000000000000000000000000000000006000000000000000000000000000000200000000000000000000000000000000000000000000000000000000000000040000000000000000000000004004000000000200000000010000000000000000000000000000000000000000000000000000010000000000000000000020000000000000000000200000000000000000000000000000000000000000000000000000000000000000000000000000000000000000000000000000000000000000000000000000000000000000000000000000000000000000000000000000000000000000000000000000",
      "type": "0x2",
      "transactionHash": "0xfa16e272d2b7447f94e7fe82894f6e0700f0c941f070183819ab0d79caffc31f",
      "transactionIndex": "0x0",
      "blockHash": "0xef3b66f420d7040d1103f8ce88a77eca039fe1cbb8a9b167e0bc364562790889",
      "blockNumber": "0x1ec58c8",
      "gasUsed": "0xbb63",
      "effectiveGasPrice": "0x6fc23ac00",
      "from": "0x965b0e63e00e7805569ee3b428cf96330dfc57ef",
      "to": "0xcfdb9e4a105cb0af8d0f8ab92f56f4d535754af9",
      "contractAddress": null
    }
  ],
  "libraries": [],
  "pending": [],
  "returns": {},
  "timestamp": 1714120817,
  "chain": 43113,
  "commit": "d163066"
}