{
  "transactions": [
    {
      "hash": "0x7827a6c638b63ca01422eaa3d7ff2cec277eb1f38d8a92b96895f04147e2e644",
      "transactionType": "CREATE",
      "contractName": "DestroyEngine",
      "contractAddress": "0x05fE26E7c8A7D3Dc29434c46Cae8B2F0dF221409",
      "function": null,
      "arguments": null,
      "transaction": {
        "type": "0x02",
        "from": "0x965b0e63e00e7805569ee3b428cf96330dfc57ef",
        "gas": "0x342f8",
        "value": "0x0",
        "data": "0x608060405234801561001057600080fd5b50610203806100206000396000f3fe6080604052600436106100205760003560e01c8062f55d9d1461002d576000ff5b36610029576000ff5b6000ff5b34801561003957600080fd5b5061004d61004836600461013e565b61004f565b005b6000819050806001600160a01b0316638129fc1c6040518163ffffffff1660e01b8152600401600060405180830381600087803b15801561008f57600080fd5b505af11580156100a3573d6000803e3d6000fd5b50505050806001600160a01b0316634f1ef286306040516020016100dc906e646573746f727920656e67696e652160881b8152600f0190565b6040516020818303038152906040526040518363ffffffff1660e01b815260040161010892919061016e565b600060405180830381600087803b15801561012257600080fd5b505af1158015610136573d6000803e3d6000fd5b505050505050565b60006020828403121561015057600080fd5b81356001600160a01b038116811461016757600080fd5b9392505050565b60018060a01b03831681526000602060406020840152835180604085015260005b818110156101ab5785810183015185820160600152820161018f565b506000606082860101526060601f19601f83011685010192505050939250505056fea2646970667358221220d2802b8f23f90924dda1e7e802cefd8a57b24223b3ff408b3f4d7c680a4d409c64736f6c63430008180033",
        "nonce": "0x11a",
        "accessList": []
      },
      "additionalContracts": [],
      "isFixedGasLimit": false
    },
    {
      "hash": "0x130b49449c59acc6a86c0660cfef44ee504c9d0eeed7f5adfed722218a984b90",
      "transactionType": "CALL",
      "contractName": "DestroyEngine",
      "contractAddress": "0x05fE26E7c8A7D3Dc29434c46Cae8B2F0dF221409",
      "function": "destroy(address)",
      "arguments": [
        "0xCcc218D86d5224Db3DeFf70Fe3076BacECf8F12B"
      ],
      "transaction": {
        "type": "0x02",
        "from": "0x965b0e63e00e7805569ee3b428cf96330dfc57ef",
        "to": "0x05fe26e7c8a7d3dc29434c46cae8b2f0df221409",
        "gas": "0x2464f",
        "value": "0x0",
        "data": "0x00f55d9d000000000000000000000000ccc218d86d5224db3deff70fe3076bacecf8f12b",
        "nonce": "0x11b",
        "accessList": []
      },
      "additionalContracts": [],
      "isFixedGasLimit": false
    }
  ],
  "receipts": [],
  "libraries": [],
  "pending": [
    "0x7827a6c638b63ca01422eaa3d7ff2cec277eb1f38d8a92b96895f04147e2e644",
    "0x130b49449c59acc6a86c0660cfef44ee504c9d0eeed7f5adfed722218a984b90"
  ],
  "returns": {},
  "timestamp": 1708655103,
  "chain": 11155111,
  "multi": false,
  "commit": "fe8e83c"
}