{
  "transactions": [
    {
      "hash": "0x753188cdfde948295bc0614381baa9386fffd477ed7b51c681eeb5db4f934a00",
      "transactionType": "CREATE",
      "contractName": "DestroyEngine",
      "contractAddress": "0x168B4Fd7F4F9D291bA006dC1bc13D44bc0c7227e",
      "function": null,
      "arguments": null,
      "transaction": {
        "type": "0x02",
        "from": "0x965b0e63e00e7805569ee3b428cf96330dfc57ef",
        "gas": "0x33a39",
        "value": "0x0",
        "data": "0x608060405234801561001057600080fd5b506101fb806100206000396000f3fe608060405234801561001057600080fd5b50600436106100355760003560e01c8062f55d9d1461003a5780639e36021a1461004f575b600080fd5b61004d610048366004610136565b610055565b005b61004d33ff5b6000819050806001600160a01b0316638129fc1c6040518163ffffffff1660e01b8152600401600060405180830381600087803b15801561009557600080fd5b505af11580156100a9573d6000803e3d6000fd5b50506040805160048082526024820183526020820180516001600160e01b0316634f1b010d60e11b179052915163278f794360e11b81526001600160a01b0386169450634f1ef28693506101009230929101610166565b600060405180830381600087803b15801561011a57600080fd5b505af115801561012e573d6000803e3d6000fd5b505050505050565b60006020828403121561014857600080fd5b81356001600160a01b038116811461015f57600080fd5b9392505050565b60018060a01b03831681526000602060406020840152835180604085015260005b818110156101a357858101830151858201606001528201610187565b506000606082860101526060601f19601f83011685010192505050939250505056fea264697066735822122036a4e8442fc3ff9c8e444403c43be03d4e2725700a67476df8e23be6b263d4ef64736f6c63430008180033",
        "nonce": "0x11e",
        "accessList": []
      },
      "additionalContracts": [],
      "isFixedGasLimit": false
    },
    {
      "hash": "0xa25125e1455def9028b2b12c86a5dbff096488f97153903a245793bbc72914db",
      "transactionType": "CALL",
      "contractName": "DestroyEngine",
      "contractAddress": "0x168B4Fd7F4F9D291bA006dC1bc13D44bc0c7227e",
      "function": "destroy(address)",
      "arguments": [
        "0xa4b22Afe9690bc5AbB90f6D7D9B94F7516B13c19"
      ],
      "transaction": {
        "type": "0x02",
        "from": "0x965b0e63e00e7805569ee3b428cf96330dfc57ef",
        "to": "0x168b4fd7f4f9d291ba006dc1bc13d44bc0c7227e",
        "gas": "0x21828",
        "value": "0x0",
        "data": "0x00f55d9d000000000000000000000000a4b22afe9690bc5abb90f6d7d9b94f7516b13c19",
        "nonce": "0x11f",
        "accessList": []
      },
      "additionalContracts": [],
      "isFixedGasLimit": false
    }
  ],
  "receipts": [],
  "libraries": [],
  "pending": [
    "0x753188cdfde948295bc0614381baa9386fffd477ed7b51c681eeb5db4f934a00",
    "0xa25125e1455def9028b2b12c86a5dbff096488f97153903a245793bbc72914db"
  ],
  "returns": {},
  "timestamp": 1708656876,
  "chain": 11155111,
  "multi": false,
  "commit": "fe8e83c"
}