{
  "transactions": [
    {
      "hash": "0xd48510413f11c042599dd7d8ae1e91cb75fd9aec72e0f16120034bc7d852fe69",
      "transactionType": "CALL",
      "contractName": null,
      "contractAddress": "0xB004690A7125A11843c44a94A17dD7a24C7325E8",
      "function": "setTrustedRemoteAddress(uint16,bytes)",
      "arguments": [
        "10109",
        "0x1dd04d404eb496e57fa50de2e70f38709f03e7a2"
      ],
      "transaction": {
        "type": "0x02",
        "from": "0x965b0e63e00e7805569ee3b428cf96330dfc57ef",
        "to": "0xb004690a7125a11843c44a94a17dd7a24c7325e8",
        "gas": "0xb911",
        "value": "0x0",
        "data": "0xa6c3d165000000000000000000000000000000000000000000000000000000000000277d000000000000000000000000000000000000000000000000000000000000004000000000000000000000000000000000000000000000000000000000000000141dd04d404eb496e57fa50de2e70f38709f03e7a2000000000000000000000000",
        "nonce": "0xf4",
        "accessList": []
      },
      "additionalContracts": [],
      "isFixedGasLimit": false
    },
    {
      "hash": "0x9c3f9c33326355051ef66876056abb85fd17e84ff661db3538c01ebfbbea7974",
      "transactionType": "CALL",
      "contractName": null,
      "contractAddress": null,
      "function": null,
      "arguments": null,
      "transaction": {
        "type": "0x02",
        "from": "0x965b0e63e00e7805569ee3b428cf96330dfc57ef",
        "to": "0xb004690a7125a11843c44a94a17dd7a24c7325e8",
        "gas": "0x7199",
        "value": "0x5af3107a4000",
        "data": "0x",
        "nonce": "0xf5",
        "accessList": []
      },
      "additionalContracts": [],
      "isFixedGasLimit": false
    }
  ],
  "receipts": [],
  "libraries": [],
  "pending": [
    "0xd48510413f11c042599dd7d8ae1e91cb75fd9aec72e0f16120034bc7d852fe69",
    "0x9c3f9c33326355051ef66876056abb85fd17e84ff661db3538c01ebfbbea7974"
  ],
  "returns": {},
  "timestamp": 1707304690,
  "chain": 11155111,
  "multi": false,
  "commit": "39df2a0"
}