{
  "transactions": [
    {
      "hash": "0x45061a10f57e22dd416c0fbb75447482f290e1d791d42a44fa0fd6001eede0cb",
      "transactionType": "CREATE",
      "contractName": null,
      "contractAddress": "0x61A28e23D15DF90AC1ad6d7d955960dF79bd99F7",
      "function": null,
      "arguments": null,
      "transaction": {
        "type": "0x02",
        "from": "0x965b0e63e00e7805569ee3b428cf96330dfc57ef",
        "gas": "0xb13a6",
        "value": "0x0",
        "data": "0x60806040523480156200001157600080fd5b506040518060400160405280601781526020017f57656233204f6e6c696e65204a7564676520546f6b656e0000000000000000008152506040518060400160405280600781526020016615d1508cd3d29560ca1b8152508160039081620000799190620002ea565b506004620000888282620002ea565b505050620000c333620000a0620000c960201b60201c565b620000ad90600a620004cb565b620000bd906377359400620004e3565b620000ce565b62000513565b601290565b6001600160a01b038216620000fe5760405163ec442f0560e01b8152600060048201526024015b60405180910390fd5b6200010c6000838362000110565b5050565b6001600160a01b0383166200013f578060026000828254620001339190620004fd565b90915550620001b39050565b6001600160a01b03831660009081526020819052604090205481811015620001945760405163391434e360e21b81526001600160a01b03851660048201526024810182905260448101839052606401620000f5565b6001600160a01b03841660009081526020819052604090209082900390555b6001600160a01b038216620001d157600280548290039055620001f0565b6001600160a01b03821660009081526020819052604090208054820190555b816001600160a01b0316836001600160a01b03167fddf252ad1be2c89b69c2b068fc378daa952ba7f163c4a11628f55a4df523b3ef836040516200023691815260200190565b60405180910390a3505050565b634e487b7160e01b600052604160045260246000fd5b600181811c908216806200026e57607f821691505b6020821081036200028f57634e487b7160e01b600052602260045260246000fd5b50919050565b601f821115620002e5576000816000526020600020601f850160051c81016020861015620002c05750805b601f850160051c820191505b81811015620002e157828155600101620002cc565b5050505b505050565b81516001600160401b0381111562000306576200030662000243565b6200031e8162000317845462000259565b8462000295565b602080601f8311600181146200035657600084156200033d5750858301515b600019600386901b1c1916600185901b178555620002e1565b600085815260208120601f198616915b82811015620003875788860151825594840194600190910190840162000366565b5085821015620003a65787850151600019600388901b60f8161c191681555b5050505050600190811b01905550565b634e487b7160e01b600052601160045260246000fd5b600181815b808511156200040d578160001904821115620003f157620003f1620003b6565b80851615620003ff57918102915b93841c9390800290620003d1565b509250929050565b6000826200042657506001620004c5565b816200043557506000620004c5565b81600181146200044e5760028114620004595762000479565b6001915050620004c5565b60ff8411156200046d576200046d620003b6565b50506001821b620004c5565b5060208310610133831016604e8410600b84101617156200049e575081810a620004c5565b620004aa8383620003cc565b8060001904821115620004c157620004c1620003b6565b0290505b92915050565b6000620004dc60ff84168362000415565b9392505050565b8082028115828204841417620004c557620004c5620003b6565b80820180821115620004c557620004c5620003b6565b61072180620005236000396000f3fe608060405234801561001057600080fd5b50600436106100935760003560e01c8063313ce56711610066578063313ce567146100fe57806370a082311461010d57806395d89b4114610136578063a9059cbb1461013e578063dd62ed3e1461015157600080fd5b806306fdde0314610098578063095ea7b3146100b657806318160ddd146100d957806323b872dd146100eb575b600080fd5b6100a061018a565b6040516100ad919061056a565b60405180910390f35b6100c96100c43660046105d5565b61021c565b60405190151581526020016100ad565b6002545b6040519081526020016100ad565b6100c96100f93660046105ff565b610236565b604051601281526020016100ad565b6100dd61011b36600461063b565b6001600160a01b031660009081526020819052604090205490565b6100a061025a565b6100c961014c3660046105d5565b610269565b6100dd61015f36600461065d565b6001600160a01b03918216600090815260016020908152604080832093909416825291909152205490565b60606003805461019990610690565b80601f01602080910402602001604051908101604052809291908181526020018280546101c590610690565b80156102125780601f106101e757610100808354040283529160200191610212565b820191906000526020600020905b8154815290600101906020018083116101f557829003601f168201915b5050505050905090565b60003361022a818585610277565b60019150505b92915050565b600033610244858285610289565b61024f85858561030c565b506001949350505050565b60606004805461019990610690565b60003361022a81858561030c565b610284838383600161036b565b505050565b6001600160a01b03838116600090815260016020908152604080832093861683529290522054600019811461030657818110156102f757604051637dc7a0d960e11b81526001600160a01b038416600482015260248101829052604481018390526064015b60405180910390fd5b6103068484848403600061036b565b50505050565b6001600160a01b03831661033657604051634b637e8f60e11b8152600060048201526024016102ee565b6001600160a01b0382166103605760405163ec442f0560e01b8152600060048201526024016102ee565b610284838383610440565b6001600160a01b0384166103955760405163e602df0560e01b8152600060048201526024016102ee565b6001600160a01b0383166103bf57604051634a1406b160e11b8152600060048201526024016102ee565b6001600160a01b038085166000908152600160209081526040808320938716835292905220829055801561030657826001600160a01b0316846001600160a01b03167f8c5be1e5ebec7d5bd14f71427d1e84f3dd0314c0f7b2291e5b200ac8c7c3b9258460405161043291815260200190565b60405180910390a350505050565b6001600160a01b03831661046b57806002600082825461046091906106ca565b909155506104dd9050565b6001600160a01b038316600090815260208190526040902054818110156104be5760405163391434e360e21b81526001600160a01b038516600482015260248101829052604481018390526064016102ee565b6001600160a01b03841660009081526020819052604090209082900390555b6001600160a01b0382166104f957600280548290039055610518565b6001600160a01b03821660009081526020819052604090208054820190555b816001600160a01b0316836001600160a01b03167fddf252ad1be2c89b69c2b068fc378daa952ba7f163c4a11628f55a4df523b3ef8360405161055d91815260200190565b60405180910390a3505050565b60006020808352835180602085015260005b818110156105985785810183015185820160400152820161057c565b506000604082860101526040601f19601f8301168501019250505092915050565b80356001600160a01b03811681146105d057600080fd5b919050565b600080604083850312156105e857600080fd5b6105f1836105b9565b946020939093013593505050565b60008060006060848603121561061457600080fd5b61061d846105b9565b925061062b602085016105b9565b9150604084013590509250925092565b60006020828403121561064d57600080fd5b610656826105b9565b9392505050565b6000806040838503121561067057600080fd5b610679836105b9565b9150610687602084016105b9565b90509250929050565b600181811c908216806106a457607f821691505b6020821081036106c457634e487b7160e01b600052602260045260246000fd5b50919050565b8082018082111561023057634e487b7160e01b600052601160045260246000fdfea2646970667358221220d58803b4f99f4b0cffedcd40fd73b03315997a63c44d7670d94a6b3b4377c31c64736f6c63430008180033",
        "nonce": "0x2e5",
        "accessList": []
      },
      "additionalContracts": [],
      "isFixedGasLimit": false
    },
    {
      "hash": "0x5d161d205920f1604d2db5d267907fad3a99a26e86335878a381b766883cd49b",
      "transactionType": "CALL",
      "contractName": "src/07/ERC20Approve.sol:MyERC20",
      "contractAddress": "0x61A28e23D15DF90AC1ad6d7d955960dF79bd99F7",
      "function": "approve(address,uint256)",
      "arguments": [
        "0xb3203FD0A7c9F402dc669A8BD8d2fFE441B57419",
        "20000000000000000000"
      ],
      "transaction": {
        "type": "0x02",
        "from": "0x965b0e63e00e7805569ee3b428cf96330dfc57ef",
        "to": "0x61a28e23d15df90ac1ad6d7d955960df79bd99f7",
        "gas": "0xfa41",
        "value": "0x0",
        "data": "0x095ea7b3000000000000000000000000b3203fd0a7c9f402dc669a8bd8d2ffe441b57419000000000000000000000000000000000000000000000001158e460913d00000",
        "nonce": "0x2e6",
        "accessList": []
      },
      "additionalContracts": [],
      "isFixedGasLimit": false
    },
    {
      "hash": "0x77e0b105cb9ad62c0f6346db0839ce3b03f1574d09e3d68d1b2b4dbf4ab9159c",
      "transactionType": "CALL",
      "contractName": null,
      "contractAddress": "0xb3203FD0A7c9F402dc669A8BD8d2fFE441B57419",
      "function": "setWeb3ojt(address)",
      "arguments": [
        "0x61A28e23D15DF90AC1ad6d7d955960dF79bd99F7"
      ],
      "transaction": {
        "type": "0x02",
        "from": "0x965b0e63e00e7805569ee3b428cf96330dfc57ef",
        "to": "0xb3203fd0a7c9f402dc669a8bd8d2ffe441b57419",
        "gas": "0xed93",
        "value": "0x0",
        "data": "0x754788fa00000000000000000000000061a28e23d15df90ac1ad6d7d955960df79bd99f7",
        "nonce": "0x2e7",
        "accessList": []
      },
      "additionalContracts": [],
      "isFixedGasLimit": false
    }
  ],
  "receipts": [
    {
      "transactionHash": "0x45061a10f57e22dd416c0fbb75447482f290e1d791d42a44fa0fd6001eede0cb",
      "transactionIndex": "0x1",
      "blockHash": "0x68c89da479df31d51568a2949b75e5129dbdb78864c89aca77bcc10edaa1520f",
      "blockNumber": "0x2bbbd3b",
      "from": "0x965B0E63e00E7805569ee3B428Cf96330DFc57EF",
      "to": null,
      "cumulativeGasUsed": "0x9c8b1",
      "gasUsed": "0x8860b",
      "contractAddress": "0x61A28e23D15DF90AC1ad6d7d955960dF79bd99F7",
      "logs": [
        {
          "address": "0x61A28e23D15DF90AC1ad6d7d955960dF79bd99F7",
          "topics": [
            "0xddf252ad1be2c89b69c2b068fc378daa952ba7f163c4a11628f55a4df523b3ef",
            "0x0000000000000000000000000000000000000000000000000000000000000000",
            "0x000000000000000000000000965b0e63e00e7805569ee3b428cf96330dfc57ef"
          ],
          "data": "0x000000000000000000000000000000000000000006765c793fa10079d0000000",
          "blockHash": "0x68c89da479df31d51568a2949b75e5129dbdb78864c89aca77bcc10edaa1520f",
          "blockNumber": "0x2bbbd3b",
          "transactionHash": "0x45061a10f57e22dd416c0fbb75447482f290e1d791d42a44fa0fd6001eede0cb",
          "transactionIndex": "0x1",
          "logIndex": "0x3",
          "removed": false
        },
        {
          "address": "0x0000000000000000000000000000000000001010",
          "topics": [
            "0x4dfe1bbbcf077ddc3e01291eea2d5c70c2b422b415d95645b9adcfd678cb1d63",
            "0x0000000000000000000000000000000000000000000000000000000000001010",
            "0x000000000000000000000000965b0e63e00e7805569ee3b428cf96330dfc57ef",
            "0x000000000000000000000000c275dc8be39f50d12f66b6a63629c39da5bae5bd"
          ],
          "data": "0x000000000000000000000000000000000000000000000000003b8964e190640000000000000000000000000000000000000000000000000056dc00bc17801b5b000000000000000000000000000000000000000000001434f24622e9acddb62800000000000000000000000000000000000000000000000056a0775735efb75b000000000000000000000000000000000000000000001434f281ac4e8e6e1a28",
          "blockHash": "0x68c89da479df31d51568a2949b75e5129dbdb78864c89aca77bcc10edaa1520f",
          "blockNumber": "0x2bbbd3b",
          "transactionHash": "0x45061a10f57e22dd416c0fbb75447482f290e1d791d42a44fa0fd6001eede0cb",
          "transactionIndex": "0x1",
          "logIndex": "0x4",
          "removed": false
        }
      ],
      "status": "0x1",
      "logsBloom": "0x00000000000000000000000000000000000000000000000000000000000000000000000000000000000000000000000000008000002000000000000000000000000000000002000000000008000004900000000000000000040100000000000000000000020000000000000000000800020000000000000080080010000000000000000000000000000000000000000000000000000000000000000000000000200000000000000000000000000000000000000000000000000040000000004000000002000000000001010000000000000000000000000000100000000020000000000000000000000000000000000000000000000000000000000000100000",
      "type": "0x2",
      "effectiveGasPrice": "0x6fc23ac10"
    },
    {
      "transactionHash": "0x5d161d205920f1604d2db5d267907fad3a99a26e86335878a381b766883cd49b",
      "transactionIndex": "0x0",
      "blockHash": "0xa98c49c71f3154398f42084f69b131a70364df2296a2ebcfb6836326b3baff96",
      "blockNumber": "0x2bbbd3c",
      "from": "0x965B0E63e00E7805569ee3B428Cf96330DFc57EF",
      "to": "0x61A28e23D15DF90AC1ad6d7d955960dF79bd99F7",
      "cumulativeGasUsed": "0xb52f",
      "gasUsed": "0xb52f",
      "contractAddress": null,
      "logs": [
        {
          "address": "0x61A28e23D15DF90AC1ad6d7d955960dF79bd99F7",
          "topics": [
            "0x8c5be1e5ebec7d5bd14f71427d1e84f3dd0314c0f7b2291e5b200ac8c7c3b925",
            "0x000000000000000000000000965b0e63e00e7805569ee3b428cf96330dfc57ef",
            "0x000000000000000000000000b3203fd0a7c9f402dc669a8bd8d2ffe441b57419"
          ],
          "data": "0x000000000000000000000000000000000000000000000001158e460913d00000",
          "blockHash": "0xa98c49c71f3154398f42084f69b131a70364df2296a2ebcfb6836326b3baff96",
          "blockNumber": "0x2bbbd3c",
          "transactionHash": "0x5d161d205920f1604d2db5d267907fad3a99a26e86335878a381b766883cd49b",
          "transactionIndex": "0x0",
          "logIndex": "0x0",
          "removed": false
        },
        {
          "address": "0x0000000000000000000000000000000000001010",
          "topics": [
            "0x4dfe1bbbcf077ddc3e01291eea2d5c70c2b422b415d95645b9adcfd678cb1d63",
            "0x0000000000000000000000000000000000000000000000000000000000001010",
            "0x000000000000000000000000965b0e63e00e7805569ee3b428cf96330dfc57ef",
            "0x000000000000000000000000c275dc8be39f50d12f66b6a63629c39da5bae5bd"
          ],
          "data": "0x0000000000000000000000000000000000000000000000000004f18d8328940000000000000000000000000000000000000000000000000056a07757356756ab000000000000000000000000000000000000000000001434f286b2ed2d634e32000000000000000000000000000000000000000000000000569b85c9b23ec2ab000000000000000000000000000000000000000000001434f28ba47ab08be232",
          "blockHash": "0xa98c49c71f3154398f42084f69b131a70364df2296a2ebcfb6836326b3baff96",
          "blockNumber": "0x2bbbd3c",
          "transactionHash": "0x5d161d205920f1604d2db5d267907fad3a99a26e86335878a381b766883cd49b",
          "transactionIndex": "0x0",
          "logIndex": "0x1",
          "removed": false
        }
      ],
      "status": "0x1",
      "logsBloom": "0x00000000000000000000000000000000000000000000000000000000000000000000000000000000000000000000000000008000002000000000000000200000000000000002000000000000000004900000000000000000040100000000000000000000000000000000000000000000020000000000000080080000000000000000000000000000000000000000000000000000000000000040000000000000220000000000000000000000000000000000000000000000000040000000004000000000000000000001010000000000000002000000000000100000200000000010000000000000000000000000000000000000000000000000000000100000",
      "type": "0x2",
      "effectiveGasPrice": "0x6fc23ac10"
    },
    {
      "transactionHash": "0x77e0b105cb9ad62c0f6346db0839ce3b03f1574d09e3d68d1b2b4dbf4ab9159c",
      "transactionIndex": "0x1",
      "blockHash": "0xa98c49c71f3154398f42084f69b131a70364df2296a2ebcfb6836326b3baff96",
      "blockNumber": "0x2bbbd3c",
      "from": "0x965B0E63e00E7805569ee3B428Cf96330DFc57EF",
      "to": "0xb3203FD0A7c9F402dc669A8BD8d2fFE441B57419",
      "cumulativeGasUsed": "0x1612f",
      "gasUsed": "0xac00",
      "contractAddress": null,
      "logs": [
        {
          "address": "0x0000000000000000000000000000000000001010",
          "topics": [
            "0x4dfe1bbbcf077ddc3e01291eea2d5c70c2b422b415d95645b9adcfd678cb1d63",
            "0x0000000000000000000000000000000000000000000000000000000000001010",
            "0x000000000000000000000000965b0e63e00e7805569ee3b428cf96330dfc57ef",
            "0x000000000000000000000000c275dc8be39f50d12f66b6a63629c39da5bae5bd"
          ],
          "data": "0x0000000000000000000000000000000000000000000000000004b167f7900000000000000000000000000000000000000000000000000000569b85c9b2336fbb000000000000000000000000000000000000000000001434f28ba47ab08be2320000000000000000000000000000000000000000000000005696d461baa36fbb000000000000000000000000000000000000000000001434f29055e2a81be232",
          "blockHash": "0xa98c49c71f3154398f42084f69b131a70364df2296a2ebcfb6836326b3baff96",
          "blockNumber": "0x2bbbd3c",
          "transactionHash": "0x77e0b105cb9ad62c0f6346db0839ce3b03f1574d09e3d68d1b2b4dbf4ab9159c",
          "transactionIndex": "0x1",
          "logIndex": "0x2",
          "removed": false
        }
      ],
      "status": "0x1",
      "logsBloom": "0x00000000000000000000000000000000000000000000000000000000000000000000000000000000000000000000000000008000002000000000000000000000000000000002000000000000000004900000000000000000040100000000000000000000000000000000000000000000000000000000000080000000000000000000000000000000000000000000000000000000000000000000000000000000200000000000000000000000000000000000000000000000000040000000004000000000000000000001000000000000000000000000000000100000000000000000000000000000000000000000000000000000000000000000000000100000",
      "type": "0x2",
      "effectiveGasPrice": "0x6fc23ac10"
    }
  ],
  "libraries": [],
  "pending": [],
  "returns": {},
  "timestamp": 1707797333,
  "chain": 80001,
  "multi": false,
  "commit": "050f9e8"
}