{
  "transactions": [
    {
      "hash": "0xb169d14b378ebf58922ad14a825bb3f8fc796f16dcc3992d3d857c024391c5a0",
      "transactionType": "CREATE",
      "contractName": "MyMultiplicationCalculator",
      "contractAddress": "0xFE301ac20Be4A5348b22e201385BA15bf9C4ef6A",
      "function": null,
      "arguments": null,
      "transaction": {
        "type": "0x02",
        "from": "0x965b0e63e00e7805569ee3b428cf96330dfc57ef",
        "gas": "0x20087",
        "value": "0x0",
        "data": "0x608060405234801561001057600080fd5b5060dc8061001f6000396000f3fe6080604052348015600f57600080fd5b506004361060285760003560e01c8063165c4a1614602d575b600080fd5b603c60383660046061565b604e565b60405190815260200160405180910390f35b6000605882846082565b90505b92915050565b60008060408385031215607357600080fd5b50508035926020909101359150565b8082028115828204841417605b57634e487b7160e01b600052601160045260246000fdfea2646970667358221220b16e5639f6e022cf9ea22abc5deb279ab987d98c1752fc257401ac312c3c823664736f6c63430008180033",
        "nonce": "0x2d4",
        "accessList": []
      },
      "additionalContracts": [],
      "isFixedGasLimit": false
    },
    {
      "hash": "0x1acd4316c900fe5ad8c1d1dc2e56b694a70ead5376d8a0c0fdb567395c434786",
      "transactionType": "CALL",
      "contractName": null,
      "contractAddress": "0x8E3C85089463459E150fF2EEA89940A96311e939",
      "function": "setMultiplicationCalculator(address)",
      "arguments": [
        "0xFE301ac20Be4A5348b22e201385BA15bf9C4ef6A"
      ],
      "transaction": {
        "type": "0x02",
        "from": "0x965b0e63e00e7805569ee3b428cf96330dfc57ef",
        "to": "0x8e3c85089463459e150ff2eea89940a96311e939",
        "gas": "0xed93",
        "value": "0x0",
        "data": "0x218fefdc000000000000000000000000fe301ac20be4a5348b22e201385ba15bf9c4ef6a",
        "nonce": "0x2d5",
        "accessList": []
      },
      "additionalContracts": [],
      "isFixedGasLimit": false
    }
  ],
  "receipts": [],
  "libraries": [],
  "pending": [
    "0xb169d14b378ebf58922ad14a825bb3f8fc796f16dcc3992d3d857c024391c5a0",
    "0x1acd4316c900fe5ad8c1d1dc2e56b694a70ead5376d8a0c0fdb567395c434786"
  ],
  "returns": {},
  "timestamp": 1707794731,
  "chain": 80001,
  "multi": false,
  "commit": "050f9e8"
}