{
  "transactions": [
    {
      "hash": "0xb9bc173384fb5541d3ab12e7a379d53b8cf7b6b6a1e81a479144fb03489c2adc",
      "transactionType": "CALL",
      "contractName": null,
      "contractAddress": "0xFFD8141940e97198477c2646942ba75e4481E1a4",
      "function": "transferFrom(address,address,uint256)",
      "arguments": [
        "0xbF88E352e9a66423b57a6F66ddfcA6637BE03EAC",
        "0x965B0E63e00E7805569ee3B428Cf96330DFc57EF",
        "20000000000000000000"
      ],
      "transaction": {
        "type": "0x02",
        "from": "0x965b0e63e00e7805569ee3b428cf96330dfc57ef",
        "to": "0xffd8141940e97198477c2646942ba75e4481e1a4",
        "gas": "0x12ccc",
        "value": "0x0",
        "data": "0x23b872dd000000000000000000000000bf88e352e9a66423b57a6f66ddfca6637be03eac000000000000000000000000965b0e63e00e7805569ee3b428cf96330dfc57ef000000000000000000000000000000000000000000000001158e460913d00000",
        "nonce": "0x2ea",
        "accessList": []
      },
      "additionalContracts": [],
      "isFixedGasLimit": false
    }
  ],
  "receipts": [
    {
      "transactionHash": "0xb9bc173384fb5541d3ab12e7a379d53b8cf7b6b6a1e81a479144fb03489c2adc",
      "transactionIndex": "0xa",
      "blockHash": "0xa8d1858a3f246299fd0d10914d55c6eb822d04f9be155ec1200a6322aba6731d",
      "blockNumber": "0x2bbbe00",
      "from": "0x965B0E63e00E7805569ee3B428Cf96330DFc57EF",
      "to": "0xFFD8141940e97198477c2646942ba75e4481E1a4",
      "cumulativeGasUsed": "0xdaf3b",
      "gasUsed": "0xd9c6",
      "contractAddress": null,
      "logs": [
        {
          "address": "0xFFD8141940e97198477c2646942ba75e4481E1a4",
          "topics": [
            "0x8c5be1e5ebec7d5bd14f71427d1e84f3dd0314c0f7b2291e5b200ac8c7c3b925",
            "0x000000000000000000000000bf88e352e9a66423b57a6f66ddfca6637be03eac",
            "0x000000000000000000000000965b0e63e00e7805569ee3b428cf96330dfc57ef"
          ],
          "data": "0x0000000000000000000000000000000000000000000000000000000000000000",
          "blockHash": "0xa8d1858a3f246299fd0d10914d55c6eb822d04f9be155ec1200a6322aba6731d",
          "blockNumber": "0x2bbbe00",
          "transactionHash": "0xb9bc173384fb5541d3ab12e7a379d53b8cf7b6b6a1e81a479144fb03489c2adc",
          "transactionIndex": "0xa",
          "logIndex": "0x1c",
          "removed": false
        },
        {
          "address": "0xFFD8141940e97198477c2646942ba75e4481E1a4",
          "topics": [
            "0xddf252ad1be2c89b69c2b068fc378daa952ba7f163c4a11628f55a4df523b3ef",
            "0x000000000000000000000000bf88e352e9a66423b57a6f66ddfca6637be03eac",
            "0x000000000000000000000000965b0e63e00e7805569ee3b428cf96330dfc57ef"
          ],
          "data": "0x000000000000000000000000000000000000000000000001158e460913d00000",
          "blockHash": "0xa8d1858a3f246299fd0d10914d55c6eb822d04f9be155ec1200a6322aba6731d",
          "blockNumber": "0x2bbbe00",
          "transactionHash": "0xb9bc173384fb5541d3ab12e7a379d53b8cf7b6b6a1e81a479144fb03489c2adc",
          "transactionIndex": "0xa",
          "logIndex": "0x1d",
          "removed": false
        },
        {
          "address": "0x0000000000000000000000000000000000001010",
          "topics": [
            "0x4dfe1bbbcf077ddc3e01291eea2d5c70c2b422b415d95645b9adcfd678cb1d63",
            "0x0000000000000000000000000000000000000000000000000000000000001010",
            "0x000000000000000000000000965b0e63e00e7805569ee3b428cf96330dfc57ef",
            "0x0000000000000000000000005082f249cdb2f2c1ee035e4f423c46ea2dab3ab1"
          ],
          "data": "0x0000000000000000000000000000000000000000000000000005f12140630800000000000000000000000000000000000000000000000000568bdd59f508361c00000000000000000000000000000000000000000000063fb6d5e6674ced55470000000000000000000000000000000000000000000000005685ec38b4a52e1c00000000000000000000000000000000000000000000063fb6dbd7888d505d47",
          "blockHash": "0xa8d1858a3f246299fd0d10914d55c6eb822d04f9be155ec1200a6322aba6731d",
          "blockNumber": "0x2bbbe00",
          "transactionHash": "0xb9bc173384fb5541d3ab12e7a379d53b8cf7b6b6a1e81a479144fb03489c2adc",
          "transactionIndex": "0xa",
          "logIndex": "0x1e",
          "removed": false
        }
      ],
      "status": "0x1",
      "logsBloom": "0x00000000000000000000000000000000000000000000000000000000020000000000000002000000000000000000000000008000000000000000000000200000000000000002000000000008000004920000000000000000000100000000000000000000000000000000000000000008000000000000000080000010000000000000000000000000000000000000040000000000000000000000000000000000220000000000000000000000000000000000000000000000000000000000004000000002000000000001000000000000000000000000000000100000000000000010000008000080002000000000000000000000020000000000000000100000",
      "type": "0x2",
      "effectiveGasPrice": "0x6fc23ac0f"
    }
  ],
  "libraries": [],
  "pending": [],
  "returns": {},
  "timestamp": 1707797827,
  "chain": 80001,
  "multi": false,
  "commit": "050f9e8"
}