{
  "transactions": [
    {
      "hash": "0x1ffbb32d3d0090febad7dbcbe5f9732b04764dbdb33e69a4ef6a96efbdebcb0b",
      "transactionType": "CALL",
      "contractName": null,
      "contractAddress": "0xFE421Fafba9aAd5C80D6b151c27d707265F4F9EA",
      "function": "trustAddress(address)",
      "arguments": [
        "0xE43Dae2f4142640E4417d2789B48d46c71ee4E97"
      ],
      "transaction": {
        "type": "0x02",
        "from": "0x965b0e63e00e7805569ee3b428cf96330dfc57ef",
        "to": "0xfe421fafba9aad5c80d6b151c27d707265f4f9ea",
        "gas": "0x1f695",
        "value": "0x0",
        "data": "0x5cdf1649000000000000000000000000e43dae2f4142640e4417d2789b48d46c71ee4e97",
        "nonce": "0x2bb",
        "accessList": []
      },
      "additionalContracts": [],
      "isFixedGasLimit": false
    }
  ],
  "receipts": [],
  "libraries": [],
  "pending": [
    "0x1ffbb32d3d0090febad7dbcbe5f9732b04764dbdb33e69a4ef6a96efbdebcb0b"
  ],
  "returns": {},
  "timestamp": 1707312712,
  "chain": 80001,
  "multi": false,
  "commit": "39df2a0"
}