{
  "transactions": [
    {
      "hash": "0x8c80b352b0c584393b035bf470c6048440c24b03d1e6d0d847fd412668af5aa6",
      "transactionType": "CALL",
      "contractName": null,
      "contractAddress": "0x1e5501bf7a4821bE9251Aa617560c03f481A39bd",
      "function": "trustAddress(address)",
      "arguments": [
        "0xe9b53942eadEeE83EB998554C042955B248bb30A"
      ],
      "transaction": {
        "type": "0x02",
        "from": "0x965b0e63e00e7805569ee3b428cf96330dfc57ef",
        "to": "0x1e5501bf7a4821be9251aa617560c03f481a39bd",
        "gas": "0x1f695",
        "value": "0x0",
        "data": "0x5cdf1649000000000000000000000000e9b53942eadeee83eb998554c042955b248bb30a",
        "nonce": "0x2bd",
        "accessList": []
      },
      "additionalContracts": [],
      "isFixedGasLimit": false
    }
  ],
  "receipts": [
    {
      "transactionHash": "0x8c80b352b0c584393b035bf470c6048440c24b03d1e6d0d847fd412668af5aa6",
      "transactionIndex": "0x1",
      "blockHash": "0x5cb40579f0c27c27490dd0c7308a1ac786a212d71f774127988bcbe7fd28962c",
      "blockNumber": "0x2b8a3f1",
      "from": "0x965B0E63e00E7805569ee3B428Cf96330DFc57EF",
      "to": "0x1e5501bf7a4821bE9251Aa617560c03f481A39bd",
      "cumulativeGasUsed": "0x2968d",
      "gasUsed": "0x16bdd",
      "contractAddress": null,
      "logs": [
        {
          "address": "0x0000000000000000000000000000000000001010",
          "topics": [
            "0x4dfe1bbbcf077ddc3e01291eea2d5c70c2b422b415d95645b9adcfd678cb1d63",
            "0x0000000000000000000000000000000000000000000000000000000000001010",
            "0x000000000000000000000000965b0e63e00e7805569ee3b428cf96330dfc57ef",
            "0x0000000000000000000000004cefb7df2ff89a05ddd0176de11e01ef0cf7ed84"
          ],
          "data": "0x0000000000000000000000000000000000000000000000000009ed8e3faf7c0000000000000000000000000000000000000000000000000055ab29729ab11031000000000000000000000000000000000000000000000064dff081444829122900000000000000000000000000000000000000000000000055a13be45b019431000000000000000000000000000000000000000000000064dffa6ed287d88e29",
          "blockHash": "0x5cb40579f0c27c27490dd0c7308a1ac786a212d71f774127988bcbe7fd28962c",
          "blockNumber": "0x2b8a3f1",
          "transactionHash": "0x8c80b352b0c584393b035bf470c6048440c24b03d1e6d0d847fd412668af5aa6",
          "transactionIndex": "0x1",
          "logIndex": "0x3",
          "removed": false
        }
      ],
      "status": "0x1",
      "logsBloom": "0x00000000000000000000000000000000000000000000000000000000000000000000000000000000000000000000000000008000000000000000000000000000000000000002000000000000000004900000000001000000000100000000000000000001000000000000000000000000000000000000000080000000000000000000000000000020000000000000000000000000000000000000000000000000200000000000000000000000000000000000000000000000000000000000004000000000000000000001000000000000000000000000000000100000000000000000000000000000000000000000000000000000000000000000000000100000",
      "type": "0x2",
      "effectiveGasPrice": "0x6fc23ac10"
    }
  ],
  "libraries": [],
  "pending": [],
  "returns": {},
  "timestamp": 1707313941,
  "chain": 80001,
  "multi": false,
  "commit": "39df2a0"
}