{
  "transactions": [
    {
      "hash": "0x1ffbb32d3d0090febad7dbcbe5f9732b04764dbdb33e69a4ef6a96efbdebcb0b",
      "transactionType": "CALL",
      "contractName": null,
      "contractAddress": "0xFE421Fafba9aAd5C80D6b151c27d707265F4F9EA",
      "function": "trustAddress(address)",
      "arguments": [
        "0xE43Dae2f4142640E4417d2789B48d46c71ee4E97"
      ],
      "transaction": {
        "type": "0x02",
        "from": "0x965b0e63e00e7805569ee3b428cf96330dfc57ef",
        "to": "0xfe421fafba9aad5c80d6b151c27d707265f4f9ea",
        "gas": "0x1f695",
        "value": "0x0",
        "data": "0x5cdf1649000000000000000000000000e43dae2f4142640e4417d2789b48d46c71ee4e97",
        "nonce": "0x2bb",
        "accessList": []
      },
      "additionalContracts": [],
      "isFixedGasLimit": false
    }
  ],
  "receipts": [
    {
      "transactionHash": "0x1ffbb32d3d0090febad7dbcbe5f9732b04764dbdb33e69a4ef6a96efbdebcb0b",
      "transactionIndex": "0x0",
      "blockHash": "0x187dc080ed1a0bd6545ad2206d2011231bd8d72115ac079c9e7f618b23f5a297",
      "blockNumber": "0x2b8a1e2",
      "from": "0x965B0E63e00E7805569ee3B428Cf96330DFc57EF",
      "to": "0xFE421Fafba9aAd5C80D6b151c27d707265F4F9EA",
      "cumulativeGasUsed": "0x16bdd",
      "gasUsed": "0x16bdd",
      "contractAddress": null,
      "logs": [
        {
          "address": "0x0000000000000000000000000000000000001010",
          "topics": [
            "0x4dfe1bbbcf077ddc3e01291eea2d5c70c2b422b415d95645b9adcfd678cb1d63",
            "0x0000000000000000000000000000000000000000000000000000000000001010",
            "0x000000000000000000000000965b0e63e00e7805569ee3b428cf96330dfc57ef",
            "0x0000000000000000000000004cefb7df2ff89a05ddd0176de11e01ef0cf7ed84"
          ],
          "data": "0x0000000000000000000000000000000000000000000000000009ed8e3faf7c000000000000000000000000000000000000000000000000005696e25235231921000000000000000000000000000000000000000000000064b4573ee201e9a77b000000000000000000000000000000000000000000000000568cf4c3f5739d21000000000000000000000000000000000000000000000064b4612c704199237b",
          "blockHash": "0x187dc080ed1a0bd6545ad2206d2011231bd8d72115ac079c9e7f618b23f5a297",
          "blockNumber": "0x2b8a1e2",
          "transactionHash": "0x1ffbb32d3d0090febad7dbcbe5f9732b04764dbdb33e69a4ef6a96efbdebcb0b",
          "transactionIndex": "0x0",
          "logIndex": "0x0",
          "removed": false
        }
      ],
      "status": "0x1",
      "logsBloom": "0x00000000000000000000000000000000000000000000000000000000000000000000000000000000000000000000000000008000000000000000000000000000000000000002000000000000000004900000000001000000000100000000000000000001000000000000000000000000000000000000000080000000000000000000000000000020000000000000000000000000000000000000000000000000200000000000000000000000000000000000000000000000000000000000004000000000000000000001000000000000000000000000000000100000000000000000000000000000000000000000000000000000000000000000000000100000",
      "type": "0x2",
      "effectiveGasPrice": "0x6fc23ac10"
    }
  ],
  "libraries": [],
  "pending": [],
  "returns": {},
  "timestamp": 1707312719,
  "chain": 80001,
  "multi": false,
  "commit": "39df2a0"
}