{
  "transactions": [
    {
      "hash": "0x6e6b5b82047b98ced6a5284bb3f5a636f074763c522b47f54158cf5df758cf83",
      "transactionType": "CALL",
      "contractName": null,
      "contractAddress": "0xCc4B43D0F78A683541b765F4Dffa4523745be17c",
      "function": "approve(address,uint256)",
      "arguments": [
        "0xCc4B43D0F78A683541b765F4Dffa4523745be17c",
        "0"
      ],
      "transaction": {
        "type": "0x02",
        "from": "0x965b0e63e00e7805569ee3b428cf96330dfc57ef",
        "to": "0xcc4b43d0f78a683541b765f4dffa4523745be17c",
        "gas": "0x10996",
        "value": "0x0",
        "data": "0x095ea7b3000000000000000000000000cc4b43d0f78a683541b765f4dffa4523745be17c0000000000000000000000000000000000000000000000000000000000000000",
        "nonce": "0x30e",
        "accessList": []
      },
      "additionalContracts": [],
      "isFixedGasLimit": false
    }
  ],
  "receipts": [
    {
      "transactionHash": "0x6e6b5b82047b98ced6a5284bb3f5a636f074763c522b47f54158cf5df758cf83",
      "transactionIndex": "0x1",
      "blockHash": "0x55b7de62a5129ed24eaec44f4cd7d28f1031d44fc2b184c8b66d09c196f2a090",
      "blockNumber": "0x2bc3b57",
      "from": "0x965B0E63e00E7805569ee3B428Cf96330DFc57EF",
      "to": "0xCc4B43D0F78A683541b765F4Dffa4523745be17c",
      "cumulativeGasUsed": "0x1eaf8",
      "gasUsed": "0xc048",
      "contractAddress": null,
      "logs": [
        {
          "address": "0xCc4B43D0F78A683541b765F4Dffa4523745be17c",
          "topics": [
            "0x8c5be1e5ebec7d5bd14f71427d1e84f3dd0314c0f7b2291e5b200ac8c7c3b925",
            "0x000000000000000000000000965b0e63e00e7805569ee3b428cf96330dfc57ef",
            "0x000000000000000000000000cc4b43d0f78a683541b765f4dffa4523745be17c",
            "0x0000000000000000000000000000000000000000000000000000000000000000"
          ],
          "data": "0x",
          "blockHash": "0x55b7de62a5129ed24eaec44f4cd7d28f1031d44fc2b184c8b66d09c196f2a090",
          "blockNumber": "0x2bc3b57",
          "transactionHash": "0x6e6b5b82047b98ced6a5284bb3f5a636f074763c522b47f54158cf5df758cf83",
          "transactionIndex": "0x1",
          "logIndex": "0x3",
          "removed": false
        },
        {
          "address": "0x0000000000000000000000000000000000001010",
          "topics": [
            "0x4dfe1bbbcf077ddc3e01291eea2d5c70c2b422b415d95645b9adcfd678cb1d63",
            "0x0000000000000000000000000000000000000000000000000000000000001010",
            "0x000000000000000000000000965b0e63e00e7805569ee3b428cf96330dfc57ef",
            "0x000000000000000000000000cfef2a3dc244ef7d0fb93c45e762d671445c4569"
          ],
          "data": "0x00000000000000000000000000000000000000000000000000053f11ab08600000000000000000000000000000000000000000000000000063047642d98cacb500000000000000000000000000000000000000000000017af28a03bdf53c9cdf00000000000000000000000000000000000000000000000062ff37312e844cb500000000000000000000000000000000000000000000017af28f42cfa044fcdf",
          "blockHash": "0x55b7de62a5129ed24eaec44f4cd7d28f1031d44fc2b184c8b66d09c196f2a090",
          "blockNumber": "0x2bc3b57",
          "transactionHash": "0x6e6b5b82047b98ced6a5284bb3f5a636f074763c522b47f54158cf5df758cf83",
          "transactionIndex": "0x1",
          "logIndex": "0x4",
          "removed": false
        }
      ],
      "status": "0x1",
      "logsBloom": "0x00000000010000000000000000000000000000000000000000200000000000000000000000000000000000010080000000008000000000000000000000200000000000000002000000000000000004900000000000000000020100000004000000000000020000000000000000000800000000000000000080000000000000000000000000000000000020000000000000000000000000000000000000000000220000000000000000000000000000000000000000000000000000000000004000000000000000000001000000000000000000400000000000100000000020000010000000000000000000000000000000000000000000000000040000100000",
      "type": "0x2",
      "effectiveGasPrice": "0x6fc23ac0f"
    }
  ],
  "libraries": [],
  "pending": [],
  "returns": {},
  "timestamp": 1707874628,
  "chain": 80001,
  "multi": false,
  "commit": "53ccce6"
}