{
  "transactions": [
    {
      "hash": "0x51075ddb1c6cc8f1f114f2e37c36580a0cf1e3b3df664054ac7f4920178ac41f",
      "transactionType": "CALL",
      "contractName": null,
      "contractAddress": "0x1DD04d404eb496E57fA50de2E70F38709F03E7A2",
      "function": "setTrustedRemoteAddress(uint16,bytes)",
      "arguments": [
        "10161",
        "0xb004690a7125a11843c44a94a17dd7a24c7325e8"
      ],
      "transaction": {
        "type": "0x02",
        "from": "0x965b0e63e00e7805569ee3b428cf96330dfc57ef",
        "to": "0x1dd04d404eb496e57fa50de2e70f38709f03e7a2",
        "gas": "0x1fa66",
        "value": "0x0",
        "data": "0xa6c3d16500000000000000000000000000000000000000000000000000000000000027b100000000000000000000000000000000000000000000000000000000000000400000000000000000000000000000000000000000000000000000000000000014b004690a7125a11843c44a94a17dd7a24c7325e8000000000000000000000000",
        "nonce": "0x2b8",
        "accessList": []
      },
      "additionalContracts": [],
      "isFixedGasLimit": false
    },
    {
      "hash": "0xfebff0acebd49413ba9bc8e93d71779d325c8a9a1769d8c9f6a3c5040e45401f",
      "transactionType": "CALL",
      "contractName": null,
      "contractAddress": null,
      "function": null,
      "arguments": null,
      "transaction": {
        "type": "0x02",
        "from": "0x965b0e63e00e7805569ee3b428cf96330dfc57ef",
        "to": "0x1dd04d404eb496e57fa50de2e70f38709f03e7a2",
        "gas": "0x7199",
        "value": "0x5af3107a4000",
        "data": "0x",
        "nonce": "0x2b9",
        "accessList": []
      },
      "additionalContracts": [],
      "isFixedGasLimit": false
    }
  ],
  "receipts": [
    {
      "transactionHash": "0x51075ddb1c6cc8f1f114f2e37c36580a0cf1e3b3df664054ac7f4920178ac41f",
      "transactionIndex": "0x5",
      "blockHash": "0x1c04adbcedacdf52d75293b43ebc3ca14e7c18892a9868e539f071fdc3c61768",
      "blockNumber": "0x2b8923d",
      "from": "0x965B0E63e00E7805569ee3B428Cf96330DFc57EF",
      "to": "0x1DD04d404eb496E57fA50de2E70F38709F03E7A2",
      "cumulativeGasUsed": "0x138e2b",
      "gasUsed": "0x16ea0",
      "contractAddress": null,
      "logs": [
        {
          "address": "0x1DD04d404eb496E57fA50de2E70F38709F03E7A2",
          "topics": [
            "0x8c0400cfe2d1199b1a725c78960bcc2a344d869b80590d0f2bd005db15a572ce"
          ],
          "data": "0x00000000000000000000000000000000000000000000000000000000000027b100000000000000000000000000000000000000000000000000000000000000400000000000000000000000000000000000000000000000000000000000000014b004690a7125a11843c44a94a17dd7a24c7325e8000000000000000000000000",
          "blockHash": "0x1c04adbcedacdf52d75293b43ebc3ca14e7c18892a9868e539f071fdc3c61768",
          "blockNumber": "0x2b8923d",
          "transactionHash": "0x51075ddb1c6cc8f1f114f2e37c36580a0cf1e3b3df664054ac7f4920178ac41f",
          "transactionIndex": "0x5",
          "logIndex": "0xd",
          "removed": false
        },
        {
          "address": "0x0000000000000000000000000000000000001010",
          "topics": [
            "0x4dfe1bbbcf077ddc3e01291eea2d5c70c2b422b415d95645b9adcfd678cb1d63",
            "0x0000000000000000000000000000000000000000000000000000000000001010",
            "0x000000000000000000000000965b0e63e00e7805569ee3b428cf96330dfc57ef",
            "0x0000000000000000000000004ce0f825810371ea57fbcba98b2be98e730c10df"
          ],
          "data": "0x000000000000000000000000000000000000000000000000000a00d8963380000000000000000000000000000000000000000000000000005785489253d02bb100000000000000000000000000000000000000000000008a1c9ab12046bf0679000000000000000000000000000000000000000000000000577b47b9bd9cabb100000000000000000000000000000000000000000000008a1ca4b1f8dcf28679",
          "blockHash": "0x1c04adbcedacdf52d75293b43ebc3ca14e7c18892a9868e539f071fdc3c61768",
          "blockNumber": "0x2b8923d",
          "transactionHash": "0x51075ddb1c6cc8f1f114f2e37c36580a0cf1e3b3df664054ac7f4920178ac41f",
          "transactionIndex": "0x5",
          "logIndex": "0xe",
          "removed": false
        }
      ],
      "status": "0x1",
      "logsBloom": "0x00000000000000000000000000000000000000000000000000000000000000000000000000000000000000000000000000008000000000000000000000000000000000000002000000000000000004900000000000000000000100000000800000000000000000040000000000000000000004800000000080000000000000000000000000000000000000000000000000000000000000000000000000000000200000002000000000000000000000000000000040000000000000000000004040000000000000000001000000000000000000000000000000100000001000000000000000000000000000000000000000000000000000000000800000100000",
      "type": "0x2",
      "effectiveGasPrice": "0x6fc23ac10"
    },
    {
      "transactionHash": "0xfebff0acebd49413ba9bc8e93d71779d325c8a9a1769d8c9f6a3c5040e45401f",
      "transactionIndex": "0x6",
      "blockHash": "0x1c04adbcedacdf52d75293b43ebc3ca14e7c18892a9868e539f071fdc3c61768",
      "blockNumber": "0x2b8923d",
      "from": "0x965B0E63e00E7805569ee3B428Cf96330DFc57EF",
      "to": "0x1DD04d404eb496E57fA50de2E70F38709F03E7A2",
      "cumulativeGasUsed": "0x13e06a",
      "gasUsed": "0x523f",
      "contractAddress": null,
      "logs": [
        {
          "address": "0x0000000000000000000000000000000000001010",
          "topics": [
            "0xe6497e3ee548a3372136af2fcb0696db31fc6cf20260707645068bd3fe97f3c4",
            "0x0000000000000000000000000000000000000000000000000000000000001010",
            "0x000000000000000000000000965b0e63e00e7805569ee3b428cf96330dfc57ef",
            "0x0000000000000000000000001dd04d404eb496e57fa50de2e70f38709f03e7a2"
          ],
          "data": "0x00000000000000000000000000000000000000000000000000005af3107a400000000000000000000000000000000000000000000000000057782e414d40dc2100000000000000000000000000000000000000000000000000000000000000000000000000000000000000000000000000000000000000005777d34e3cc69c2100000000000000000000000000000000000000000000000000005af3107a4000",
          "blockHash": "0x1c04adbcedacdf52d75293b43ebc3ca14e7c18892a9868e539f071fdc3c61768",
          "blockNumber": "0x2b8923d",
          "transactionHash": "0xfebff0acebd49413ba9bc8e93d71779d325c8a9a1769d8c9f6a3c5040e45401f",
          "transactionIndex": "0x6",
          "logIndex": "0xf",
          "removed": false
        },
        {
          "address": "0x0000000000000000000000000000000000001010",
          "topics": [
            "0x4dfe1bbbcf077ddc3e01291eea2d5c70c2b422b415d95645b9adcfd678cb1d63",
            "0x0000000000000000000000000000000000000000000000000000000000001010",
            "0x000000000000000000000000965b0e63e00e7805569ee3b428cf96330dfc57ef",
            "0x0000000000000000000000004ce0f825810371ea57fbcba98b2be98e730c10df"
          ],
          "data": "0x00000000000000000000000000000000000000000000000000023e7b79df5400000000000000000000000000000000000000000000000000577b47b9bd85c1b100000000000000000000000000000000000000000000008a1ca4b1f8dcf286790000000000000000000000000000000000000000000000005779093e43a66db100000000000000000000000000000000000000000000008a1ca6f07456d1da79",
          "blockHash": "0x1c04adbcedacdf52d75293b43ebc3ca14e7c18892a9868e539f071fdc3c61768",
          "blockNumber": "0x2b8923d",
          "transactionHash": "0xfebff0acebd49413ba9bc8e93d71779d325c8a9a1769d8c9f6a3c5040e45401f",
          "transactionIndex": "0x6",
          "logIndex": "0x10",
          "removed": false
        }
      ],
      "status": "0x1",
      "logsBloom": "0x00000000000000000000000000000000010000000000000000000000000000000000000000000000000000100000000000008000002000000000000000000000000000000002000000000000000004900000000000000000000100000000000000000000000000000000000000000000000004000000000080000000000000000000000000000000000000000000000000000000000000000000000000000000200000004000000000000000000000000000000040000000000000000000004000000000000000000001000000000000000000000000800000108000001000000000000000000000000000000000000000000000000000000000000000100000",
      "type": "0x2",
      "effectiveGasPrice": "0x6fc23ac10"
    }
  ],
  "libraries": [],
  "pending": [],
  "returns": {},
  "timestamp": 1707304487,
  "chain": 80001,
  "multi": false,
  "commit": "39df2a0"
}