{
  "transactions": [
    {
      "hash": "0x2d3177adeea249c5673b029a0cafcff25c2ec80ca25ffb5eb8debe69fa4e51d5",
      "transactionType": "CALL",
      "contractName": null,
      "contractAddress": "0x1490c98b64Dc2a5963B2648a195ACE9719225d5D",
      "function": "sendVote(uint256,uint8)",
      "arguments": [
        "106343027174924039072363677969788076485983697713036371895217183766366697150692",
        "1"
      ],
      "transaction": {
        "type": "0x02",
        "from": "0x965b0e63e00e7805569ee3b428cf96330dfc57ef",
        "to": "0x1490c98b64dc2a5963b2648a195ace9719225d5d",
        "gas": "0x4ad06",
        "value": "0xe8d4a51000",
        "data": "0xb33e7ef6eb1c0538ccaa9e3e1bfd24e45b455c7068b37974688fb055b4309f1ed8c9d8e40000000000000000000000000000000000000000000000000000000000000001",
        "nonce": "0x2c1",
        "accessList": []
      },
      "additionalContracts": [],
      "isFixedGasLimit": false
    }
  ],
  "receipts": [
    {
      "transactionHash": "0x2d3177adeea249c5673b029a0cafcff25c2ec80ca25ffb5eb8debe69fa4e51d5",
      "transactionIndex": "0x0",
      "blockHash": "0x4bcbba913a01657872cfd21ca66b1f906ab3a7e2926c88816662636650fd1bc5",
      "blockNumber": "0x2b93c2b",
      "from": "0x965B0E63e00E7805569ee3B428Cf96330DFc57EF",
      "to": "0x1490c98b64Dc2a5963B2648a195ACE9719225d5D",
      "cumulativeGasUsed": "0x362a0",
      "gasUsed": "0x362a0",
      "contractAddress": null,
      "logs": [
        {
          "address": "0x0000000000000000000000000000000000001010",
          "topics": [
            "0xe6497e3ee548a3372136af2fcb0696db31fc6cf20260707645068bd3fe97f3c4",
            "0x0000000000000000000000000000000000000000000000000000000000001010",
            "0x000000000000000000000000965b0e63e00e7805569ee3b428cf96330dfc57ef",
            "0x0000000000000000000000001490c98b64dc2a5963b2648a195ace9719225d5d"
          ],
          "data": "0x000000000000000000000000000000000000000000000000000000e8d4a510000000000000000000000000000000000000000000000000005469c4563c008fad00000000000000000000000000000000000000000000000000000000000000000000000000000000000000000000000000000000000000005469c36d675b7fad000000000000000000000000000000000000000000000000000000e8d4a51000",
          "blockHash": "0x4bcbba913a01657872cfd21ca66b1f906ab3a7e2926c88816662636650fd1bc5",
          "blockNumber": "0x2b93c2b",
          "transactionHash": "0x2d3177adeea249c5673b029a0cafcff25c2ec80ca25ffb5eb8debe69fa4e51d5",
          "transactionIndex": "0x0",
          "logIndex": "0x0",
          "removed": false
        },
        {
          "address": "0x0000000000000000000000000000000000001010",
          "topics": [
            "0xe6497e3ee548a3372136af2fcb0696db31fc6cf20260707645068bd3fe97f3c4",
            "0x0000000000000000000000000000000000000000000000000000000000001010",
            "0x0000000000000000000000001490c98b64dc2a5963b2648a195ace9719225d5d",
            "0x0000000000000000000000002d1889fe5b092cd988972261434f7e5f26041115"
          ],
          "data": "0x0000000000000000000000000000000000000000000000000000000000000001000000000000000000000000000000000000000000000000000000e8d4a510000000000000000000000000000000000000000000000000000000000000000000000000000000000000000000000000000000000000000000000000e8d4a50fff0000000000000000000000000000000000000000000000000000000000000001",
          "blockHash": "0x4bcbba913a01657872cfd21ca66b1f906ab3a7e2926c88816662636650fd1bc5",
          "blockNumber": "0x2b93c2b",
          "transactionHash": "0x2d3177adeea249c5673b029a0cafcff25c2ec80ca25ffb5eb8debe69fa4e51d5",
          "transactionIndex": "0x0",
          "logIndex": "0x1",
          "removed": false
        },
        {
          "address": "0x2d1889fe5B092CD988972261434F7E5f26041115",
          "topics": [
            "0x769f711d20c679153d382254f59892613b58a97cc876b249134ac25c80f9c814",
            "0x0000000000000000000000001490c98b64dc2a5963b2648a195ace9719225d5d",
            "0x0000000000000000000000000000000000000000000000000000000000aa36a7",
            "0x000000000000000000000000c5fdafa7d8ad01156852e3e6403459358c21ea62"
          ],
          "data": "0x000000000000000000000000000000000000000000000000000000000000002000000000000000000000000000000000000000000000000000000000000000ad0300000262000138810000000000000000000000001490c98b64dc2a5963b2648a195ace9719225d5d00aa36a7000000000000000000000000c5fdafa7d8ad01156852e3e6403459358c21ea62eb1c0538ccaa9e3e1bfd24e45b455c7068b37974688fb055b4309f1ed8c9d8e4000000000000000000000000965b0e63e00e7805569ee3b428cf96330dfc57ef000000000000000000000000000000000000000000000000000000000000000100000000000000000000000000000000000000",
          "blockHash": "0x4bcbba913a01657872cfd21ca66b1f906ab3a7e2926c88816662636650fd1bc5",
          "blockNumber": "0x2b93c2b",
          "transactionHash": "0x2d3177adeea249c5673b029a0cafcff25c2ec80ca25ffb5eb8debe69fa4e51d5",
          "transactionIndex": "0x0",
          "logIndex": "0x2",
          "removed": false
        },
        {
          "address": "0x2d1889fe5B092CD988972261434F7E5f26041115",
          "topics": [
            "0x788dbc1b7152732178210e7f4d9d010ef016f9eafbe66786bd7169f56e0c353a",
            "0x3dd2cc288f9475e7c9210986164b93efb6a0e335314e492f81460c9662008ebf"
          ],
          "data": "0x",
          "blockHash": "0x4bcbba913a01657872cfd21ca66b1f906ab3a7e2926c88816662636650fd1bc5",
          "blockNumber": "0x2b93c2b",
          "transactionHash": "0x2d3177adeea249c5673b029a0cafcff25c2ec80ca25ffb5eb8debe69fa4e51d5",
          "transactionIndex": "0x0",
          "logIndex": "0x3",
          "removed": false
        },
        {
          "address": "0x0000000000000000000000000000000000001010",
          "topics": [
            "0xe6497e3ee548a3372136af2fcb0696db31fc6cf20260707645068bd3fe97f3c4",
            "0x0000000000000000000000000000000000000000000000000000000000001010",
            "0x0000000000000000000000002d1889fe5b092cd988972261434f7e5f26041115",
            "0x000000000000000000000000244d1f7e30be144a87602905babf86630e8f39dc"
          ],
          "data": "0x00000000000000000000000000000000000000000000000000000000000000010000000000000000000000000000000000000000000000000000000000000001000000000000000000000000000000000000000000000000000000000000026200000000000000000000000000000000000000000000000000000000000000000000000000000000000000000000000000000000000000000000000000000263",
          "blockHash": "0x4bcbba913a01657872cfd21ca66b1f906ab3a7e2926c88816662636650fd1bc5",
          "blockNumber": "0x2b93c2b",
          "transactionHash": "0x2d3177adeea249c5673b029a0cafcff25c2ec80ca25ffb5eb8debe69fa4e51d5",
          "transactionIndex": "0x0",
          "logIndex": "0x4",
          "removed": false
        },
        {
          "address": "0x8aB67CAF605c6ee83cbFeFb0D8d67FDd3BF7B591",
          "topics": [
            "0x65695c3748edae85a24cc2c60b299b31f463050bc259150d2e5802ec8d11720a",
            "0x3dd2cc288f9475e7c9210986164b93efb6a0e335314e492f81460c9662008ebf",
            "0x0000000000000000000000000000000000000000000000000000000000aa36a7"
          ],
          "data": "0x00000000000000000000000000000000000000000000000000000000000333480000000000000000000000000000000000000000000000000000000000000000",
          "blockHash": "0x4bcbba913a01657872cfd21ca66b1f906ab3a7e2926c88816662636650fd1bc5",
          "blockNumber": "0x2b93c2b",
          "transactionHash": "0x2d3177adeea249c5673b029a0cafcff25c2ec80ca25ffb5eb8debe69fa4e51d5",
          "transactionIndex": "0x0",
          "logIndex": "0x5",
          "removed": false
        },
        {
          "address": "0x9AF85731EDd41E2E50F81Ef8a0A69D2fB836EDf9",
          "topics": [
            "0x253a3a04cab70d47c1504809242d9350cd81627b4f1d50753e159cf8cd76ed33"
          ],
          "data": "0x3dd2cc288f9475e7c9210986164b93efb6a0e335314e492f81460c9662008ebf000000000000000000000000000000000000000000000000000000000000025f",
          "blockHash": "0x4bcbba913a01657872cfd21ca66b1f906ab3a7e2926c88816662636650fd1bc5",
          "blockNumber": "0x2b93c2b",
          "transactionHash": "0x2d3177adeea249c5673b029a0cafcff25c2ec80ca25ffb5eb8debe69fa4e51d5",
          "transactionIndex": "0x0",
          "logIndex": "0x6",
          "removed": false
        },
        {
          "address": "0x0000000000000000000000000000000000001010",
          "topics": [
            "0x4dfe1bbbcf077ddc3e01291eea2d5c70c2b422b415d95645b9adcfd678cb1d63",
            "0x0000000000000000000000000000000000000000000000000000000000001010",
            "0x000000000000000000000000965b0e63e00e7805569ee3b428cf96330dfc57ef",
            "0x000000000000000000000000be188d6641e8b680743a4815dfa0f6208038960f"
          ],
          "data": "0x0000000000000000000000000000000000000000000000000017a54e42238000000000000000000000000000000000000000000000000000548a6d72f05d680d000000000000000000000000000000000000000000003644e945c43b016c73410000000000000000000000000000000000000000000000005472c824ae39e80d000000000000000000000000000000000000000000003644e95d6989438ff341",
          "blockHash": "0x4bcbba913a01657872cfd21ca66b1f906ab3a7e2926c88816662636650fd1bc5",
          "blockNumber": "0x2b93c2b",
          "transactionHash": "0x2d3177adeea249c5673b029a0cafcff25c2ec80ca25ffb5eb8debe69fa4e51d5",
          "transactionIndex": "0x0",
          "logIndex": "0x7",
          "removed": false
        }
      ],
      "status": "0x1",
      "logsBloom": "0x000000002000008080000000000000002002000000000000000000000020000040000000000000000008001000000800020080000000000000000000040008800000000000020000000002000000049000000800000000000001000004000040080000000000000000000200000000000000010000000000c0000000002000000000000000000000000100000000004000080000000080000000000000400002200000000000000000000000000180000200000000000000000000000200004000001000000000000001000000000000100000002000880000108040000000000000400000000000000002000400000000000400000000000000000000100400",
      "type": "0x2",
      "effectiveGasPrice": "0x6fc23ac10"
    }
  ],
  "libraries": [],
  "pending": [],
  "returns": {},
  "timestamp": 1707405403,
  "chain": 80001,
  "multi": false,
  "commit": "84b4fec"
}